S01200007368736D6173746572332E7372656305
S113000060150020950F0000910F0000910F000073
S113001000000000000000000000000000000000DC
S1130020000000000000000000000000910F00002C
S11300300000000000000000910F0000910F00007C
S1130040910F000025170000C97E0000453900000B
S1130050B14E0000910F0000910F00008D4E000082
S1130060517A000051780000F91E000000000000E1
S113007000000000910F0000D11500006975000018
S113008001700000910F0000910F000000000000BB
S113009000000000910F0000910F0000910F00007C
S11300A0910F000010B5064C2378002B07D1054BA7
S11300B0002B02D0044800E000BF0123237010BDD0
S11300C0E80200200000000010BD0000084B10B53D
S11300D0002B03D00749084800E000BF0748036825
S11300E0002B00D110BD064B002BFBD09847F9E73D
S11300F000000000EC02002010BD000010BD000054
S11301000000000010B5134C90B020000D21124BDC
S1130110984721003C23114C0A2201A8A0473C2304
S113012014220F4901A8A0470E4B6A460E4901A8A4
S113013098470E4B04009847012C07D10020009AE1
S11301400B490C4B9847009810B010BD0120404259
S1130150FAE7C046809D00005D5200002150000077
S1130160A0AF0000AD8900008E9D0000C14F0000CB
S11301709E9D0000997B000070B5FA2588B00F4958
S113018000200F4B98470F4C0D2120000E4B984731
S11301906D00210020230A220C4E6846B0470C4C07
S11301A02800A0472800A0472800A0472023282291
S11301B008496846B047C0B208B070BDAC9D0000A5
S11301C0997B0000C59D00005D5200002150000095
S11301D0057C0000A0AF000010B50E4988B00020D7
S11301E00D4B98470D4C0D2120000D4B98472100D5
S11301F00A220C4C20236846A047FA200A4B4000F0
S113020098472023282209496846A047C0B208B06D
S113021010BDC046D39D0000997B0000E89D0000FE
S11302205D52000021500000057C0000A0AF0000DA
S1130230F0B5204C8FB020000B211F4EB047210099
S113024032230A221D4C01A8A0471D4D142232233B
S1130250290001A8A0471B4B1B4901A898471B4B29
S1130260070098471A4B002F05D01A4900209847D9
S113027001200FB0F0BD38001749984717211748DF
S1130280B04732230522290001A8A04711211448B0
S1130290B04732230522290001A8A04714211148A0
S11302A0B04732230522290001A8A047074B9847ED
S11302B0DEE7C046F69D00005D52000021500000BC
S11302C0A0AF0000E18A0000029E0000C14F0000C0
S11302D0997B00000F9E0000379E0000579E00008F
S11302E06F9E0000819E0000F8B50E4900200E4D5F
S11302F0A8470E4FB8470E4CC0B22600C336307024
S1130300002809D10B4B98470B4B9847FA200B4B0D
S113031040009847B8473070C33422780849002019
S1130320A847F8BD969E0000997B000005010000D7
S1130330580A00203102000079010000057C000009
S1130340AC9E000010B50C4988B000200B4B9847B8
S11303500B4C0C2120000B4B9847210020230A4C06
S11303600A226846A0472023282208496846A04755
S1130370C0B208B010BDC046C29E0000997B000008
S1130380DA9E00005D52000021500000A0AF000082
S1130390F0B58BB007AD2A000400324B039143CB78
S11303A043C2039B304E009303220A2329002000FA
S11303B0B047061E02D100200BB0F0BD02002B494D
S11303C000202B4B9847AF682A4B380098472100F0
S11303D002003800284FB84700280FD1274B984710
S11303E0274DC2352C78002CE5D1264B98470123A4
S11303F0200025492B701E4B9847DCE76D681D4B88
S113040028009847310002002800B847051E07D18C
S11304101A4B98471A4B1D49C2331D702800EAE74E
S1130420039B07221A4920001A4DA8470028C2D06E
S113043006AB05AA18492000184DA8470228BAD1CE
S11304400023200002780D2AB6D02C2A01D10133D2
S1130450DBB20130022BF5D103001A780D2AABD0A0
S11304600133FAE7749D000001510000E79E00008B
S1130470997B00003F8A00004D8A0000C14F0000B4
S1130480580A002045030000FF9E00001E9F000044
S1130490829F00002150000008B00000AD890000D8
S11304A0F0B500242500ADB002900391039B9C425B
S11304B002D101202DB0F0BD631C9BB20193029BBD
S11304C01F5D0A2F25D1019B13495B1B1A00009362
S11304D004A8124B9847124B060012490020984773
S11304E0FF2104A83140104EB0473A0080230F4941
S11304F00F4F0CA8B847029B00995819B047FA202F
S11305000C4B40009847802332220B490CA8B84773
S1130510019D0134CAE7C046409F0000698900007C
S1130520997B0000519F00005D5200003CA5000033
S113053021500000057C0000679F0000F8B51249B7
S11305400020124DA847124C2300C2331B78002B05
S113055003D013210F48104B984723000026C233C1
S11305600E4F1E70B847C334C0B22070B04202D1DF
S11305700B49A847F8BD0B4B9847B8470A49207068
S1130580C2B23000A847F5E7D39D0000997B000074
S1130590580A0020719F0000A1040000050100001A
S11305A0859F0000D9010000AC9E00000300F0B557
S11305B0040000202A338DB001931A7802AB18701E
S11305C0744B012A00D0E2E07349651C9847042269
S11305D072492800724EB047002805D12900607086
S11305E029342278073010E028006E4B98470B28F6
S11305F012D163782A2B1AD1282202A928006A4B27
S113060098472934227802A90720684B9847002389
S1130610019A13700DB0F0BD102808D163782A2B0D
S113062005D1282202A92800614B9847E9E7032253
S113063060492800B047002803D1293422785E4954
S1130640D0E703225D492800B047002804D12822BE
S113065002A95B4B9847D4E705225A492800B047C2
S1130660071E0BD1E071584BA01D9847574BC0B2E1
S113067098476770293422782900C5E70422544931
S11306802800B047002816D1661D35002F78002FAA
S113069008D0504B98470822C7197B78134208D0DA
S11306A000232B7030004C4B9847293422784B4957
S11306B0AAE70135EAE7052249492800B04700289E
S11306C012D1A61D35002F78002F08D0414B984732
S11306D00822C7197B78134204D000232B70300002
S11306E0404BE1E70135EEE704223F492800B047DB
S11306F0002812D1661D35002F78002F08D0354B05
S113070098470822C7197B78134204D000232B7022
S11307103000364BC8E70135EEE70522344928009E
S1130720B047002812D1A61D35002F78002F08D01D
S1130730284B98470822C7197B78134204D000231A
S11307402B7030002B4BAFE70135EEE705222A4929
S11307502800B047002800D059E70526A71D280027
S1130760104B9847B04209D91A4B98470421A21953
S11307705378C01843780B4007D1537038001F4B8F
S113078098471F4B80B298478FE70136E7E71D492A
S113079098473CE7997B0000C09F0000D79F00006A
S11307A04D8A00003F8A0000490C00007D6C000067
S11307B08D0D0000DC9F000046AE0000E09F0000AD
S11307C061090000E49F00009D8800003569000075
S11307D0EA9F000005890000556600002EAE000067
S11307E0EF9F000079660000F59F00009D66000001
S11307F0FA9F0000C166000000A00000A988000064
S11308006972000006A00000F7B51E4C0700230023
S113081000250192B0331B78032258191040293265
S11308205043065D002E22D1231807552A332B3A54
S113083001301A7000192822134B98472300032211
S1130840B0331B7830005B191340293253436A4696
S1130850E4182300127928332B345A701E70267042
S11308603B002A0009490A4CA0470120FEBD01357E
S1130870042DD1D100203A000649054B98470020A9
S1130880F4E7C046140C0020B78A000022A0000040
S1130890997B000039A000000B4B10B51C002C20E4
S11308A00021B03422785043C1541B1818005970E9
S11308B02B33197003232A30013201701A40013896
S11308C00170227010BDC046140C0020F8B572B639
S11308D07F221649CB7C1A40CA7462B65BB2002BE5
S11308E023DA134C2C252600B036337811496B4398
S11308F000201A5D104FB84733786B43E35C012B3B
S113090007D100200D49B84730780D4B68430019D2
S113091098472300B0331A782C235343E4182A341D
S11309202378002B01D1074B9847F8BD580A0020C3
S1130930140C002051A00000997B000061A000006D
S1130940AD0500009908000010B5B122002102484D
S1130950024B984710BDC046140C00205789000074
S1130960F0B599B0384B070007A804910592984751
S113097009A8364B9847002307A91A0009A8344E42
S1130980B04700250400A84206DC2B00012207A979
S113099009A8B04704000135002F3DD02D492E4B46
S11309A00BA898472D4E0BA8B04704200123002222
S11309B007A90856CB568A56029003200856284F9A
S11309C0019089780BA849B200912649B8470BA831
S11309D0B04704200123002209A90856CB568A56A1
S11309E0029003200856019089780BA849B200911F
S11309F01D49B8470BA8B0471C4B002D00D11C4B18
S1130A001C4922000BA8164EB0470BA8134B98475D
S1130A1029002000184B9847059B082B07D9104B39
S1130A2022001649002D00D1154904989847002C3E
S1130A3006DC074C0123002207A909A8A0470400EB
S1130A40200019B0F0BDC04659390000B13900008A
S1130A50213A00007BA000002F8A0000757B000073
S1130A606989000094A00000B5A0000070A00000F7
S1130A7076A00000D6A0000035210000EAA0000006
S1130A80F2A00000F0B585B000281BD0224C234B07
S1130A90200098472678224D224F002E14D1224957
S1130AA03000A8473000B8473200310030001F4BF7
S1130AB0984701221E4B1100100098476323E370EE
S1130AC01C4B984705B0F0BD1B490020A847E378AC
S1130AD062781A490020A8476378002B08D1A078CF
S1130AE0002805D11649A8470120B847154BE8E767
S1130AF0002201A90120144B9847002805DC134962
S1130B000020A8470020B847DAE711490020A84789
S1130B100620104B9847E7E7040300200510000067
S1130B20997B000035690000FAA00000813C0000B8
S1130B300D3D00008574000015A100002EA10000E9
S1130B4043A100001D7400006109000064A10000BD
S1130B5082A10000493E0000F7B5124B050068462B
S1130B600C0016009847002321001A0068460E4F17
S1130B70B84700280FDC0123002221006846B8474B
S1130B80002808DA09480A4B984732002100280057
S1130B90084B9847F7BD0848054B9847320069460B
S1130BA0F5E7C046B1390000213A00009CA10000DD
S1130BB0757B00006D3B0000A9A1000010B5054B3A
S1130BC09847054C054B201D98472000044B984737
S1130BD010BDC0468574000004030020593900008C
S1130BE09511000010B5044C044B201D98472000BB
S1130BF0034B984710BDC046040300205939000038
S1130C00951100001FB5002201A9024B012098474D
S1130C1005B000BD61090000024B1868800080081F
S1130C207047C0460CA08000044B10B51A680449F4
S1130C30920092080020034B984710BD0CA080003E
S1130C40B8A10000997B00002023F0B503700023B5
S1130C508BB0471C04000191029283720922374928
S1130C603800374EB047002809D0092235493800EA
S1130C70B04700285FD0344B98470BB0F0BD050057
S1130C8003270A2200212000304B984730490200F4
S1130C900300304C0020A0472F48304B98470023D6
S1130CA006AE33707370F37004A82D4BB5703771B2
S1130CB098472C4B984708AC0390320004A92000B5
S1130CC0294B98472179E078039A284B9847227852
S1130CD06178A078264B98470620264B9847E378FE
S1130CE02548037323794373A378C37263788372AB
S1130CF023780124437204ABDB78C37104AB1B7902
S1130D00037204AB9B78837104AB5B78047043710A
S1130D1004AB1B78C4700371184B457087709847F7
S1130D20029A01992000164B9847164B98472000C9
S1130D30154B9847A1E705250700A2E7C2A10000CB
S1130D404D8A0000CCA10000ED740000958D0000D8
S1130D50D6A10000997B0000E9A10000757B00008A
S1130D605939000095390000590B0000993D0000E5
S1130D70253E0000493E00000403002095110000B8
S1130D80610900001D74000035690000F0B50027FA
S1130D900A25092695B002910774411C5E4B0CA8E4
S1130DA00392984702ABF618ED182B0005AA310000
S1130DB00CA85A4CA047B84200DCA5E005992B8842
S1130DC0327838000091564C5649A047564C3800AA
S1130DD0E278534B55499847554B059A1B68554F34
S1130DE09B009B089A4200D084E05348B847E378BC
S1130DF03278934205D3002A00D06DE05F2B00D8EF
S1130E006AE02D884D4A6B1E9BB293425FD800273F
S1130E1006AE30004A4B9847464B4A48984708AAC2
S1130E20177057702B1C602D00D960230AAC9BB23D
S1130E309370ED1A31002000434BD7701771984717
S1130E402179E0780022414B984722786178A07894
S1130E503F4B984706203F4B9847ADB2002202997A
S1130E6001203D4B9847002DD3D1E2782E4B1A73C5
S1130E7022795A73A278DA7262789A7222785A7254
S1130E80F278DA7132791A72B2789A7172785A7188
S1130E9032781A71092302AA9B1823481B7801256A
S1130EA0C3700A2300249B181B88057043702B4BC6
S1130EB084709847039A0299274B28009847284B37
S1130EC098472800274B9847200015B0F0BD2648C6
S1130ED0B847264B9847DDE72548B847039B0F2BB7
S1130EE002D801204042F0E7E27822490298224BDE
S1130EF09847F6E72148B847039B2149002BF0D0D7
S1130F000298204B9847ECE70A4B1F489847039BED
S1130F10002BE6D01D49F3E72F8A0000657C000012
S1130F20997B0000F9A100000403002012A2000034
S1130F300CA08000757B000022A20000E6030000E4
S1130F4059390000E9A10000590B0000993D000047
S1130F50253E0000493E0000610900009511000093
S1130F601D740000356900002DA20000693E0000D8
S1130F703DA200004CA20000698900005CA20000B0
S1130F806BA20000018A000071A2000080A2000090
S1130F90FEE700001148124970B5884204D00023CE
S1130FA0104CCA18A24213D300210F4B0F4A93428C
S1130FB012D3FF210E4B0F4A8B43936080230E4ABA
S1130FC051680B4353600D4B98470D4B9847FEE710
S1130FD0C55804331560E4E702C3E8E710BD000018
S1130FE000000020E4020020E8020020600D002040
S1130FF00000000000ED00E000400041B588000062
S1131000411A000010B50E220149024B984710BD49
S1131010140300204589000010B50349142210313F
S1131020024B984710BDC0461403002045890000B8
S113103010B5034959222431024B984710BDC046CC
S113104014030020458900000C490D4A8B685B039A
S11310505B0F9B009A580B4B1A608B680A499BB232
S11310600B605343094992000B60094B1A60094A0B
S1131070094B1A608022094B1A60704700400041F6
S113108000A30000C0080020B8080020B408002015
S1131090C408002000A40000BC080020C8080020E8
S11310A0044B054A4008D8611A801A7DD207FCD542
S11310B07047C0460040004102A5FFFF084B70B5D1
S11310C01D68084B1C68084E084B32682000954286
S11310D001D8984770BD98473368E418ED1AF2E7D1
S11310E0C8080020BC080020C4080020A11000008B
S11310F0F8B51F4B05001E681E4B1F681E4B984712
S113110080211E4AFB1C50689B0801435160002B40
S113111000D1F8BD1A491180117DC907FCD51948C1
S11311201900844667463F68581ABF08B84201D27E
S1131130002906D1144B1380137DDB07FCD50B006B
S1131140E5E7FF272878BC430443104F68783C4008
S1131150000204430E48AF782040EC783F0480B28C
S113116024063843044310C604350139DAE7C0467F
S1131170BC080020C8080020BD1000000040004149
S113118044A5FFFFC008002004A5FFFFFF00FFFFE8
S1131190FFFF00FF70B50500064B07489847074C52
S11311A029000E222000064B98472000054B984743
S11311B070BDC046757B000000A50000140300202C
S11311C045890000F110000070B5074B0500074881
S11311D09847074C290020001422064B10309847EA
S11311E02000054B984770BD757B000013A50000D7
S11311F01403002045890000F110000070B5074B6E
S1131200050007489847074C290020005922064B3F
S1131210243098472000054B984770BD757B00002B
S113122025A500001403002045890000F1100000EA
S1131230034B10B51968034B1A68034B984710BD4C
S1131240BC080020C80800204589000010B5034BE5
S113125098470348034B984710BDC0464910000007
S11312601403002031120000014B1878C0B27047FB
S1131270CC0800200222034B1A700022FF335A7755
S11312807047C046CC08002070B5856802006968C4
S11312900020872919D96968E42916D823490C0044
S11312A0FF34647F042C11D1AC681F2C0ED9AC68B8
S11312B0362C0BD8EC68082C08D9EC68112C05D80E
S11312C0012350605B420120136070BDFF31497FF0
S11312D000204329F9D9A9684129F6D9A9686F29B9
S11312E0F3D82C00030001260D350C34FF3521689A
S11312F0082919D92168112916D86068211D1428D4
S11313000AD96068242807D85B0033430834AC4208
S1131310EDD120215160D6E70868062804D9096870
S11313200D2901D85B00F1E70020CEE7CC080020AE
S11313300A4B10B583600A4B1A00FF32527FC26019
S11313401A780023052A07D1064B98470400064B58
S1131350984723005C1EA341180010BDD00800204C
S1131360CC08002089120000751200006A4A00B5FA
S11313700300904200D1CAE000D965E0674A904278
S11313805BD035D8664A904200D1C2E017D8654A8E
S1131390904200D190E009D8634A904200D16BE0BA
S11313A0624A904200D1ACE03F2033E0604A904270
S11313B000D1A2E05F4A9342F6D12A2015E05E4AAA
S11313C0904200D1A3E008D85C4A904200D17CE06E
S11313D05B4A9342E8D1362007E05A4A904200D152
S11313E091E0594A9042DFD132208023184311E022
S11313F0564A904200D182E015D8554A904200D115
S11314007DE008D8534A904200D16CE0524A7620DD
S11314109342C9D100BD514A904276D0504A90427D
S1131420C2D13020E1E74F4A904245D007D84E4A16
S1131430904262D04D4A9042B6D15E20EAE74C4ACF
S1131440904262D04B4AE2E74B4A9042B5D023D84F
S11314504A4A904247D011D8494A904235D004D8DC
S1131460484A9042C0D0484AA5E7484A9042D8D05A
S1131470474A934200D097E73120B6E7454A904265
S11314803FD004D8444A90423DD0444AA1E7444A5C
S113149090423ED0434AECE7434A904200D19AE757
S11314A015D8424A904234D008D8414A904228D0B4
S11314B0404A904200D077E7342096E73E4A904273
S11314C021D03E4A904200D06EE739208DE73C4A55
S11314D0904214D009D83B4A904200D184E73A4A5A
S11314E0904200D060E738207FE7384A904298D095
S11314F07220013300D18DE756E73C208AE735207E
S113150073E7372071E723206FE7212082E73E202D
S113151080E7332069E7C046A55AFF007788FD00BD
S1131520BF40FD00DF20FD00FF00FD00EF10FD00C7
S1131530D728FD00CF30FD009768FD00AF50FD00B7
S11315409F60FD008F70FD007F80FD00FD02FF00A5
S11315505FA0FD006F90FD006798FD0057A8FD0097
S11315604FB0FD00DD22FF00EF10FF00E718FF0081
S1131570C738FF00B54AFF00F708ED1057A8FF0071
S11315806F90FF009D62FF009768FF006798FF005F
S11315905DA2FF001FE0FF004FB0FF003DC2FF004F
S11315A01DE2FF00FF00ED109F60ED10BF40ED1045
S11315B0EF10ED10DF20ED10B748ED10AF50ED1037
S11315C05FA0ED107F80ED106F90ED104FB0ED1027
S11315D0F0B52E4DAB7BDB063AD52D4B2D4E1A6A5A
S11315E080235B021A4033685C1C2B4B3460190067
S11315F0FF31497F452901D905211970187802382E
S1131600032823D806F0ACFC02122535002A1DD18C
S11316101800FF304277417FC9B24F1CFFB24777B1
S1131620890059184C60326003320EE0002A0DD054
S11316301800FF30427FD2B2511C92009A18C9B2EE
S1131640417754600022326004321A701023AB7365
S1131650F0BD002A07D11F00FF37797FC9B2481CAB
S1131660C0B27877DCE7C822D2009442EED90522D2
S1131670EBE702212B888B4380212B80074BC90188
S1131680D967002AE2D13260E0E7C0460024004274
S113169000440041EC090020CC08002004E100E0F3
S11316A070B580250222164C164B6D0265601978C0
S11316B00A431A700422197891431970A5611978A4
S11316C00A431A70104B002806D11A6A0F490A40BF
S11316D01A620F4B984770BD8022196A92000A4320
S11316E01A620C4A0C4B30215A800C4B0C4A1A805B
S11316F000221A8219831A8210325A73E9E7C0460B
S1131700004400415044004100040040FFFDFFFF3D
S11317107512000013400000000C00400024004239
S113172020230000054B9A68520505D50121044A7F
S113173011708022D2009A607047C04600080040B1
S1131740C60C002010B50248024B984710BDC04695
S113175037A500005D7B00000023F7B501AF04004E
S11317607B7038702A2808D1134A1360124D2B68F5
S1131770502B16DD00232B6010E0232807D10F4BDC
S11317801B782A2B03D101220B4B1A71EEE72000A0
S11317900B4B98470028E9D10A4B98472024200096
S11317A0FEBD094B98472E68044839003018074B92
S11317B0013698472E60F2E794030020F0090020D8
S11317C01D7C0000ED740000557500002F8A000098
S11317D02A4B30B51900102502225D604431087887
S11317E01043087004200C7884430C709D610C78BD
S11317F01D0004430C708024E4029C605235297857
S1131800043D114329715C61802424039C6069793F
S1131810114369715C61802464049C60A97A11435A
S1131820A9725C618024A4049C60E97A1143E97282
S11318305C61802424059C60697B114369735C614D
S1131840802464059C60A97B1143A9735C61802496
S1131850E4019C602978114329705C61802419009B
S113186024025C604F310D782A430A700A7882435F
S11318700A709C610B781843087030BD0044004125
S113188010B50123154C072215490020A047154B1C
S113189015491A780020A04714490020A04714498C
S11318A00020A047134B984713490020A047134931
S11318B00020A04712490020A04712490020A04759
S11318C011490020A04711490020A04710490020D9
S11318D0A04710490020A04710BDC046997B0000D6
S11318E03FA50000540A002066A5000074A500006E
S11318F07EA50000290C000088A50000D3A50000E7
S1131900F9A5000017A600003FA600007CA6000071
S1131910A7A60000CDA6000070B500251C4B04004E
S11319201D70A8420ED072B61A4E2900C4221A485D
S1131930B047042229001948B04762B61848290064
S1131940184B98472000184B98472000174B98478E
S11319502000174B98472000164B9847E0B2164BCF
S113196098472000154B98472000154B98472000B6
S1131970144B98472000144B98472000134B98476A
S1131980002C02D0124B984770BD124B9847FBE7CE
S1131990C60C002057890000580A0020100C0020B3
S11319A088130000657D000005760000757A00004C
S11319B00577000081710000B93F0000850A00002E
S11319C0A1160000E566000049090000DD1F0000C3
S11319D081180000B17E0000F8B572B60024104BE7
S11319E01A781C70D2B262B6A24217D020000D49F8
S11319F00D4EB04720000D4FB847FA200C4BC000E5
S1131A001C700C4B98470C4BDD688023DB001D4099
S1131A10F3D10120B84709492800B047F8BDC046B2
S1131A20C60C0020F5A60000997B000019190000DF
S1131A30C50C0020ED7E00000008004014A7000043
S1131A40F0B5A14B87B01A78A04B64201A70A04B54
S1131A50984708239F4CA049A2691343A3619F4B55
S1131A601A6A0A401A6200229D495A6359639D49C1
S1131A700A709D490A70596B02320A435A638022E4
S1131A801201D9681142FCD08022D2005A6002228D
S1131A90964B1A6062B6964B9847964B9847964B6E
S1131AA09847964B9847964B01209847954B9847F3
S1131AB000280CD094490020944B984700220A2116
S1131AC00720934CA047012211001000A047914B1E
S1131AD0002201A9012098478F4B98478F4B9847C4
S1131AE072B68F4E7379002B6CD0002373718D4BBB
S1131AF018788D4BC0B2984762B68C4B98478C4B84
S1131B00984705281AD102A88A4B9847002815D06F
S1131B100298894B98470400030604D57F231C4090
S1131B202000814B98472000804B98472300029A5D
S1131B3082490020754CA047774B98473379002B96
S1131B4020D07F4B7F4898477F4C80492000804DB0
S1131B50A847804B00280BD07F492000A847021ECD
S1131B6035D101A901206B4B984700282CDC7B4B15
S1131B7098477B4B6422002120009847002333714F
S1131B80654B9847B379002B09D0002475486C4BFA
S1131B90B4719847744B98472000744B9847744D20
S1131BA0A847744CA047744B9847A047734B984779
S1131BB0A047A847A047724B9847A047714B984746
S1131BC0A0478BE762B69AE76F4B9847D1E76F4916
S1131BD02000A847002803D10130644B9847C8E788
S1131BE06B492000A8470028F7D06A492000A8477D
S1131BF0071E14D1684B9847051E0AD10120674F70
S1131C00B8472A0001A9434B012098472800B84748
S1131C10AFE73A0001A93F4B01209847A9E7604983
S1131C202000A847002801D15C4BD7E75D4920007C
S1131C30A847002801D10130F6E720005A4B984705
S1131C4005282DD1202323702023002165780A2222
S1131C5063702000554B21719847352D0CD1544B9E
S1131C60C0B2984701A900222A4B01209847514944
S1131C700020264B98477CE7362D02D1C0B24E4B4C
S1131C80EFE7372D02D1C0B24C4BEAE7382D02D131
S1131C90C0B24B4BE5E7392DE4D1C0B2494BE0E784
S1131CA00B2805D1002201A92000474B984760E783
S1131CB0102801D0454B5BE7002201A92000444BCA
S1131CC098470028F6DB54E738040040540A002003
S1131CD0057C000000040040FFFCFFFF00080040FA
S1131CE054033000C60C0020C50C002000E100E0C5
S1131CF0E13E0000117F0000D11700004D120000EA
S1131D0019190000E56100002EA70000997B00006E
S1131D10CD6300006109000045170000517D0000FB
S1131D20940300200F0C002059170000497B000089
S1131D3069120000311300006D1300003EA700007B
S1131D40757B0000F2A60000F0090020DC9F000073
S1131D501B8A0000290C0000E09F0000857400002D
S1131D60578900008AA70000BD0B000035690000F8
S1131D704D210000D9190000416D0000F14D000013
S1131D8091640000CD080000E57300004CA700003A
S1131D9050A7000054A70000DD7B0000E97B000091
S1131DA058A700005DA700003F8A0000958D000041
S1131DB0F13C000062A70000CD3C0000A93C0000FB
S1131DC05D3C0000393C0000490C0000ED7400004B
S1131DD08D0D00007047000010B52D2909D82A295F
S1131DE00AD2282908D0292908D001230530C3772D
S1131DF002E04C390129F8D8012010BD1000014B34
S1131E009847F9E7057C0000143970B5050008000F
S1131E100C2955D806F0A4F816545407242B54540E
S1131E205454545416000024264E274930780C701C
S1131E30264985180C704C701F2D05DD244920009F
S1131E40244B9847012011E02349EDB240181900B2
S1131E50224B9847224A234B357015701C70F1E7CA
S1131E6000220120174B02351A70E87770BD032356
S1131E701D4C1E4A6373636813406360238ADB0B43
S1131E80FCD11B4E033333706B1CDB7F23750F4B6C
S1131E901B78002B03D000230235EB77D2E7154BD8
S1131EA0012098473378002BF1D1C02362689B024C
S1131EB013436360238ADB0BFCD103232373EAE718
S1131EC00020D3E7090D0020C70C00209C0300204C
S1131ED0EFA70000997B0000E80C00204589000072
S1131EE00A0D0020080D002000140042FFFFFBFF34
S1131EF00D0D0020057C000010B52F4B9A7BD207F6
S1131F0011D52E492E480A780078904231D1C0224A
S1131F105868920202435A601A8AD20BFCD10124F7
S1131F2028480A7004709A7B920721D526482349D1
S1131F3000780A780138824224D180205C68C0028B
S1131F4020435860188AC00BFCD1C0205C68800212
S1131F5020435860188AC00BFCD1501C0870187EAE
S1131F601A4988541A8AD20BFCD1164B01325A7082
S1131F7010BD501C087016498A5C1A761A8AD20B56
S1131F80FCD1D0E75868134C20405860188AC00B25
S1131F90FCD1501C0870187E0C4988541A8AD20B44
S1131FA0FCD15A680C491140802292020A435A60BB
S1131FB01A8AD20BFCD1DBE700140042C70C0020C4
S1131FC00A0D00209C030020080D0020C80C0020EE
S1131FD0E80C0020FFFFFBFFFFFFFCFFF7B58024A8
S1131FE001900220414D424BE4036C601A780F26A5
S1131FF002431A7004221978802791431970AC6146
S113200019783F041143197001211C780C431C708A
S1132010384C2378B34303432370374B6F601E78E7
S11320203043187018780F2690431870AF6120253C
S1132030187802431A701A780A431A7023781E40DB
S11320402E432670019B2D4C002B07D12C482D4B81
S113205004309847236AAB432362F7BD236A2A4AB4
S11320601D432A4B25625A809422294B1A606C32F4
S11320705A601A8AD20BFCD1264A5A811A8AD20B88
S1132080FCD1196802320A431A601A8AD20BFCD1B5
S113209030211A8A8A43110010220A431A821C8AA8
S11320A0E40BFCD103225A738022154D1A4B2E1DCA
S11320B0D2001A6019491A4A1A4B30001A4FB8470D
S11320C078230535EB773000184B98470D4B2100EA
S11320D030009847164B9C809C71DC711C725C72BA
S11320E09C72DC721C735C73B7E7C0460044004109
S11320F0564400413B440041574400410004004021
S11321009C0300209737000010400000000C0040A2
S1132110001400420B16000000E100E058A9000082
S1132120091E0000D91D00002D2A00008937000077
S11321301C040020044B002803DA00229A809971C1
S113214070479880FBE7C0461C040020F0B58DB0B2
S113215072B6AE4B1B8862B6AD4CAE4D627AAE4ED3
S11321600492002A00D0A1E0FA277F009F42BF41D9
S1132170281DAA4B9847637A7F4201336372330068
S1132180AC331B785B08E3710123E37233009433AF
S11321900020185EFA239B00984200DC6DE02723A0
S11321A0E7722372237A272B01D927232372330062
S11321B02C331B7803205BB202930123A3723300F8
S11321C0B7331B7807933300B8331B78039333007A
S11321D0B6331B7805933300AC331B7890369C469A
S11321E00022B35E8E4E0693002302995AB29142A6
S11321F01ADD07995D002941039A059C2A412C4167
S11322000D00024004400540022D01D1032A09D1EA
S11322106146092906D9032C34D1032A32D0069AFF
S1132220B2422FDC7A4B9F720023032002995AB2E8
S1132230914208DD03995A0011410A00013302401A
S1132240F4D1734B9A720023714A1C001373012258
S113225003259446724E02995AB2914214DC6C4B97
S1132260002C02D06A46127C1A7301225A739A799E
S1132270002A00D05F730DB0F0BD1921694B984757
S113228020728FE70133B0E7059A580002412A40D3
S1132290032A09D1039901410A40032A04D0069A6A
S11322A0B24201DD644604970133D4E72F1D5E4B2F
S11322B05E4938009847237B002B08D05C4B3800DC
S11322C0019319230022009364215A4FB847923690
S11322D00022B35E0A2B09DD0C21554B281D643303
S11322E00193009106230022524EB047A37A002B9B
S11322F01CD003232E1D300000930D2205330A2128
S11323004D4FB8472F23300000931022133B002178
S11323104A4FB8474222E3793000D21A0D33DBB278
S11323200093D2B21C230021434EB0470326043548
S1132330434F0096182337225F212800B8470096A0
S1132340192337225F212800B8470F23372200932F
S11323505F21330028003B4EB047212337260093EA
S11323603E331900384F1C222800B8474923320055
S1132370442128000096B8477523009632007A213C
S11323802800B847E37A002B09D0217A2F4A280085
S1132390535C2832525C5F2100923200B847244BD0
S11323A01C4D703301930E232F1D0093214E033BCC
S11323B000222D213800B047637B254E002B0BD023
S11323C00423E25E3100234B09A89847380009AB87
S11323D00C223C21204FB8470F4B31002C331A7884
S11323E004351C4B09A8984709AB3F221E2128003D
S11323F0194EB0472800194B9847002803D0637A38
S11324000133637237E7607235E7C046100C002071
S11324101C0400209C030020580A0020D926000038
S1132420370400009D800000AD2F00000DA80000BF
S1132430000000205D25000075250000C92500006E
S1132440D92800007D2900006D3100009FA70000FD
S11324509B9D000069890000292F0000FD260000D3
S1132460F0B587B003920200CB18DBB27D3212784C
S11324700593039B04920133DBB20093039A059BFB
S11324801B4F04000D00B847012600281CD107B0DB
S1132490F0BD0C9B1B7833421ED06A462300127C8D
S11324A07D331A7000230093039A0133290020001E
S11324B0104FB84776000135F6B2EDB2002E03D1C5
S11324C00C9B013601330C93059B9D42E1D16B4675
S11324D01B7C7D342370DAE723007C331B78002BCC
S11324E0E8D104994A42514122007D321170DAE761
S11324F0393100008F300000F0B51E00140087B0A1
S11325000CAB1B78134FD318DBB20393039A7318E5
S11325100092DBB2220004900D00B847002806D0D8
S1132520F31DDBB2DB080593039B9C4201D107B08A
S1132530F0BD0D9B22000093290033000498064F40
S1132540B847059A0D9B9446013463440D93E4B255
S1132550EAE7C046393100006124000037B506AC13
S11325602478079D00940195014CA04737BDC046CF
S1132570F9240000F0B5140085B003930AAB1B786E
S11325800F4FD318DBB20293039B029ACB1800922D
S1132590DBB2220006000D00B84700280BD105B0BD
S11325A0F0BD0023220000932900039B3000054F57
S11325B0B8470134E4B2029BA342F2D1EFE7C0462C
S11325C0393100008F300000F0B50D00160087B0DF
S11325D002930CAB1B781A4F0393029B0400C91897
S11325E0CBB20493039B2900D218D3B20593009372
S11325F03200049BB847002820D00023114F0093D9
S11326003200029B29002000B847012332000093C6
S11326102900039B2000B847012304990093013942
S1132620C9B2039B32002000B8470023059A0093E7
S1132630013AD2B2029B29002000B84707B0F0BD8E
S1132640393100008F3000000300F0B538331B78B7
S113265087B0049303000500002639331F7803680C
S11326605B7C05932B68B0B21B7CF4B2D900414368
S1132670686B89B241183A1903940091094CD2B29B
S113268000212800A047039C049B0134E4B2A34228
S113269005D90136BB19059ADBB29A42E2D807B0D4
S11326A0F0BDC0466137000010B5036800211A7CF4
S11326B0030038331B78406BDB005A43014B9847C7
S11326C010BDC04657890000030010B53933197096
S11326D0036B1B68984710BD030010B57E331B784D
S11326E00400002B01D0034B984700212000024B2B
S11326F0984710BDA9260000C926000070B5040043
S11327000F4B9847230039331D78013B1B78ED1894
S11327102368EDB25B7CAB4204D82000094B984798
S1132720002070BD23007E331B78002B02D02000D4
S1132730054B984720002900044B98470120F0E7F7
S113274049260000A5370000A9260000C92600007C
S1132750F0B585B001930AAB1B78050002930BAB6F
S11327601B780C0016000393DB070FD5029B264F42
S11327709A1A019BD2B25918C9B2B847029B2800D1
S11327801A1B019BD2B29919C9B2B847039B9B0784
S113279010D5029B28009A1B019BD2B2191BC9B207
S11327A0194FB847029B28001A1B019BD2B2991BF0
S11327B0C9B2B847039B1B0710D5029B28009A197E
S11327C0019BD2B21919C9B20F4FB847029B280016
S11327D0E218019BD2B29919C9B2B847039B5B07AF
S11327E010D5029B28009A19019BD2B2191BC9B2B9
S11327F0054FB847029B2800E418019BE2B29E1BD8
S1132800F1B2B84705B0F0BDE1300000F0B585B0D5
S113281001930AAB1B78060002930BAB1B780C00E8
S113282015000393DB0713D5531C0199029A091968
S1132830521BDBB2D2B2C9B2264FB847029A0199F1
S1132840631C121B4919DBB2D2B2C9B23000B847BB
S1132850039B9B0714D5029A01996B1C521B091BFD
S1132860DBB2D2B2C9B230001A4FB847029A01990A
S1132870631C121B491BDBB2D2B2C9B23000B84789
S1132880039B1B0710D5019A6B1C1119DBB2C9B24B
S1132890029A30000F4FB847019A631C5119DBB2FA
S11328A0C9B2029A3000B847039B5B0710D5019A5E
S11328B06B1C111BDBB2C9B2029A3000054FB8473A
S11328C0019A0134551BE3B2E9B2029A3000B847C9
S11328D005B0F0BDA5300000F0B51C0089B004922D
S11328E005900EAB04981B78049A013007932018C6
S11328F0631CCB18C0B20391121B091B0090DBB2FE
S1132900D2B2C9B205981B4DA847002813D0630062
S11329105B425BB20693079B01250193049B164E11
S113292000932200039B00210598B04700262D1B2D
S11329306DB2B44201D809B0F0BD002D08DB069B8E
S1132940013C0233DBB25AB25D19E4B206926DB2B5
S11329500136F6B2730001335D19079B220001931F
S1132960049B310000930598039B034F6DB2B84755
S1132970DFE7C0463931000051270000F0B51C00E4
S113298089B0049205900EAB04981B78049A013028
S113299007932018631CCB18C0B20391121B091BA8
S11329A00090DBB2D2B2C9B205981B4DA8470028EB
S11329B013D063005B425BB20693079B012501932E
S11329C0049B164E00932200039B00210598B047F8
S11329D000262D1B6DB2B44201D809B0F0BD002D04
S11329E008DB069B013C0233DBB25AB25D19E4B248
S11329F006926DB20136F6B2730001335D19079B7E
S1132A0022000193049B310000930598039B034F1C
S1132A106DB2B847DFE7C046393100000D28000029
S1132A2002230370004870472A0400207FB50E007B
S1132A30009309491300094D094A0400A8470F25CA
S1132A406D442800074B98472A780100009620001F
S1132A50054B064CA0477FBD993800001D39000086
S1132A6081360000212A000061320000093500008F
S1132A70411808784B780002C01880B2704720B51E
S1132A8005004018C0B2012B09D0A818C0B2002B11
S1132A9005D0AA1AD0B2022B01D0681AC0B220BD48
S1132AA020B5851AEDB2012B09D04518EDB2002BE3
S1132AB005D0411ACDB2022B01D08018C5B228002E
S1132AC020BD00207047000070B50B780D00037026
S1132AD04B78040043708B788370CB78C3700B7988
S1132AE003714B7943718B798371CB79C3710B7A01
S1132AF003724B7A43728B7A8372CB7AC3720B7BE9
S1132B0003734B7B43738B7B8373CB7BC3730B7CD0
S1132B10074E037411212800B04713216082280056
S1132B20B0471521A0822800B047E08270BDC0469E
S1132B30712A000070B50468867A257872183541C8
S1132B40D2B2EBB2072A0AD9631C03606378082463
S1132B50A41BE4B2A340083A2B43DBB2D2B2827284
S1132B60012088400138184070BD000070B5040091
S1132B70002350340165A372030005006433094E39
S1132B8019782000B0472B00207265331978200093
S1132B90B0477D3560722B7823735A425341637377
S1132BA070BDC046352B000010B50C00044B98478F
S1132BB00123013CE4B2A340C01A40B210BDC04698
S1132BC0352B00000300F0B504000F008DB00B920C
S1132BD050339A790292DB790593250050352B7A8C
S1132BE0029A9B1ADBB20393039A3B1C974201D9C6
S1132BF06B461B7BDBB208936B79287908260A9312
S1132C006B469E571B7D31005BB20693AB7B069AE5
S1132C100796194E0493B047049B0990069A0799A6
S1132C200A98164EB0470B9B0200002B16D0297B46
S1132C3023007D331970049B099900932000089B9D
S1132C400F4DA847039B9F420DD3FF1A059BFFB26C
S1132C500133DBB2059300230293BEE7EB7A002B2A
S1132C60F0D1697BE4E7029B5034FB18A3716B46F7
S1132C701B7EE3710DB0F0BDA12A00007F2A000085
S1132C808F3000000300F0B504008BB05033039381
S1132C90524B9847230059331B78514D5BB207932D
S1132CA02300663319780398A847230008906733F4
S1132CB019780398A8472300683319780600039805
S1132CC0A847039B09901B7A5BB20493002B5EDD3B
S1132CD06B461B7F089905939E19039B76429B7B49
S1132CE076B20693039B320018793E4D069BA847A3
S1132CF0039B320018710899050007003A4E587971
S1132D00069BB047039B02005871069B0100032BEE
S1132D1061D8180005F024F9023E4855049B059833
S1132D20EF188118FBB2C9B20091200029002F4D81
S1132D30A84700282BD023000022012650339A7183
S1132D40DA71230062331978294D0398A8472300C8
S1132D506333070019780398A847049000223900C8
S1132D602000244DA847049920003200A8473100D0
S1132D7003981F4B98470028F0D1230007225033B3
S1132D809A5607998A42DCDB1B7B7D3423700998B1
S1132D900BB0F0BD059B0498ED1A013711180135ED
S1132DA0FBB2C9B2EDB2BFE70122049B0598D51A64
S1132DB07D19BF18121A8A180131FBB2C9B2D2B2F6
S1132DC0F0E7049A059B8A1A5F1901320131FBB2BC
S1132DD0C9B2D2B2A8E701002B00A5E76D2B000011
S1132DE0A92B0000A12A00007F2A0000393100002D
S1132DF0352B0000C52B0000836C1733FF2912D834
S1132E0060290AD9743002889B185878002803D0A6
S1132E101A788A4205D1981C70474029F5D9723036
S1132E20F1E71B18F1E7763000881B1818785A78F8
S1132E3000021043F0D0814201D1D81CECE79A780B
S1132E409B18F3E7F8B51F0003005E3304001878FD
S1132E500E001500032808D8E36C05F081F802156C
S1132E601A1E200098472D18EDB2230054331E700B
S1132E705D70390020000B4B9847011E03D02000E1
S1132E80094B9847C0B2F8BD20009847361AF6B2ED
S1132E90EBE7200098472D1AE6E7200098473618FC
S1132EA0F5E7C046F92D0000852C0000F7B5019325
S1132EB0194B06000C001500984700230093019B52
S1132EC03000197873689847144A0300904221D05F
S1132ED0019A01320192124A9042F0D02A00210054
S1132EE03000104FB84732005E32030010780328D8
S1132EF005D805F035F802080B0DE418E4B2009A81
S1132F00D718FBB2DAE7ED18EDB2F8E7E41AF5E703
S1132F10ED1AF9E70098FEBD55350000FFFF0000EB
S1132F20FEFF0000452E000010B5024C4460024C28
S1132F30A04710BD41350000AD2E0000836C70B574
S1132F40002B1DD0030000260500012402006D3370
S1132F509E5779352E701C577A3214700B331B78B8
S1132F60002B0DD0012B0CD103006F331B785BB207
S1132F709E4200DA2B707023C3569C4200DD13700E
S1132F8070BD03006C216A331B7841565BB25B1839
S1132F909E4200DA2B708C42F2DD1170F0E70000E3
S1132FA0014BC3647047C046C32A0000836C10B54C
S1132FB004008B4206D08164034B603098472000A4
S1132FC0024B984710BDC046C92A00003D2F00009F
S1132FD073B5060006AC24783A36012B11D1357846
S1132FE08D423DD9050039352D78ED00521B050081
S1132FF03B352D78D2B2954232D90094C46AA047A9
S11330002EE0022C23D10131C91AC9B201252C406A
S1133010050039352D783678ED00521B05003B3517
S1133020D2B22D78002C1CD1AA4219D2CB18DBB213
S1133030994213D9B14210D2731EDBB2002B0FD0C8
S1133040351C9E4200D91D1C6B1ADBB2D5E7032C3C
S1133050DCD10132D21AD2B2D8E721008E42EDD8A7
S113306073BDB142FCD29B18DBB29A420CD9AA427E
S113307009D26B1EDBB2002BF2D02E1C9D4200D96C
S11330801E1CB31AE1E700229542E9D9F3E737B5EC
S113309006AC2578002B03D0046B00956468A04728
S11330A037BD0000F0B51F001500D21985B0D2B2AB
S11330B04B1C0092DBB22A00074E03900C00B04771
S11330C0002807D00123210000932A003B00039825
S11330D0024CA04705B0F0BD393100008F3000002C
S11330E0030013B543331B78934214D803004433CD
S11330F01B7893420FD9030041331B788B420AD8C3
S1133100030042331B788B4205D90024036B0094DF
S11331105C680123A04713BD10B504008A4206D29F
S11331200120A34202D893429B41584210BD8342DE
S1133130F9D80020FAE70000F8B50E0001000400F9
S11331401F00443106AB43301B7809780078064DE4
S1133150A847002807D02300413442331978207847
S11331603B003200A847F8BD19310000F0B51E003D
S113317087B00CAB771A05900C0015001B78FFB2D2
S1133180B14201D98F1BFFB29D4208D9EA1AD2B2CB
S11331900192974224D3B44248D800220EE05A1B2D
S11331A0D2B2019297424CD23A00019F019232006E
S11331B01E00130022002C001500012202927A083E
S11331C052B2039200229D425241012352421343C0
S11331D00493FF2E00D1013EA6420BD207B0F0BDEE
S11331E03A00019F01922A003500160022001C00BB
S11331F01300E2E7029A194B002A14D12A00210095
S113320005989847039B019A9B1ADBB25AB2039222
S1133210002A05DA049ADB19AD185BB2EDB2039308
S11332200134E4B2D8E722002900E9E71D002300B5
S113323034001E0000237A0852B202930392013331
S1133240C6E7B442A9D91D00230034001E000023A0
S11332507A0852B202930392013BB9E7E1300000CD
S1133260F7B508AC2478019407241440A44601243B
S11332706546AC4005007D352E78E4B20025012E6C
S113328002D82500012E14D007270668BA43367CDD
S113329072435118426B5118019A002A0BD10A78D3
S11332A0013B2A436240DBB20A700131002BF6D1A4
S11332B0F7BD0024E8E7020001263A3201920A78B9
S11332C0013B2A4362400A70624601323A40944606
S11332D0DBB2002A0CD1019A1278891802007D32DF
S11332E01278012A02D83500012A05D0340003E0FF
S11332F06D006400EDB2E4B2002BE0D1D8E7030026
S113330070B538331A78D100D9700468237C191C3D
S11333101F2B00D91F210300C9B2C9003A33197009
S11333200100013B1D783C31EB00DBB20B70617C8A
S113333056198E4201DD4A1BD2B20100D2003D3142
S11333400B709B1802003E3213700300F0223F33CF
S11333501A70A28AF02A00D81A70E38A40300370E7
S113336070BD000010B50400094B984723000022EB
S113337041331A7022003A321278033B1A71220048
S11333803D32127844345A711B78237010BDC04604
S1133390FF32000010B504000B4B9847210022684F
S11333A04031137D0B70D18A22003F32117021000D
S11333B03D310978917021003E3109784434D1704F
S11333C000211171237010BDFF32000010B50400FC
S11333D00C4B98472300002241331A7022003F32DD
S11333E0127821005A702200013B3E321B78127879
S11333F043319A1A0A7022003D32127844349B1ADF
S1133400237010BDFF32000010B504000E4B984726
S11334102200200023684032197D013A51709B7DBF
S1133420013A5370127841309A1A027022003D32E8
S113343012789B1A22004232137023000022433375
S113344044341A70217010BDFF32000013B504AC6F
S113345024780094014CA04713BDC046D12F00002E
S113346073B506AC257804003F342478641AE4B2BA
S1133470611EC9B2EE0701D4E41AE1B20095014C11
S1133480A04773BDD12F000073B50E0006A90D78B7
S1133490010040310C78D143032201352A406118E0
S11334A00092C9B23200014CA04773BDD12F000075
S11334B073B506AC25780400C94340342678013C32
S11334C02478D2436118032402352C40B2180094A6
S11334D0D2B2C9B2014CA04773BDC046D12F00007F
S11334E037B5150006AA14780200C9433F32127892
S11334F00334521803210C4000942900D2B2014C29
S1133500A04737BDD12F000070B50400E36223004B
S113351000253833A56461631A7022005D700123AD
S113352004987D3213705370036820632000984719
S11335302000024B5E349847257070BDA12F000017
S1133540002902D088B20A2900D101487047C04638
S1133550FFFF000000230430C377704710B5130049
S113356004690A001721A04710BD000007B56B4687
S1133570DA1D1170014B012198470EBD5D35000025
S1133580002310B51A0004691821A04710BD0023B8
S113359010B51A0004691921A04710BD70B50400C4
S11335A016000D00074B984740212000064B984712
S11335B033002A00172125692000A8472000034B67
S11335C0984770BD813500006D3500008F350000CF
S11335D010B50A00C46800231521A04710BD10B51A
S11335E00A00C46800231621A04710BD10B51300BB
S11335F0C4680A001721A04710BD002310B51A00A3
S1133600C4681821A04710BD002310B51A00C4686F
S11336101921A04710BD000073B505000C002178E6
S1133620172918D002D815290CD273BD19291BD912
S1133630FE29FAD16B4662782921DA7128000E4BF3
S1133640984706E06B4662782800DA71EE6800233A
S1133650B0470234E3E76B46DA1D63780121137047
S11336602800064B9847F4E7002328001A00EE6868
S11336700134B047D3E7C046E5380000ED3500001B
S1133680143970B504001500002005291CD8080061
S113369004F066FC220C0C0319191E00144B3200B2
S11336A0182D12D82900200098470CE0114B200057
S11336B098470021104E2000B04729002000B04751
S11336C020000E4B9847012070BD18212000183DA2
S11336D09847EDB21836E1E7621CD17FFF2901D18A
S11336E08739D17726692A0014212000B047EBE7F7
S11336F09D350000813500006D3500008F350000D8
S113370001608B7C83777047002370B51A002821F1
S113371045690400A8470023E5681A001421200025
S1133720A8470E4D200001224B21A8472368200002
S11337301A792921A847200000224B21A847236891
S113374020001A792921A847200001224B21A847EB
S1133750236829215A792000A84770BDE538000064
S113376013B56C462371049B6171A2710093846844
S11337706B4601220F21A04716BD002310B51A0085
S113378084680921A04710BD002310B51A0084687D
S11337900A21A04710BD10B50A00846800230B213C
S11337A0A04710BD002310B51A0084681021A0475B
S11337B010BD0000F7B50B39040015001E00080009
S11337C0042958D804F0CCFB03570D1E2D002B49B7
S11337D02B4B002A03D1200098470120FEBD053160
S11337E0F9E72649264B002A06D10A3120009847DA
S11337F023689B7CA377F0E7113120009847236866
S1133800DB7CF7E71F4B2000984781211E4B2000EB
S11338109847290020001D4B984720001C4B9847CF
S1133820DBE7184B200098477179A37FC900C918BA
S1133830CBB2154F402120000193B8471021019BC2
S113384020001B091943B8470F21019B2000194090
S11338500E4FB847B023B17920001943B8473179E6
S1133860013DC900C9B2326820000A4BEDB2984745
S1133870002DF4D1D1E70020B0E7C04670A90000C4
S113388019360000FB350000D1350000DF3500009B
S113389009360000ED35000070B50C4E04000D0033
S11338A0B04700280BD1092D0BD00A2D08D12000D8
S11338B0074B984720000749074B183198470120C8
S11338C070BD064920005431054BF7E7B5370000B9
S11338D00937000070A9000019360000F0A90000A3
S11338E00137000010B500234469A04710BD002033
S11338F0704700000023084AC3778260C2600261F7
S11339004261C21C0360D377021DD377421CFF338C
S11339100630D377C3777047EF380000F8B504005A
S11339200F0016001D00054B9847069BA760E66034
S1133930256163612000024B9847F8BDF53800000B
S11339407B3700000123024A1370024A1372704746
S11339509A030020001400400C4B0D4A5A809A7AB6
S1133960D209FCD11A69920E02701A699201120FDF
S113397042701A699202D20E82701A69D203D20E70
S1133980C2701B691B059B0E037170470014004035
S11339900080FFFF044B054A5A809A7AD209FCD171
S11339A018698006800E7047001400400080FFFFF5
S11339B00A4B9A69920E02709A699201120F427030
S11339C09A699202D20E82709A69D203D20EC270A0
S11339D09B691B059B0E03717047C0460014004091
S11339E001220178030082561D20890700D01C2083
S11339F0022A0AD05B781E200C2B06D81D3898406A
S1133A00024B1840431E98411E307047AA1500000F
S1133A10032300781840434258416E30FF3070470A
S1133A20F0B58BB006930023C35608AE02936B46E1
S1133A301B7A0500337001230027022401910592AB
S1133A40C3560393039B9C424CDD0220B4232856A7
S1133A50DB0058430322C0193C27AA5600265743CB
S1133A603F180420019A28561278022452B2039275
S1133A706A46127B08AD2A70019AC71952780793D7
S1133A8052B20492049B9C4239DDB420019BC000D5
S1133A909B7800245BB2584380193C26019B022585
S1133AA0DB785BB25E4336180420019B18568619F6
S1133AB0BB1B2A4E0193029B9D422CDD002602254E
S1133AC0264F039B9D4230DDB421A01BC90048430F
S1133AD0019BC0183ED4059B002B30D03C21204BC9
S1133AE0984733E0E4B2631E737030001D4B98476F
S1133AF0B423DB00584301343F1864B2A2E7E4B2B4
S1133B00631E6B702800174B9847079B013458437A
S1133B1064B23618B6E708AAEDB26B1E1000137033
S1133B20B047013524186DB2C5E708AAEDB26B1E83
S1133B3010001370B847013536186DB2C1E7069B03
S1133B40002BCCD0084A1300904200DC03B21800CA
S1133B500BB0F0BD01235B42F9E7C046113A000007
S1133B609D800000E1390000FF7F0000F8B50023CC
S1133B70150004000E000371C370837012780B7873
S1133B809B1803704B786A789B1863700123E35683
S1133B900C2B1FDC33792A799B182371042161567D
S1133BA0E2783B291BDCF378E9785B189B18E37017
S1133BB00323E356A778172B16DC164B20009847EF
S1133BC0B378AA789B18DF19A7700223E3569842AA
S1133BD00EDBF8BD22780C3B01322270D5E70132AE
S1133BE03C39E2702171D9E70137A770183BDEE751
S1133BF01B1AA37063785A1C52B262700C2A04DD3B
S1133C0022780B3B0132227063702000014B9847ED
S1133C10DBE7C046E139000010B53F24054B010045
S1133C201A692140A2431000084318619A7AD20904
S1133C30FCD110BD001400403F21064B01401A691D
S1133C40054889011040084318619A7AD209FCD1C9
S1133C507047C046001400403FF0FFFF1F21064B91
S1133C6001401A69054809031040084318619A7A0B
S1133C70D209FCD17047C04600140040FF0FFEFF7C
S1133C8070B50D000400054B100098472800044B44
S1133C9098472000034B984770BDC046193C00006C
S1133CA0393C00005D3C00001F21064B01401A69AD
S1133CB0054849041040084318619A7AD209FCD196
S1133CC07047C04600140040FFFFC1FF0F21064BA0
S1133CD001401A69054889051040084318619A7A19
S1133CE0D209FCD17047C04600140040FFFF3FFCDE
S1133CF0054A810613699801800908431061937A83
S1133D00DB09FCD17047C0460014004070B50D00BB
S1133D101400044B98472800034B98472000034B9A
S1133D20984770BDA93C0000CD3C0000F13C000068
S1133D3010B53F24054B01009A692140A2431000AD
S1133D40084398619A7AD209FCD110BD001400404E
S1133D503F21064B01409A690548890110400843F8
S1133D6098619A7AD209FCD17047C0460014004089
S1133D703FF0FFFF1F21064B01409A6905480903E4
S1133D801040084398619A7AD209FCD17047C04622
S1133D9000140040FF0FFEFF70B50D000400054B3A
S1133DA0100098472800044B98472000034B98477D
S1133DB070BDC046313D0000513D0000753D00001E
S1133DC01F21064B01409A690548490410400843E5
S1133DD098619A7AD209FCD17047C0460014004019
S1133DE0FFFFC1FF0F21064B01409A690548890571
S1133DF01040084398619A7AD209FCD17047C046B2
S1133E0000140040FFFF3FFC054A810693699801B6
S1133E10800908439061937ADB09FCD17047C0465E
S1133E200014004070B50D001400044B984728009E
S1133E30034B98472000034B984770BDC13D0000D9
S1133E40E53D0000093E000010B50724054B0100C4
S1133E501A7F2140A2431000084318779A7AD209A6
S1133E60FCD110BD001400400721044B1A7F8A4383
S1133E701A779A7AD209FCD17047C04600140040E0
S1133E800221044B1A888A431A809A7AD209FCD1F7
S1133E907047C046001400400222044B19880A43AC
S1133EA01A809A7AD209FCD17047C04600140040A7
S1133EB00122044B19880A431A809A7AD209FCD148
S1133EC07047C046001400400121044B1A888A43FD
S1133ED01A809A7AD209FCD17047C0460014004077
S1133EE0202310B51E4A91690B4393611D4B1E4A52
S1133EF09A820222998A0A439A821C4B1C4A9A602B
S1133F005A7852B2002AFBDB1A4A5A605A7852B2E3
S1133F10002AFBDB184A5A805A78D209FCD1174B85
S1133F209847174B9847174B17495A880A405A80A5
S1133F30164A1A809A7AD209FCD10821144A1160CF
S1133F400122D9790A430721DA711A7F8A431A7741
S1133F509A7AD209FCD10F4B98470F4B984710BD62
S1133F6000040040000800404C060000000C004023
S1133F70020400000205110002420000813E00001C
S1133F80B13E000000140040FFBFFFFF080A00001C
S1133F9000E100E0993E0000C93E00000F23034009
S1133FA00348032B03D803489B00C31818697047C0
S1133FB0C9AA00008CAA0000014B18707047C046C3
S1133FC02A0500200023F0B58BB0040002930328D7
S1133FD000D916E1A44F02007B1C1B5CA3490020FE
S1133FE0A34DA8477B79052B07D96B461B7A7B71B8
S1133FF0A04B98471420A04B984700229F4B06AD36
S11340001A757B1C1B5D1022029300219C4B280017
S113401098477F22994B05A91B192D3303931B78CD
S113402002981340039A974E1370A7230B70BB7921
S113403002224B70102300932B00B047002800DAB3
S113404004E10023E97BEB7300231A00A85C01322E
S11340501B18DBB2102AF9D1994200D0D7E06B7853
S1134060AA781B021A432300844940335B00CB180F
S1134070DA800B191A000A2769792D321170A9798F
S113408041331171E97900201172297A784E117344
S11340906A7A7D491A70EF573A00B0477B497B1D15
S11340A009DB7B49002F06DB7A49052F03DC002F4F
S11340B000D1A9E078490020B04723006F4A343387
S11340C05B00D318EA7A6D49DA806C4B2A7B1B19A2
S11340D03D331A706B7BAA7B1B021A4323003C33CB
S11340E05B00CB18DA8010261420634B984732000B
S11340F00021634B28009847A52305A90B700122D2
S113410000962B0002985F4EB047002800DA93E037
S113411000231A00E97BEB7306AD505D01321B18D6
S1134120DBB2102AF9D1994200D075E06B78A878F7
S11341301B021843594B5A4958435A4B98474C4F02
S113414003B2220058490020B8472300E9782A79AD
S11341504A4E283309025B00F3180A43DA8023002D
S11341606979AA792C3309025B00F3180A43DA80CF
S11341702300E9792A7A243309025B00F3180A43FD
S1134180DA802300697AAA7A303309025B00F318D3
S11341900A433619DA803300EA7A49331A702B7BE2
S11341A0687B1B0218433D4B3D4958433D4B9847A0
S11341B0220003B23D490020B847AB7B22003C49B2
S11341C00020B84780232D3632785B421343002207
S11341D03370254B5A71244B5B79002B11D0354930
S11341E00020234DA847002406ABE25C324900209E
S11341F00134A847102CF7D130490020A8470023E8
S1134200029302980BB0F0BD2D49380054E72D49B4
S11342100020174B984766E7154B2B490020984719
S1134220164B1C1940232D34227813430E4A237055
S1134230537901335371CEE70D4B2449002098473D
S11342400E4B1C192D3422782023EEE7084B20490D
S113425000209847039B1A7820231343039A137072
S11342607B7901337B71B6E72A050020DFAA0000C1
S1134270997B000095770000057C0000580A002017
S11342805789000035790000F6AA0000FFAA000053
S11342900BAB000017AB000023AB0000C7330000DA
S11342A0FF030000897F00004EAB00005FAB0000FD
S11342B070AB0000B1AB0000C0AB0000F2A6000080
S11342C02FAB00003BAB000080AB000093AB0000C1
S11342D0A2AB0000F8B52C22204E00243300204D60
S11342E02C336A700132AA700132EA7001321C70F8
S11342F02A71E4B220001B4B9847002806D03200F4
S11343002C321378691CC854013313700134E3B29E
S11343105CB2042BEDD1330000202C331A78691CD5
S113432053B2032B15DD10490020104B984700248D
S11343306B1CE35C22000E4900200C4F0134B8478B
S1134340042CF5D12C363378002B01D000232B70AC
S1134350F8BDC85401335BB2E3E7C046580A0020F5
S11343602A050020C53F0000C5AB0000997B000072
S1134370DEAB0000F0B58FB009AB187001200590DA
S1134380002A02D05970022305930027324B2C33A4
S11343900793079B1B78BB4212D80FB0F0BD402295
S11343A0187802431A704B7901334DE0039B1A7855
S11343B020231343039A13706B7901336B7144E028
S11343C00B230493049B013BDBB20493002B3FD0EB
S11343D0224D6B79052B06D900236B71204B98472E
S11343E01420204B98476B1CDB5D0AAE0693102209
S11343F000211D4B300098470F22174B09A9DC19E7
S11344002D3423780394134023701023059A0093CA
S113441006983300154CA04710490028C6DB00233A
S11344201A00F07BF373F45C01331219D2B2102B2F
S1134430F9D1094BDB192D339042B0D18022187881
S1134440524202431A7000234B714B79002BB9D1AD
S11344500137FFB29DE7C046580A00202A05002014
S113446095770000057C000057890000357900002D
S113447010B5064B002807D001229A719A79044995
S11344800020044B984710BD9871F7E72A050020D7
S1134490EDAB0000997B000010B504000200054953
S11344A00020054B984701222100AB20034B98477D
S11344B010BDC04600AC0000997B000075430000AD
S11344C010B50400020005490020054B9847E1B2ED
S11344D00122AE20034B984710BDC04613AC000028
S11344E0997B00007543000010B5040002000549E3
S11344F00020054B9847E1B20122AF20034B9847B7
S113450010BDC04626AC0000997B00007543000036
S113451010B505490020054B98470022AD20110035
S1134520034B984710BDC0463CAC0000997B00008B
S1134530754300000F23AC22F0B58BB002A95B18C1
S113454004001A700025032800D98EE00200534BA2
S1134550534928009847534F7B79052B05D9524B73
S11345607D7198471420514B98477B1C1B5D06AE08
S11345700393102200214E4B300098477F224D4B6D
S11345800F211D192D352B7802A813402B701023F1
S1134590029500930918330001220398464DA84759
S11345A0002800DA6FE000231A00F17BF373F05C5B
S11345B001331218D2B2102BF9D1914258D1737829
S11345C0B5781B062D041D43337972792B43F57896
S11345D012062D021D43B37938491B041343327A62
S11345E000201343F279270012021A430292737ACD
S11345F00092019322002B00284EB047E121304B5A
S11346000901280098472B4E38377F00029BF71981
S1134610F8809D4209D8002D07D064201900684312
S1134620274B9847371945373870802334192D3470
S113463022785B421343237000231A4A5371194BA7
S113464001255B79002B10D01E490020134DA8478B
S1134650002406ABE25C1C4900200134A847102C5E
S1134660F7D11A490020A847002528000BB0F0BD57
S1134670104B1C1940232D34227813432370094B0B
S11346805B790133D9E7029B1A7820231343029AFA
S113469013707B7901337B71D1E7C046997B0000AD
S11346A053AC00002A05002095770000057C00002B
S11346B057890000580A0020357900006AAC0000D0
S11346C0897F0000B1AB0000C0AB0000F2A600007F
S11346D0F7B505000C00002800D0C5E0002900D083
S11346E089E0DC492000DC4DA847DC492000A847CC
S11346F0DB4E33002C331B78A34206D8D949002063
S1134700D54B984700263000FEBDD74BD74901331F
S11347101A5D0020A84733192D331B78D44A7F2B08
S113472000D8D44AD44F00203900A84733192D3378
S11347301878D24B9847390002000020A847331953
S113474031331B78CE4A032B02D8CE4A9B009A58A9
S11347503619390000203536A8473378CA4A022B67
S113476003D8C84A9B00D3181A6A39000020A84706
S1134770BB4EC6493319009341331A780020A84729
S113478023002833C24F5B00F31806229A5E3900D7
S11347900020A84723002C335B00F31806229A5EFE
S11347A039000020A847230024335B00F3180622B5
S11347B09A5EB8490020A847230030335B00F618FE
S11347C00623F25E39000020A847009BB249493312
S11347D01A780020A847009BA94A39331B78032B79
S11347E003D8A84A9B00D318DA6AA34900200134ED
S11347F0A847E4B27CE70600012900D083E7A74973
S1134800954EB047A6492800B047954C23002C3359
S11348101B78AB4200D871E7934B944901335A5D3E
S11348200020B0472B0040335B00E318DA889D4931
S11348300020B0472B003C335B00E318DA889A4928
S11348400020B0472B0038335B00E31864190622BC
S11348509A5E964900204534B04701352278944940
S11348600020B047EDB2D0E7002900D0ABE04E26DF
S11348709049914B98470094794F009A3B002C3310
S11348801B78934206D8A81976498B4B0236984771
S1134890B6B238E7744B009A01339A5CA819874979
S11348A0874B9847009B3618FB182D331B78B6B2FC
S11348B0A8196F497F2B00D86E497F4B9847009BFE
S11348C00336FB1801932D3318786C4B98476A4CC8
S11348D0B6B202007A4BA81921009847019B301800
S11348E031331B7886B2A819654A032B02D8654A6E
S11348F09B009A58724B21009847009B3618FF186A
S113490035373B78B6B2A8195F4A022B03D85D4A03
S11349109B00D3181A6A6A4F2100B8473618B4B2FC
S1134920009B4F4E2819F318019341331A785749C5
S1134930B847009B241828335B00F318A4B206225E
S11349409A5E28195249B847009B24182C335B00FF
S1134950F318A4B206229A5E28194D49B847009B61
S1134960241824335B00F318A4B206229A5E281993
S11349704849B847009B241830335B00F318A4B2AD
S113498006229A5E28194249B847019B24184933E4
S1134990A4B21A7828194049B847019B241839331E
S11349A01B78A4B22819364A032B03D8354A9B0036
S11349B0D318DA6A4349B8472418A6B2009C0134D4
S11349C0E3B2009358E70026012900D09BE63E4954
S11349D0394B984734002136214B2C331B78A342A2
S11349E000D850E7204B364F01331A5DA8193349DC
S11349F0B84723001A4A403336185B00D318B6B2BE
S1134A00DA88A8192749B8472300154A3C333618D1
S1134A105B00D318B6B2DA88A8192349B847230033
S1134A200F4A383336185B00D318B6B206229A5EA2
S1134A30A8191E49B8470A4B36181B19B6B2453394
S1134A40A8191A782149B84701343618B6B2E4B225
S1134A50C2E7C0468FAC0000997B0000DDAC0000CB
S1134A60580A0020829F00002A0500202BAD000078
S1134A70D0AA0000D4AA000034AD00009D3F00007D
S1134A80C8AA00008CAA0000D8AA000037AD000014
S1134A9040AD00003DAD000046AD00004FAD00004C
S1134AA070AD000092AD000091AD000097AD000024
S1134AB09DAD0000A3AD00002F8A00002DAD0000C5
S1134AC069890000F2AD0000F7AD000019AE0000E6
S1134AD070B50024074D2C352B78A34204D801214E
S1134AE0054B0020984770BD2000044B01349847C3
S1134AF0E4B2F1E7580A0020D14600003545000031
S1134B00B249F0B50B00B6331B7899B00D930B0086
S1134B10B5331B7808000E930B00B7331B782C3089
S1134B200F930B00B8331F780B00B9331D780B00BB
S1134B30BA331B78A64A10930078A64B2D30401840
S1134B401790A5484143A548091800201691040070
S1134B50032111900C900B900A90099008900790F3
S1134B60069005900490039002900190179E9E4237
S1134B7000D08BE0119B002B06D06A464021934B5A
S1134B8052181278BA331A7000281AD08F4B342076
S1134B9069461A0009180978B632117069461A0074
S1134BA0043009180978B532117069461A000430C6
S1134BB009180978B73211701A00B933B83217706E
S1134BC01D70019B002B5BD0804C854D190006980D
S1134BD0A8472300AC33187001990798A84723000D
S1134BE0AD33187001990898A8472300B43318709E
S1134BF001990298A84723008E33188001990498DC
S1134C00A84723009033188001990998A8472300E6
S1134C100C9AB0331A606A462300928992331A8040
S1134C206A462300928A94331A806E4A0A9B9446F9
S1134C30634460816C491800A8472300694A06B29E
S1134C4094469A331E800B9B674963441800A84717
S1134C50230000B29C331880002362689A4202D079
S1134C6023689A1A93B222685E4362602200A032DB
S1134C7011684343A4348E1916602268D318236044
S1134C8000215A4B0800984719B0F0BD1698C01877
S1134C904000844608006646B040C0430D9E40B2C2
S1134CA0064076B212960E9E0540064076B21396E2
S1134CB00F9E0740064068B276B2159018780F969A
S1134CC07EB214961D007F2870D90198069E01308B
S1134CD00190187D049F801900B2079E0690187EEB
S1134CE0801900B2089E0790187F801900B2029EB6
S1134CF008901089801900B202901020165E039863
S1134D000E96301800B203900020165EF7193FB2D9
S1134D1004971820175E05980D96381800B2059070
S1134D200E9E0D9846430A9880190A900D980B9E82
S1134D30784330180B902826905F0C9E30180C9006
S1134D40109E108C3018C0B2099E1090108E30182E
S1134D5080B209900120119060462E7B67460E4078
S1134D6086401298013330432E7AC0B20E40BE40C2
S1134D70139F0D903743FEB267460E962E7902328A
S1134D800E40BE400F9F01203743FEB20F96664689
S1134D902F782D7C0F40B740149E0D403E43F7B250
S1134DA06646B540159E2E43F5B2DFE60220197221
S1134DB01873197119701C741C751C761C77148176
S1134DC01482148014831486C6E7C046580A00204F
S1134DD0A60A0020850A0020FFFFFF7FD3FFFF7F84
S1134DE09D8000008813000010270000D1460000B9
S1134DF070B572B67F22104DAB7B1A40AA7362B6AF
S1134E005BB2002B05DA0D4B1E78002E02D00C4B42
S1134E10984770BDEC7B0B4B200098470A4B984792
S1134E202B002C3301341B78E4B2A34201D8EE7377
S1134E30EFE7EC73EDE7C046580A00202A0500208E
S1134E40D5420000C53F0000014B0000024B186A28
S1134E508006C00F7047C04600440041054B1978D6
S1134E605A789142FBD05A780132D2B25A70023346
S1134E70985C704731050020034B18785B78C01AA2
S1134E80431E9841C0B2704731050020064B9A7BFF
S1134E90520708D5054A198B13780133DBB2137016
S1134EA050780232D1547047000800423105002086
S1134EB0052210B50B4B1969114211D01A610A4B26
S1134EC01B6ADB030CD4094B9847022808D1084B12
S1134ED01A881043802280B21880064BD2011A60CF
S1134EE010BDC04600180040004400416912000093
S1134EF00024004200E100E0012170B50F24264A9D
S1134F00264E1378264D0B431370264A1378A34379
S1134F101370254B1A780A431A703278A243327000
S1134F2004226A601E780D3C34431C701C78944340
S1134F301C70AA611C7822431A701C4B4022002862
S1134F4003D199699143996170BD986902439A614B
S1134F50174A184B5A80184B1A78114319701A784B
S1134F605978D207D20FC9090A43F8D10421013272
S1134F705A60586801435960D9681143D960596926
S1134F800A435A610A229A611978083A0A431A7044
S1134F9010220A4B1A60D7E75044004131440041C3
S1134FA000440041384400414244004100040040B0
S1134FB003400000000C00400018004000E100E045
S1134FC070B50F4900200F4DA847032300240E4E4F
S1134FD033703078002803D10C49A847200070BDF5
S1134FE00B4B0A2098470B4B98470028F1D00A4BEB
S1134FF098470A49040002000020A847E9E7C04690
S113500092AE0000997B00000B0D0020F2A6000078
S1135010057C0000794E00005D4E0000C0AB00002E
S1135020F7B5140000910193060027490020274B8F
S11350309847274F3C7000243D78002D16D13F78C7
S1135040002F04D123493800204B98473C00002707
S113505030003755204B984704006D4282B22C40F3
S113506038001E49194B9847A0B2FEBD019B013B75
S11350709C4227DA1A4B984700281FD0194B9847AF
S1135080124B051E184902D00A280FD117490020D7
S11350909847002335550134A4B2335500993000A4
S11350A0134B98470028C7D00125C8E711490D289C
S11350B0EDD00200104900209847EAE70A200F4B80
S11350C09847B9E70025BAE79DAE0000997B000038
S11350D00B0D0020B5AE00003F8A0000C3AE0000F7
S11350E0794E00005D4E0000A9AE0000ACAE000099
S11350F0E18A0000AFAE0000B2AE0000057C000003
S1135100F0B51C0085B00AAB1B880191039306001F
S1135110244B2549002002929847244B1C700024FC
S1135120224B187800280AD1204B1C78002C04D17B
S113513020001F491B4B9847200005B0F0BD039B7E
S1135140013B9C422CDA1B4B9847002824D01A4B75
S11351509847144B051E194902D00A2814D118493E
S113516000209847355500250134A4B2154F355514
S1135170029B9D42D4DA019AAB00D1583000B84763
S11351800028D1D10135F3E70F490D28E8D00200FA
S11351900E4900209847E5E70A200D4B9847BFE7E2
S11351A00020C1E7997B0000CEAE00000B0D00206B
S11351B0B5AE0000794E00005D4E0000A9AE0000BF
S11351C0ACAE0000E18A0000AFAE0000B2AE000059
S11351D0057C0000F8B5FA2504000127ED00174E00
S11351E0B37B3B4206D1013D0A20154BADB2984733
S11351F0002DF4D1FA250827ED00124B1B6A3B421F
S113520006D0013D0A200E4BADB29847002DF4D1D3
S1135210A3B233830C4B002C03D10C4900209847D4
S1135220F8BD0B490A2CF9D00D2C01D10949F5E739
S11352302200094900209847F2E7C04600080042CE
S1135240F57B000000440041997B0000A9AE0000FA
S1135250ACAE0000AFAE0000B2AE000070B5050009
S11352600E0000200649074B98472C00631B9E4202
S113527000DC70BD2078044B98470134F6E7C04643
S1135280E0AE0000997B0000D551000010B50B4B37
S11352900400984702000A3A00230A2A04D8631C2F
S11352A02418A34202D10123180010BD1A78013337
S11352B0303A092AF5D90023F6E7C0463F8A0000B0
S11352C0F0B54A4BC9B0040045799847C0B20028EC
S11352D002D105236071A371A379052B02D90023A0
S11352E06371A37160790138032800D975E002F075
S11352F037FE067A025D0425657149B0F0BD3C496C
S113530000203C4B98473C4B0233019318003B4B25
S11353109847628803003A490020364EB047019A04
S113532038490020334B9847374F384B380098475B
S11353300523002827D009213548364EB0473A00C6
S11353403549364B03A89847FF23010003A81940A9
S1135350B047802305225B00314908A8314FB84784
S1135360002812D13049234B98471B222F492B4B3D
S113537003A89847FF23010003A81940B0472C4B0A
S11353809847A3790133A371B6E761880198B047C0
S11353901A222649214B03A89847FF23010003A89A
S11353A01940B0470023A3710225A5E72149002035
S11353B0104B9847802314225B001F4908A8194DFD
S11353C0A847002802D1A3790133ECE700251B4943
S11353D00D481B4B9847A5718EE71A490020054BD1
S11353E09847002588E7032586E7C0464D4E000010
S11353F0EDAE0000997B0000310600203F8A0000DA
S113540004AF000015AF0000700A00208D520000A8
S113541022AF00005D5200002CAF0000698900003B
S113542031AF00002150000033AF0000B2AE0000E5
S1135430C14F00003BAF00005DAF000046AE00006E
S11354402F8A000063AF000010B50A4C88B020001A
S11354500A21094B984721002023084C072268465B
S1135460A0472023072206496846A047C0B208B0D7
S113547010BDC0467FAF00005D5200002150000007
S1135480A0AF0000F0B5474BB3B004009847C0B2DA
S1135490002802D101236071A371A379012B01D9E2
S11354A0032363716379022B13D0032B00D170E0C3
S11354B03D4A012B00D070E03C49002090473C4B12
S11354C0984708213B483C4B98470225657133B007
S11354D0F0BDC823072239496846394DA84700283A
S11354E004D1A37901250133A371EFE7C82307226F
S11354F034496846A8470028F3D000236D461E00AF
S11355002A78002A17D0222A01D10133DBB26F1C7A
S1135510022B07D1244B2C49002098473E0003233B
S11355203D00EDE7042BFBD1002032002870274911
S11355301D4B02359847264B264928009847871C5F
S11355403B00002805D12449174B98470325BDE7A4
S113555001331A78002A03D00D2AF9D100221A70D7
S11355603A001E490020104B984730001C4B9847C6
S113557003250028AAD01B4900200B4B9847310073
S1135580194B1A48984700223900194B01209847B3
S11355909CE7184B9847002598E717490020904747
S11355A0F9E7C0464D4E0000997B0000EDAE0000C7
S11355B0C14F00008AAF00005D52000093AF0000AD
S11355C0215000009EAF0000A5AF0000FA9E00002D
S11355D0E18A0000829F0000AFAF000019AF000015
S11355E08D520000B9AF00002F8A0000700A00201D
S11355F0090800004954000063AF000010B50A4CCC
S113560088B020001321094B984721002023084C1F
S11356100A226846A04720230A2206496846A04772
S1135620C0B208B010BDC046CBAF00005D52000050
S113563021500000A0AF0000F8B506000F000425BB
S11356401F4C072120001F4B984721003B001E4C94
S113565005223000A0473B0005221C493000A0472A
S1135660041E0CD034002378002B18D12000184BD2
S113567098470A2811D83220164B984706E0322062
S1135680144B984714492000144B9847013D144B80
S1135690EDB29847FF2DD3D1124C2000F8BD0D2B4D
S11356A00AD00A2B08D023001A78002ADED00D2A4B
S11356B004D100221A70D9E70134D4E70133F3E7A7
S11356C0E7AF00005D52000021500000A0AF0000D1
S11356D03F8A0000057C0000EFAF0000997B0000CA
S11356E0C14F0000DFAF000010B5154B8AB09847DA
S11356F0144C07212000144B9847210020230A2230
S113570002A8124CA04720230A22114902A8A0474C
S113571000280FD001AB6A460E4902A80E4CA047E0
S113572002280AD10020009A0C490D4B9847009892
S11357300AB010BD03204042FAE70420FBE7C0464C
S1135740C14F0000F8AF00005D520000215000007E
S1135750A0AF000000B00000AD8900000EB0000052
S1135760997B000070B504000E000E4D0D21280039
S11357700D4B984729003300142220000B4DA847F5
S1135780330014220A492000A847002802D100242B
S1135790200070BD3300142206492000A8470028C9
S11357A0F6D1F4E730B000005D5200002150000053
S11357B03EB00000829F0000F0B5C34BC9B00400A6
S11357C045799847C0B2002802D105236071A371BE
S11357D0A379052B01D9002363716079BB4E01388D
S11357E00A2800D96CE102F0C5FB0B00250061001A
S11357F0E600F1006B01FD000F012A013B014F019E
S1135800B3490020B0471E21B248B34B98478023C8
S113581002225B00B14908A8B14EB047802302229E
S11358205B00B04908A8B04700285ED000230225D9
S1135830A37138E0AC490020B04780220021520017
S1135840AA4B08A898478021A94B490008A8984763
S113585007000200A7490020B0470A22A6493800E1
S1135860A64EB047032500281DD00822A4493800BD
S1135870B0470135002816D00A22A2493800B047A3
S1135880043500280FD009229F493800B04701355C
S1135890002808D02A009D493800B04743425841A7
S11358A0023540420540657149B0F0BD9849002079
S11358B0B04714219748884EB047974A974B984968
S11358C003A89847FF21014003A8B0478023022280
S11358D05B00824908A8824FB847802302225B00FC
S11358E0804908A8B847002803D1A3790133A371DC
S11358F0D9E715218B48B0478B4A884B884903A8C0
S11359009847FF21014003A8B047802302225B008F
S1135910724908A8B847802302225B00714908A88D
S1135920B8470028E1D014218048B047804B7C4917
S11359304B331A00019303A8784B9847FF21014089
S113594003A8B047802302225B00644908A8B84733
S1135950802302225B00634908A8B8470028C4D00A
S113596009217448B0476C4A6C4B734903A89847A3
S1135970FF21014003A8B0476B4A684B6E4903A856
S11359809847FF21014003A8B047019A634B64493B
S113599003A89847FF21014003A8B04780230F22A2
S11359A05B00664908A8B84780230F225B004D4975
S11359B008A8B84738E762490020B047464B092198
S11359C0604898471423052523716CE75E4900203D
S11359D0B0472379013BDBB22371002B00D062E78F
S11359E0072560E759490020B047802314225B0053
S11359F03C4908A83A4DA847002800D016E7A379E7
S1135A0004250133A3714EE751490020B047514E9C
S1135A1009213000304B9847802331005B000F226E
S1135A2008A82F4EB04780230F225B004A4908A8DC
S1135A30B047002800D158E7484B9847F6E6484954
S1135A400020B047474D0D212800234B9847802361
S1135A5029005B00224D142208A8A8470A2522E742
S1135A6041490020B047802314225B001D4908A847
S1135A701B4DA847002804D1A37909250133A3713C
S1135A8011E70025A5710EE738490020B047384DCD
S1135A900B212800104B98478023290014225B0017
S1135AA00F4D08A8A847C820324B984780232822C6
S1135AB05B00314908A8A8470523A3710025F2E635
S1135AC02E490020B047F9E74D4E0000997B0000B5
S1135AD0EDAE000046B000005D52000065B000006D
S1135AE021500000A0AF000073B0000057890000EF
S1135AF06557000099B00000A7B00000958A000027
S1135B00B2B00000BBB00000C6B00000D0B00000CE
S1135B10DAB00000F8B000005C08002069890000D9
S1135B202CAF00000DB100006C08002023B1000070
S1135B303108002038B1000042B1000048B1000033
S1135B4051B1000070B100007AB100009FB10000B3
S1135B50BFB10000E0B10000EAB10000C14F000095
S1135B60ECB100000CB200001AB200003BB200001D
S1135B705AB20000057C000066B2000063AF00006A
S1135B80F0B5974BE3B0040047799847C0B20028BA
S1135B9002D105236071A371A379052B03D90C23CA
S1135BA063710023A37160798E4D01380B2800D9ED
S1135BB011E102F0DFF90C003A00540081008C007E
S1135BC09700AA00C500CE00D300D800F70086498C
S1135BD00020A847854D0C212800854B9847C023F9
S1135BE029005B000A2202A8824DA847C023824EE6
S1135BF05B000F22310002A8A84700280FD17F4B79
S1135C0098470C217E487A4B9847C02314225B00A6
S1135C10310002A8A847A3790133A37102E000234D
S1135C200227A371677163B0F0BD76490020A847CD
S1135C30142175486E4B9847C0230A225B007349B0
S1135C4002A86C4DA847C02314225B006A4902A82D
S1135C50A8470028DFD000230327A371E2E76C499B
S1135C600020A8476B4E6C49B31C1A000020019316
S1135C70A8475F4E13216948B04761880198B0472F
S1135C8002216748B04767490020A847C02314226F
S1135C905B005E4902A8574EB04763490020A847FD
S1135CA0C02314225B00544902A8B0470028B2D094
S1135CB00023A3710427B5E75C490020A8474C4B97
S1135CC010215B489847142305272371AAE75949F3
S1135CD00020A8472379013BDBB22371002BA1D11B
S1135CE006279FE754490020A847C02314225B00DD
