:1000000076C08FC08EC08DC08CC080C18AC0DEC457
:10001000F8C487C086C0EFC384C083C086C181C0D6
:1000200080C07FC07EC0B602B602B6020D030D03CB
:100030000D030D030D030D030D030D030D030D0340
:100040000D030D030D030D030D030D030D030D0330
:100050000D030D030D030D030D030D030D030D0320
:100060000D030D030D030D030D030D030D030D0310
:100070000D030D030D030D030D030D030D030D0300
:100080000D030D030D030D030D03B002B002B0020A
:100090000703070307030703070307030703070310
:1000A0000703070307030703070307030703070300
:1000B00007030703070307030703070307030703F0
:1000C00007030703070307030703070307030703E0
:1000D00007030703070307030703070307030703D0
:1000E0000703070307030703070307030703112495
:1000F0001FBECFE5D2E0DEBFCDBF84B78093F30053
:1001000014BE88E10FB6F89481BD11BC0FBE20E08B
:10011000A0E6B0E001C01D92A33FB207E1F7E1D431
:1001200043CB6ECF8CE280937E00B19903C08DE209
:1001300080937E00B39905C080917E008260809399
:100140007E0010927D001092610010926200109269
:1001500073001092740010926000889887B38560D5
:1001600087BBC29AC09AB89888EA8DB980EF8EB9D9
:100170000895CF93C82F8FB7F8944091890050917C
:100180008A0060918B0070918C008FBF44315105C3
:100190006105710538F46C2F70E048E050E080E8AC
:1001A00090E0BBDA80917F00E82FF0E0E058FF4F4D
:1001B0009C2FC53608F094E690838F5F87708093FC
:1001C0007F00CF9108959FB7F8948091730023E04A
:1001D000209360009FBF90917400981306C0909187
:1001E00060009111F8CF80E00895E0917300EF5F17
:1001F000E770E0937300F0E0EB58FF4F80810895C3
:100200001F93CF93DF931F92CDB7DEB7682F1FB731
:10021000F89485E090E0698387DA1FBF69818617CB
:1002200031F01FB7F89485E090E090DA1FBF0F908F
:10023000DF91CF911F9108952091A5003091A600E4
:10024000C901805F9140853C914030F083E080930C
:10025000B2001092B60015C0213482E03807A8F42D
:1002600082E08093B2001092B60080918900909154
:100270008A00A0918B00B0918C000B97A105B1056D
:10028000C8F081E08093B90015C08091BF009091C3
:10029000C0008217930730F481E08093B20080930E
:1002A000B60008C0273043E0340720F41092B200B3
:1002B0001092B6008091B900882329F0213B32408A
:1002C00010F01092B900089580919F009091A000C5
:1002D0008C36910510F481E004C08338914020F001
:1002E00082E08093B10008951092B100089581E0FA
:1002F0008093910088E08093C60087B5837F87BD97
:10030000C698D89884E18093BC0008951F920F92FC
:100310000FB60F9211248F938091BC008ABD8F91EC
:100320000F900FBE0F901F9018951F920F920FB64F
:100330000F9211244F925F926F927F928F929F92B1
:10034000AF92BF92CF92DF92EF92FF920F931F93E3
:100350002F933F934F935F936F937F938F939F93CD
:10036000AF93BF93EF93FF93CF93DF93CDB7DEB7F8
:100370002897DEBFCDBF809188008F5F8093880073
:10038000853110F0109291008091A3009091A4000B
:100390008B34914030F08091B7008F5F8093B7002D
:1003A00002C01092B7008091B7008D3020F0D99A2A
:1003B0008AE08093B800809188006AE0CED89111DD
:1003C0004BC03ADF81DF8091B100811104C081E030
:1003D0008093BA0002C01092BA008091B2008330BC
:1003E00011F41092BA008091600018162CF48091DC
:1003F00060008150809360009BB39470DA98D2982B
:10040000DA9A8BB386958170809581708093B30062
:10041000CA9B08C02091B700211104C02091B800E8
:10042000222319F082608093B300DA98D29A8BB3BA
:10043000892B8BBB9BB39870DB98D398DB9ACB99B5
:1004400004C081E08093B40002C01092B400DB9835
:10045000D39A8BB3892B8BBB809188008B3008F4A7
:1004600064C19091AE00992329F091E0909391009E
:100470001092AE00893121F481E08093A90055C12A
:10048000823308F452C110928800C0908900D09045
:100490008A00E0908B00F0908C001FEFC11AD10A07
:1004A000E10AF10AC0928900D0928A00E0928B00A2
:1004B000F0928C0081E08093AA008091B500883C86
:1004C00018F48F5F8093B5008091B800882319F0ED
:1004D00081508093B800C701B6012AE030E040E0C7
:1004E00050E05BD8672B682B692B61F481E0809327
:1004F000AB008091C600883011F484E001C088E030
:100500008093C6008091B000823078F4C701B601B4
:1005100025E030E040E050E040D8672B682B692BA5
:1005200021F481E08093AE00E2DE8091AE00811183
:10053000FCC06091890070918A0080918B0090913D
:100540008C0025E030E040E050E027D8672B682B96
:10055000692B09F0EAC080909F009090A000A12C28
:10056000B12C8092CB009092CC00A092CD00B092A2
:10057000CE00C090A100D090A200E12CF12CC0923E
:10058000D300D092D400E092D500F092D600C501FD
:10059000B401A70196013FD8C901DA018093DB00BD
:1005A0009093DC00A093DD00B093DE004091C70083
:1005B0005091C8006091C9007091CA004090CF006E
:1005C0005090D0006090D1007090D20049825A8241
:1005D0006B827C820091D7001091D8002091D900C5
:1005E0003091DA000D831E832F8338871092DF004D
:1005F0000097A105B10559F484E790E09093C400F9
:100600008093C30081E08093AE0071DE5EC0240160
:100610003501441A550A660A770AA3019201F9F4D2
:1006200009811A812B813C81C01AD10AE20AF30A9E
:100630001C141D041E041F04ACF1CD28CE28CF28A5
:1006400009F443C02091C6002093DF008091C300CD
:100650009091C400823811E09107B8F51CC0BC012C
:10066000CD014D805E806F8078846419750986099C
:100670009709B5D712161306140615067CF42091B7
:10068000C6002093DF008091C3009091C40082389F
:1006900001E09007D0F4820F911D13C0232B242B6F
:1006A000252B99F02091C600822F81958093DF0041
:1006B0008091C3009091C4008137910530F0821B76
:1006C00091099093C4008093C3008091CB009091D6
:1006D000CC00A091CD00B091CE008093C700909344
:1006E000C800A093C900B093CA008091D300909134
:1006F000D400A091D500B091D6008093CF00909304
:10070000D000A093D100B093D2008091DB009091F3
:10071000DC00A091DD00B091DE008093D7009093C3
:10072000D800A093D900B093DA00809188008A3075
:10073000D9F56091890070918A0080918B00909129
:100740008C002CE330E040E050E027D7672B682B8B
:10075000692B51F580919A0081110FC0809196000C
:10076000909197000097A1F0909399008093980042
:1007700010929700109296000BC08E3148F0809135
:100780009600909197000196909397008093960021
:10079000809194009091950001969093950080939C
:1007A000940081E08093AC0028960FB6F894DEBFE9
:1007B0000FBECDBFDF91CF91FF91EF91BF91AF9170
:1007C0009F918F917F916F915F914F913F912F9169
:1007D0001F910F91FF90EF90DF90CF90BF90AF905F
:1007E0009F908F907F906F905F904F900F900FBE73
:1007F0000F901F9018951F920F920FB60F92112411
:100800002F933F934F935F936F937F938F939F9318
:1008100027B12F7084B135B190E0932B3091BB009C
:100820003F5F3093BB004091AE00263071F444230B
:1008300031F090939E0080939D008FE02AC09093AA
:10084000A00080939F0084E01AC02F3029F4909379
:10085000A8008093A7001CC0243041F49093A2000C
:100860008093A100411114C085E009C0253051F4E6
:100870009093A6008093A50041110AC083E0809365
:100880009C000BC0233039F49093A4008093A30004
:1008900086E080939C0041117CC02091BA00809139
:1008A000A1009091A200222309F461C0209191003F
:1008B000211149C02091B6002223F9F02091A50012
:1008C0003091A6004091BD005091BE00BA016B5F0F
:1008D0007F4F6217730708F14550510924173507F8
:1008E00090F540919F005091A0002091C30030915D
:1008F000C4004217530738F11BC0377021F520910F
:100900009F003091A0004091C3005091C400BA01F3
:10091000655071092617370730F42091BC00253146
:1009200090F021500EC04B5F5F4F4217530758F4B1
:100930002091BC002A3E38F48A3431E0930718F441
:100940002F5F2093BC008F33910540F0C69B12C0EF
:1009500027B5277F27BD27B524600BC082339105BB
:1009600048F427B52B7F27BD27B5286002C027B5DF
:10097000237F27BD0B9710F0C699D89A8091B100BC
:10098000811102C0C69A05C0C698D89A84E18093A6
:10099000BC0090919C009F3029F48FE987B91B9A85
:1009A0001C9805C017B887B1892B87B91B988FECA5
:1009B00086B99F918F917F916F915F914F913F91F8
:1009C0002F910F900FBE0F901F9018951F920F92AE
:1009D0000FB60F9211248F9310927D00B898B29B9E
:1009E00002C0B09BFCCFB09902C088EF01C088EA7A
:1009F0008DB980EF8EB98F910F900FBE0F901F9021
:100A000018951F920F920FB60F9211248F939F93F8
:100A1000EF93FF9380917D00823009F446C028F463
:100A20008823C1F0813031F153C0843009F443C0D0
:100A3000F0F0853009F04CC09FB1809174008F5F59
:100A4000877080937400E0917400F0E0EB58FF4FE2
:100A5000908337C08FB1882331F08FB18695909104
:100A60007E0089131FC0789B2CC081E02BC08FB102
:100A7000811118C08091610090916200981791F0E7
:100A8000809161008F5F8F7080936100E0916100C1
:100A9000F0E0ED59FF4F80818FB982E080937D00B7
:100AA000B89A0DC088EA8DB90AC083E080937D00B2
:100AB000B8981FB80BC085E080937D00B89880E798
:100AC00006C084E080937D001FB8B89A8EE78EB987
:100AD000FF91EF919F918F910F900FBE0F901F90FC
:100AE0001895CF93DF93CDB7DEB762970FB6F89422
:100AF000DEBF0FBECDBFF894A89588E10FB6F8947D
:100B000081BD11BC0FBE8BE6E8E8F0E0DF011D926D
:100B10008A95E9F780EF87BB8AE088BB8FE08ABBC4
:100B200085E090E001D6813021F41BBA8093B300B8
:100B300002C082E08BBB86E080939C008FEF93E045
:100B400090939E0080939D0021E02093AE0088EE5C
:100B500092E09093A6008093A5008CE291E09093A0
:100B6000A8008093A70084E08093C6008DE093E006
:100B70009093C0008093BF0087E093E09093BE0005
:100B80008093BD00209391008091890090918A000C
:100B9000A0918B00B0918C000696A11DB11D809391
:100BA0008D0090938E00A0938F00B09390001092D0
:100BB000B0002093B1001092B20084E18093F00065
:100BC00088E0E5E7F0E0DF011D928A95E9F780E132
:100BD000E3E6F0E0DF011D928A95E9F7A3DA48E049
:100BE00050E064E670E080E890E097D510927F00D6
:100BF00089B5826089BD84E600008150E9F709B4B7
:100C000000FEFDCF89B5846089BD82E38FBD10BE33
:100C100095E097BD11E016BD10B883E384BD8EEF5B
:100C20008BBD1ABC87B5837F87BDC698D89815BB86
:100C300093BF8CE983BB89B7846189BF17B887B13B
:100C400090919C00892B87B98FEC86B980EF81B990
:100C500012B8479A81E090E074D590939500809304
:100C6000940083E090E06DD5909393008093920080
:100C700086E090E059D58093F10087E090E054D56C
:100C80008093F20087FD1093F20088E090E054D545
:100C90006093EC007093ED008093EE009093EF0072
:100CA00097FF0CC080E898EAA2E1B1E08093EC00E5
:100CB0009093ED00A093EE00B093EF008CE090E0F5
:100CC0003BD56093E8007093E9008093EA0090932D
:100CD000EB0097FF0CC080E898EAA2E1B1E08093B6
:100CE000E8009093E900A093EA00B093EB002FE0B6
:100CF00088E190E00FB6F894A89581BD0FBE21BDA4
:100D00007894DA98DB985524539412E0412E0AE047
:100D1000A02EB12C87E0882E912C93E0392EFE0175
:100D20003196FA8BE98B7E01F1E1EF0EF11CA8956B
:100D30008FB7F8947090B1000091B2008FBF80918E
:100D4000B0008111A9C01092B5008091AE00882337
:100D500009F479C085B7877E85BF85B7806285BF76
:100D600085B7806285BF889585B78F7D85BF85B73C
:100D70008F7D85BF2FB6F894C0909D00D0909E00C7
:100D8000B60180E090E06093C7007093C800809344
:100D9000C9009093CA002091A1003091A20040E0C8
:100DA00050E02093CF003093D0004093D100509377
:100DB000D20031D42093D7003093D8004093D9008B
:100DC0005093DA002FBEC601B3E0880F991FBA9581
:100DD000E1F7B501CED37093C4006093C3001092C5
:100DE000C5009FB7F8948091A7009FBF8151909153
:100DF000F100891B87FD03C08093F00002C01092B0
:100E0000F0008091F00082331CF021E32093F00089
:100E10008091F000992787FD9095FC01EE0FFF1F50
:100E2000E657FF4F259134913093BE002093BD00CB
:100E3000FC01EE0FFF1FEA5DFF4F859194919093A7
:100E4000C0008093BF002FB7F894809189009091E3
:100E50008A00A0918B00B0918C0040918D00509140
:100E60008E0060918F00709190002FBF84179507BE
:100E7000A607B70708F468C04092B0000296A11D0B
:100E8000B11D80938D0090938E00A0938F00B0933E
:100E9000900048D9DA9A57C031E0731611F0033048
:100EA00031F45092B000033011F40093B0008091FF
:100EB000B0008330B9F40330A9F01092B0008091F3
:100EC000890090918A00A0918B00B0918C000196CE
:100ED000A11DB11D80938D0090938E00A0938F0073
:100EE000B09390008091B0008130B9F4711015C0BA
:100EF0001092B0008091890090918A00A0918B009F
:100F0000B0918C000696A11DB11D80938D00909329
:100F10008E00A0938F00B09390008EEF800F8230F0
:100F200090F0013031F4809188008A3160F0DB98D4
:100F30000BC08091E2009091E3008430910508F0AD
:100F4000DB98892B09F4DB9A8091B30081FD0AC0FC
:100F50008091B700811106C0023031F48091880081
:100F60008A3110F0DA9801C0DA9A8091B500853B99
:100F700008F0D99A033009F443C08091AB0088236C
:100F800009F43EC04FB7F8941092AB008091A100D5
:100F90009091A2002091A3003091A4002817390756
:100FA00058F4821B930B813A910510F080EA90E08F
:100FB00096958795282F01C020E08091A5009091FB
:100FC000A6004FBF222379F08134A2E09A0710F4E3
:100FD00080E015C02091BF003091C000281739076C
:100FE00050F484E60CC08134B2E09B0788F388306B
:100FF000E3E09E07B0F78154924096958795B9D863
:101000009FB7F8948091A900D090AA001092A900EF
:101010001092AA009FBF882341F12FB7F8946091E6
:10102000A5007091A60080E090E02FBF20E83CE989
:1010300041E050E0F2D2842F952F9093E700809307
:10104000E6002FB7F89460919F007091A00080E0B7
:1010500090E02FBF20EC31EF4CE050E0DED2842F47
:10106000952F9093E1008093E000DD2009F4A5C066
:101070002FB7F8946091A1007091A20080E090E0F9
:101080002FBF20E039E343E050E0C7D2842F952FF3
:101090009093E3008093E2002FB7F8946091A3004F
:1010A0007091A40080E090E02FBF20E039E343E09E
:1010B00050E0B3D2C901DA01AD016627772750931A
:1010C000E5004093E4002091E2003091E30080913C
:1010D000E8009091E900A091EA00B091EB00820F46
:1010E000931FA11DB11D841B950BA60BB70B40913F
:1010F000F200552747FD5095652F752F841B950BE2
:10110000A60BB70BB7FD09C08093E8009093E900E8
:10111000A093EA00B093EB0008C01092E800109290
:10112000E9001092EA001092EB008091EC0090919F
:10113000ED00A091EE00B091EF004091E8005091D9
:10114000E9006091EA007091EB0084179507A6070B
:10115000B70744F48093E8009093E900A093EA0075
:10116000B093EB002091B200223039F54091E800B5
:101170005091E9006091EA007091EB00841B950B9F
:10118000A60BB70BB7FD09C08093EC009093ED0060
:10119000A093EE00B093EF0008C01092EC00109204
:1011A000ED001092EE001092EF001092E800109205
:1011B000E9001092EA001092EB009FB7F89480913A
:1011C000AC001092AC009FBF882309F487C02FB7F2
:1011D000F8948091940090919500803A954068F041
:1011E000109295001092940080919200909193003B
:1011F000019690939300809392009091B10080911A
:101200009A00911104C08E3138F48F5F03C0882397
:1012100019F0815080939A002FBF8091AD008F5FAD
:101220008093AD008C3308F459C01092AD008091CA
:10123000AF0082301CF081508093AF00DFB6F8948D
:10124000609194007091950081E090E099D2609156
:1012500092007091930083E090E092D2DFBE2FB7AE
:10126000F894809198009091990096958795409177
:1012700096005091970084179507A0F450929B0018
:101280008091920090919300B40173D1892B39F42D
:101290008091AF00811103C03092AF0005C0109261
:1012A000AF0002C010929B002FBFDFB6F8944091B0
:1012B000EC005091ED006091EE007091EF0088E03D
:1012C00090E056D24091E8005091E9006091EA0028
:1012D0007091EB008CE090E04BD2DFBE8091730008
:1012E00090917400981709F422CDA989BA89E0E198
:1012F0001D92EA95E9F767D7182F873A09F47EC05F
:1013000048F4853A09F44EC008F093C0882309F4E4
:1013100022C1F7C08C3A09F4CEC078F48B3A09F0B8
:10132000F0C051D7CFB6F8946091A7006151681B07
:101330006093F10086E090E0E2C08E3A09F4D7C0F5
:101340008F3A09F0DEC03FD7682F70E080E090E070
:1013500020E13EE040E050E05ED1B901CA0124E660
:1013600030E040E050E057D12093EC003093ED00A6
:101370004093EE005093EF002093E8003093E90093
:101380004093EA005093EB00CFB6F8944091EC0004
:101390005091ED006091EE007091EF0088E090E0D8
:1013A000E7D1AEC08FB7F89490919D0020919E0038
:1013B0002A839B839091F0009C879091C300209199
:1013C000C4002D879E878FBF8091E0009091E1003F
:1013D0009C838D838091E2009091E3009E838F83B4
:1013E0008091E6009091E700988789878091E400DA
:1013F0009091E5009A878B8788E25BC0E4D61092D3
:10140000B5009091B30080FF0EC08091B9008111AA
:101410000AC08091B800811106C0D998916090935C
:10142000B30081E005C0D99A9E7F9093B30080E01D
:10143000E7D62FB7F89480919200909193009A8309
:101440008B8380919400909195009C838D838091F3
:101450009A00882311F04D8601C01D8690919B0053
:1014600091708D85892B8D872FBF8091B0008E83E1
:101470000F8378868091B3008987E0E8F0E080E010
:1014800090E02191820F911D20E0E838F207C9F722
:1014900023E0969587952A95E1F78A878091DF006A
:1014A0008B878091B4008C878091980090919900EF
:1014B0009E878F8726C08091E8009091E900209157
:1014C000EA003091EB003A832B839C838D838091DB
:1014D000EC009091ED002091EE003091EF003E8302
:1014E0002F83988789878091AF008A870AC06BD63F
:1014F000CFB6F8948093F200682F87E090E026D171
:10150000CFBE1983FE01319680E09191890FEE15CF
:10151000FF05D9F7888BFE01319691912FB7F8948A
:1015200030926000809162008F5F8F702FBF20919A
:101530006100821305C0209160002111F8CF0BC01B
:10154000A82FB0E0AD59BF4F9C9380936200EE1579
:10155000FF0519F7ECCBE6D5EACB991B79E004C07F
:10156000991F961708F0961B881F7A95C9F78095E2
:101570000895AA1BBB1B51E107C0AA1FBB1FA617DA
:10158000B70710F0A61BB70B881F991F5A95A9F72C
:1015900080959095BC01CD010895A1E21A2EAA1B59
:1015A000BB1BFD010DC0AA1FBB1FEE1FFF1FA21713
:1015B000B307E407F50720F0A21BB30BE40BF50B10
:1015C000661F771F881F991F1A9469F76095709599
:1015D000809590959B01AC01BD01CF010895052E2A
:1015E00097FB16F400940FD057FD05D0D6DF07FC0B
:1015F00002D046F408C050954095309521953F4F54
:101600004F4F5F4F089590958095709561957F4FEE
:101610008F4F9F4F089568940013E894A0E0B0E0C6
:10162000E3E1FBE01DC0EFEFE7F959016A015E233A
:10163000550FEE08FE2C87019B01AC019E23990FEC
:10164000660B762FCB013BD0CDB7DEB7EAE024C0E6
:101650002F923F924F925F926F927F928F929F92C2
:10166000AF92BF92CF92DF92EF92FF920F931F93B0
:10167000CF93DF93CDB7DEB7CA1BDB0B0FB6F89461
:10168000DEBF0FBECDBF09942A88398848885F84A1
:101690006E847D848C849B84AA84B984C884DF8012
:1016A000EE80FD800C811B81AA81B981CE0FD11DF6
:1016B0000FB6F894DEBF0FBECDBFED010895DF93E6
:1016C000CF939F92A0E49A2E0024D001E001F00174
:1016D00016950795F794E794D794C794B794A79471
:1016E00048F41068A20FB31FC41FD51FE61FF71FD1
:1016F000081E191E220F331F441F551F661F771F18
:10170000881F991F9A9421F79D01AE01BF01C00166
:1017100011249F90CF91DF910895DC0101C06D935A
:1017200041505040E0F70895E199FECF9FBB8EBB3A
:10173000E09A99278DB30895A6E1B0E044E050E027
:1017400025C0A8E1B0E042E050E020C0262FE1999A
:10175000FECF9FBB8EBBE09A01970DB2021639F007
:101760001CBA2DBB0FB6F894E29AE19A0FBE089509
:101770000396272FECDFEADF252FE9DF242FE7CFC1
:101780000196272FE4DFE2CFDC01CB01FC01E199D8
:10179000FECF06C0FFBBEEBBE09A31960DB20D92B4
:0C17A00041505040B8F70895F894FFCF76
:00000001FF
