S00B00006D6F642E73726563D9
S113000009C016C0DBC014C013C012C011C010C098
S11300100FC0B3C011241FBECFE9CDBF20E0A0E6BE
S1130020B0E001C01D92AE36B207E1F722D144C15F
S1130030E7CF8FE090E08115910511F00197F1F77A
S113004008951F93CF93DF93182FD8E0C0E0F1DF1A
S1130050B29BFECFEEDFCC0FB199C1608C2F8170C3
S1130060B29B0EC0882331F0B199FACF81E080931E
S11300706D0004C0B19BF4CF10926D00D0E078C045
S1130080D15029F71123C1F08C2F8E7F883289F447
S1130090C198B99AB29BFECFB299FECFCADFC19A7A
S11300A0B998C0FF02C083E001C082E080936D0074
S11300B05EC010926D005CC0C198B99AB29BFECF2D
S11300C0B299FECFB6DFC19AB99810926C00C134D0
S11300D009F441C078F5C033C1F128F5C03209F004
S11300E044C080916600909167006BE170E0D3D0CA
S11300F0809365009093640080916A0090916B00F6
S113010080936300A0E0B0E0892F9A2FAB2FBB2728
S113011080936200809168009091690080936100EF
S11301209093600022C0C13399F0C034F1F48091FF
S1130130630019C0C334A9F088F0C03521F0C1357B
S1130140A1F4C39A12C0C39810C0809165000BC07B
S11301508091640008C08091620005C080916100B4
S113016002C08091600080936C0010926D00DC2FBF
S11301708D2FDF91CF911F9108951F920F920FB68B
S11301800F9211242F938F939F9397B184B125B12C
S11301909370923049F490E0922B9093670080938F
S11301A0660082E487B987B98FEC86B99F918F91F5
S11301B02F910F900FBE0F901F9018951F920F92C2
S11301C00FB60F9211242F933F934F935F936F9326
S11301D07F938F939F93AF93BF93EF93FF93B199C3
S11301E037C0B29B35C08BB78F7D8BBFB299FECF22
S11301F081E080936D0080916D00882331F18091BE
S11302006D00823029F0833031F08130D9F401C09F
S113021080E017DFF0CF90916C0088E097FF03C077
S1130220C19AB99802C0C198B99AB29BFECFB2994B
S1130230FECF990F815091F7C19AB998B29BFECF26
S1130240B299FECF10926D00D6CF8BB780628BBF70
S1130250FF91EF91BF91AF919F918F917F916F919A
S11302605F914F913F912F910F900FBE0F901F9070
S1130270189588B3866088BBBB9AA99A8BB78062AD
S11302808BBFA49A80E487B9399A8FEC86B9479AD0
S113029078940000FECF0024552704C0080E591F8F
S11302A0880F991F009729F076956795B8F3710523
S10F02B0B9F7802D952F0895F894FFCF26
S9030000FC
