:10000000FCC0000025C1000023C1000021C1000088
:100010001FC100001DC100001BC100000C941A1775
:100020000C94481715C1000013C1000011C1000055
:100030000FC100000DC100000BC1000009C100008C
:100040000C94E41405C1000003C1000001C10000CC
:100050000C94E116FDC00000FBC00000F9C00000D8
:10006000F7C00000F5C00000F3C00000F1C00000C0
:100070000C94AB16EDC00000EBC00000E9C000001E
:10008000E7C00000E5C00000E3C000006364696EE3
:100090006F70737578585B000D0A2D2D2D2D2D2D49
:1000A0002D2D2D2D2B2D2D2D2D2D2D2B2D2D2D2D84
:1000B0002D2D2B2D2D2D2D2B000D0A5343433A2092
:1000C00020646179732020796461796C202020415B
:1000D00068202020536F434320000D0A2D2D2D2D25
:1000E0002D2D2D2D2D2D2D2D2D2D2B2D2D2D2D2D42
:1000F0002D2B2D2D2D2D2D2B2D2D2D2B2D2D2D2D36
:100100002D2D2B2D2D2D2D2D2D2D2D2B2D2D2D2D23
:100110002D2B2D2D2D2D2D2D2B2D2D2D2D2B2D2D15
:100120002D2D2D2D2D2D2D000D0A5343433A20202A
:10013000202073797374656D206261747473742008
:10014000736F6C737420536F432020205670762099
:10015000204963686172676520205662617474206B
:1001600020496C6F61642074656D70206C6F6164F0
:100170007374617465003E3E205348532D436F6E87
:1001800074726F6C20362E342072756E6E696E67D5
:10019000203E3E0A0D0025643B25643B25643B253B
:1001A000643B25643B25643B25643B003B332E3197
:1001B0003B362E343B25632563256325633B25634E
:1001C0002563256325633B256C753B2563256325E6
:1001D0006325633B003F646174613D002F616E6184
:1001E0006C79746963732F64617461706F696E7484
:1001F0005F6261636B656E642F0011241FBECFEFD9
:10020000D0E4DEBFCDBF14BE0FB6F894A8958091A0
:100210006000886180936000109260000FBE1BE058
:10022000A0E0B1E0E2E6F5E600E00BBF02C0079017
:100230000D92A63BB107D9F720E1A6EBBBE001C0C8
:100240001D92AA36B207E1F70E94D80E0C94AF3285
:10025000D7CEDC01CB0181159105A105B10529F0AF
:1002600081509040A040B040D9F708959B0144E6EA
:10027000BC01469FC001479F900D1124BC0180E046
:1002800090E040E050E00E94782A822F089581306B
:1002900031F088F0823031F0833039F009C08CE1E0
:1002A00091E0089584E291E008958CE291E0089550
:1002B00084E391E0089584E191E008958F708130A6
:1002C00031F088F0823031F0833039F009C08BE4AE
:1002D00091E0089582E591E0089589E591E008951F
:1002E00085E391E0089584E491E00895813021F060
:1002F00060F0823021F006C087E691E008958EE636
:1003000091E0089585E791E0089580E691E00895F1
:10031000813031F088F0823031F0833039F009C01B
:1003200084E891E008958CE891E0089584E991E0F3
:10033000089584E391E008958CE791E008952F9269
:100340003F924F925F926F927F928F929F92AF9265
:10035000BF92CF92DF92EF92FF920F931F93CF93B2
:10036000DF93CDB7DEB762970FB6F894DEBF0FBE4E
:10037000CDBFA8951092CD0F0F2EFFEBCF2EFFE033
:10038000DF2EF02D0F2EF3EF6F2EFFE07F2EF02DDE
:100390000F2EFCE25F2EF02DA12CB12C689444248A
:1003A00044F8CE0101961C018E010F5E1F4F68EDCF
:1003B0007FEE80E090E04DDFF101242D11922A952F
:1003C000E9F7A98ABA8A4601F601148A67EA852DF7
:1003D0000E94202999230CF4FEC06CEF77E180E0A5
:1003E00090E037DF452DB10180E190E00E94932934
:1003F00099230CF4EBC02889188ACE0101967C0160
:10040000FC0180E09191890FE017F107D9F72813DB
:1004100039C08A8190E0982F88272B81822BF301A5
:1004200091AF80AF8E81F401848B8F81808F88851E
:10043000848F898580A38A8580A78B851F928F935F
:10044000FA89FF9329892F938CE991E09F938F93E9
:100450000E94A12B8C8590E0F30191A380A38D8550
:10046000F40184A38E8590E0982F88272F85822B16
:10047000F30191AB80AB0F900F900F900F900F9006
:100480000F9004C0F40184898064848B68EF7FE25C
:1004900080E090E0DEDEF101242D11922A95E9F74B
:1004A00065EA852D0E94202999230CF48AC06CEFFF
:1004B00077E180E090E0CDDE452DB10180E190E074
:1004C0000E94932999230CF477C02889188A80E028
:1004D000F70191917F01890FE017F107C9F7281300
:1004E00066C02A8130E0322F22278B81282BA7EC8F
:1004F000B3E30E94B62A2FEF33E040E050E00E94C1
:10050000782A3F932F93FA89FF9329892F9383EBBE
:1005100091E09F938F930E94A12B8C8190E0982F64
:1005200088272D81822BF301918780878E8190E02F
:10053000982F88272F81822B918B808B888590E044
:10054000982F88272985822B918380838A8590E044
:10055000982F88272B85822B918F808F8C85F40193
:1005600080AB2D8530E0322F22278E85282BA2E705
:10057000B6E00E94B62A2FEF33E040E050E00E9440
:10058000782A3F932F93FA89FF9329892F9383EC3D
:1005900091E09F938F930E94A12BF401848980683E
:1005A000848B0FB6F894DEBF0FBECDBF18C0F40128
:1005B00084898064848B13C0F40184898062848B75
:1005C0000EC0F40184898062848B09C0F60184899D
:1005D0008062848B04C0F60184898062848BFFEF83
:1005E000AF1ABF0A2FEFC21AD20A539482E0680EE4
:1005F000711C90E35912DBCE62960FB6F894DEBF01
:100600000FBECDBFDF91CF911F910F91FF90EF9063
:10061000DF90CF90BF90AF909F908F907F906F9022
:100620005F904F903F902F9008952F923F924F925E
:100630005F926F927F928F929F92AF92BF92CF9272
:10064000DF92EF92FF920F931F93CF93DF9300D02F
:1006500000D01F92CDB7DEB75C01892B09F058C1DD
:1006600088E291E09F938F930E94B42B8AED90E0F3
:100670009F938F930E94B42B0F2EFFEBEF2EFFE082
:10068000FF2EF02D0F2EF3E0AF2EF0E1BF2EF02D58
:100690000F2EFBE0CF2EF0E1DF2EF02D0F900F900C
:1006A0000F900F9047010F2EFCE26F2E712CF02D52
:1006B0006894332432F80F2EF8EE4F2EF1E05F2EBF
:1006C000F02D7F926F9223ED31E03F932F930E94A4
:1006D000A12B84010F900F900F900F90F40184894B
:1006E00088232CF020E431E0822F932F04C0ECE328
:1006F000F1E08E2F9F2F9F938F932CED31E03F934E
:100700002F930E94A12BF8018489D8DD9F938F93AA
:100710002CED31E03F932F930E94A12BF801808DA7
:10072000B6DD9F938F932CED31E03F932F930E9482
:10073000A12BF801848DDADD9F938F932CED31E0AE
:100740003F932F930E94A12BF80180A51F928F93B6
:100750002FED31E03F932F930E94A12BF70185AD40
:100760008F9384AD8F935F924F920E94A12BF501DE
:1007700080819181F2E0AF0EB11C9F938F935F92C5
:100780004F920E94A12BF70185A98F9384A98F9383
:1007900025EE31E03F932F930E94A12BF60180813B
:1007A0009181F2E0CF0ED11C0FB6F894DEBF0FBEE0
:1007B000CDBF9F938F935F924F920E94A12BF80120
:1007C00080A91F928F932EEE31E03F932F930E94CA
:1007D000A12BF80180A19CDD9F938F932CED31E03C
:1007E0003F932F930E94A12B3A949FEF691A790AA5
:1007F000EFEF8E1A9E0AF2E0EF0EF11C0FB6F8949E
:10080000DEBF0FBECDBF31105CCF83E593E00E9409
:10081000DB2B89EB90E09F938F930E94B42B88E9A8
:1008200090E09F938F930E94B42B8BE190E10F2E69
:10083000FBEEAF2EFFE0BF2EF02D0F900F900F902C
:100840000F900F2EFCE22F2E312CF02D0F2EF3EDFA
:10085000CF2EF1E0DF2EF02D0F2EF8EFEF2EF1E08E
:10086000FF2EF02D07EF11E00F2EFDEF8F2EF1E0A0
:100870009F2EF02D0F2EF3E06F2EF2E07F2EF02D45
:100880009A8389833F922F92DF92CF920E94A12B6D
:1008900049805A80F20181898F9380898F93FF92DA
:1008A000EF920E94A12BE981FA8181858F93808547
:1008B0008F931F930F930E94A12BF20181812981B5
:1008C0003A812E5F3F4F3A8329838F9380818F93A4
:1008D0009F928F920E94A12BF50181915F011F923F
:1008E0008F937F926F920E94A12BFFEF2F1A3F0AE6
:1008F0000FB6F894DEBF0FBECDBF30E32316310430
:1009000009F683E593E00E94DB2B80E090E02FC2A4
:100910006115710509F06FC18FE4E9E0F2E0D501DE
:1009200001900D928A95E1F78FEB9FE09A8389837E
:100930000F2EF3E06F2EF0E17F2EF02D0F2EFBE057
:10094000CF2EF0E1DF2EF02D7C010F2EFCE24F2E9A
:10095000512CF02D94E09B83EEE4F0E00F2EFCEDA3
:100960002F2EF1E03F2EF02D0F2EF8EE8F2EF1E01E
:100970009F2EF02DFD83EC835F924F9225ED31E0A9
:100980003F932F938C819D818A0D9B1D9F938F9305
:100990000E940B2CEC81FD81E80FF91FFD83EC8395
:1009A00009811A810F900F900F900F900F900F9068
:1009B000F801848988231CF0A0E4B1E002C0ACE314
:1009C000B1E0EC81FD81EA0DFB1D8D919C911197A9
:1009D0009183808312968D919C9113979383828348
:1009E0002C813D812D5F3F4F3D832C83F80184890D
:1009F00065DC9F938F933F922F928C819D818A0D0E
:100A00009B1D9F938F930E940B2C2C813D81280F5F
:100A1000391F3D832C83F801808D39DC9F938F93A0
:100A20003F922F928C819D818A0D9B1D9F938F9366
:100A30000E940B2C2C813D81280F391F3D832C8374
:100A4000F801848D53DC9F938F933F922F928C817A
:100A50009D818A0D9B1D9F938F930E940B2C2C814F
:100A60003D81280F391F3D832C83F80180A51F92FB
:100A70008F932FED31E03F932F938C819D818A0DD1
:100A80009B1D9F938F930E940B2CEC81FD81E80F9F
:100A9000F91FFD83EC83F70185AD8F9384AD8F93B0
:100AA0009F928F928C819D818A0D9B1D9F938F9326
:100AB0000E940B2C2C813D81280F391F3D832C83F4
:100AC000F30180819181F2E06F0E711C9F938F93EF
:100AD0009F928F92C9018A0D9B1D9F938F930E94B5
:100AE0000B2C2C813D81280F391F3D832C830FB6A1
:100AF000F894DEBF0FBECDBFF70185A98F9384A9FF
:100B00008F9325EE31E03F932F938C819D818A0D49
:100B10009B1D9F938F930E940B2CEC81FD81E80F0E
:100B2000F91FFD83EC83F60180819181F2E0CF0E05
:100B3000D11C9F938F939F928F928C819D818A0D60
:100B40009B1D9F938F930E940B2C2C813D81280F1E
:100B5000391F3D832C83F80180A91F928F932EEEBD
:100B600031E03F932F938C819D818A0D9B1D9F9334
:100B70008F930E940B2CEC81FD81E80FF91FFD8300
:100B8000EC83F80180A1C4DB9F938F9328E532E0CA
:100B90003F932F938C819D818A0D9B1D9F938F93F3
:100BA0000E940B2CEC81FD81E80FF91FFD83EC8383
:100BB000FB81F150FB832FEF421A520A89819A81FF
:100BC00001969A83898392E0E90EF11C0FB6F8949E
:100BD000DEBF0FBECDBFFB81F111CECE2C813D819A
:100BE000F901EA0DFB1D8DE09AE09183808312826A
:100BF000C9010296BCC06130710509F0B6C082E23D
:100C0000EDE5F2E0D50101900D928A95E1F70BE157
:100C100010E18BEE9FE09A8389830F2EFCE28F2EEA
:100C2000912CF02DE1E2F0E00F2EF5EDCF2EF1E06A
:100C3000DF2EF02D0F2EF8EFEF2EF1E0FF2EF02D2E
:100C40000F2EF7EF6F2EF1E07F2EF02D0F2EFDEF20
:100C50004F2EF1E05F2EF02D0F2EFFE72F2EF2E04A
:100C60003F2EF02DFD83EC839F928F92DF92CF92E7
:100C70008C819D818A0D9B1D9F938F930E940B2CCD
:100C80002C813D81280F391F3D832C83F8018189F8
:100C90008F9380898F93FF92EF92C9018A0D9B1DDC
:100CA0009F938F930E940B2C2C813D81280F391F1D
:100CB0003D832C83F80181858F9380858F937F926C
:100CC0006F92C9018A0D9B1D9F938F930E940B2CDD
:100CD0002C813D81280F391F3D832C83F8018181B0
:100CE0000E5F1F4F8F9380818F935F924F92C90148
:100CF0008A0D9B1D9F938F930E940B2CEC81FD818D
:100D0000E80FF91FFD83EC83E981FA818191FA8371
:100D1000E9831F928F933F922F928C819D818A0D40
:100D20009B1D9F938F930E940B2C2C813D81280F3C
:100D3000391F3D832C833FEF831A930A0FB6F89433
:100D4000DEBF0FBECDBF90E38916910409F08CCFB2
:100D5000EC81FD81EA0DFB1D8DE09AE0918380839B
:100D600012828C819D81029602C080E090E00F90FB
:100D70000F900F900F900F90DF91CF911F910F91D7
:100D8000FF90EF90DF90CF90BF90AF909F908F90AB
:100D90007F906F905F904F903F902F9008955F925B
:100DA0006F927F928F929F92AF92BF92CF92DF927B
:100DB000EF92FF920F931F93CF93DF93CDB7DEB7E0
:100DC00060970FB6F894DEBF0FBECDBF782E562EBB
:100DD000642E0FEB1FE00F2EFCE29F2EF02D689487
:100DE000882484F8CE0101966C015E0191E1A90E80
:100DF000B11C68ED7FEE80E090E02BDAF601882DE3
:100E000011928A95E9F77801F80184898F70848BB3
:100E1000672D892D0E942029992374F1662021F0E5
:100E2000652D892D0E9420296CEF77E180E090E00C
:100E300010DA492DB60180E190E00E9493299923B0
:100E4000B4F02889188AFE01319680E09191890FCB
:100E5000EA15FB05D9F7281305C0F70184898068D6
:100E6000848B0EC0F70184898064848B09C0F701EC
:100E700084898062848B04C0F80184898062848BB9
:100E80000F5F1F4F9394F0E39F12B3CF60960FB69E
:100E9000F894DEBF0FBECDBFDF91CF911F910F91B0
:100EA000FF90EF90DF90CF90BF90AF909F908F908A
:100EB0007F906F905F900895CF93C82F1F928F936C
:100EC00087E892E09F938F930E94A12B0F900F9041
:100ED0000F900F90C11105C040E060E089EA5FDF2C
:100EE00004C040E060E088EA5ADFCF910895CF93D4
:100EF000C82F1F928F9389E992E09F938F930E944E
:100F0000A12B41E06C2F8BEA4ADF0F900F900F90DE
:100F10000F90CF910895CF93C82F8C2F0C2E000CDB
:100F2000990B9F93CF938BEA92E09F938F930E94AC
:100F3000A12B41E06C2F8EEA32DF0F900F900F90C3
:100F40000F90CF910895CF93C82F8C2F0C2E000CAB
:100F5000990B9F93CF938DEB92E09F938F930E9479
:100F6000A12B41E06C2F8FEA1ADF0F900F900F90AA
:100F70000F90CF91089582ED92E00E94DB2B40E02C
:100F800060E08DEA0CCF08952F923F924F925F92CE
:100F90006F927F928F929F92AF92BF92CF92DF9289
:100FA000EF92FF920F931F93CF93DF93CDB7DEB7EE
:100FB00068970FB6F894DEBF0FBECDBFA89587EE39
:100FC00092E00E94DB2B0F2EFFEB8F2EFFE09F2E77
:100FD000F02D0F2EFBE1CF2EF0E1DF2EF02D0F2EA6
:100FE000FCE2FF2EF02D212C312C6894AA24A4F8C9
:100FF0009E012F5F3F4F29018E010F5E1F4F68ED4D
:101000007FEE80E090E025D9D201EA2D1D92EA958D
:10101000E9F7E22CB32C3401D40154961C926CEA0B
:101020008F2D0E94202999230CF49AC06CEF77E150
:1010300080E090E00ED94F2DB20180E190E00E9457
:10104000932999230CF487C02889188AFE013196C8
:1010500080E09191890FE017F107D9F7281373C049
:101060002A818B8190E0A0E0B0E0DC0199278827FD
:10107000B22B2D81822B2C81AC01BD01522B498BCF
:101080005A8B6B8B7C8B2E818F8190E0A0E0B0E03F
:10109000DC0199278827B22B2985822B2885AC0172
:1010A000BD01522B4D8B5E8B6F8B788F8A851F9283
:1010B0008F937F936F935F934F935C895F936B895B
:1010C0006F937A897F9389898F93BF92EF92A9EF6B
:1010D000B2E0BF93AF930E94A12B69897A898B8973
:1010E0009C8920E13EE040E050E00E94782AD60151
:1010F0002D933C930FB6F894DEBF0FBECDBF298968
:101100003A894B895C896D897E898F89988D6217B0
:1011100073078407950790F02115310541055105A6
:1011200069F0A4E6B0E00E94C52A2D893E894F8966
:10113000588D0E94782AD3019C962C93F3018489C0
:101140008068848B14C0D30154968C91549780642A
:1011500054968C930CC0F40184898062848B07C000
:10116000D40154968C915497806254968C93BFEF1F
:101170002B1A3B0AEFEF8E1A9E0AF394F2E0CF0E81
:10118000D11C20E3F2123BCF68960FB6F894DEBF75
:101190000FBECDBFDF91CF911F910F91FF90EF90C8
:1011A000DF90CF90BF90AF909F908F907F906F9087
:1011B0005F904F903F902F9008959091BB0E80913B
:1011C000BA0E9817D1F3E091BA0EEF5FE093BA0E22
:1011D000F0E0E454F14F808108952091BB0E90918E
:1011E000BA0E81E0291301C080E008952F923F924A
:1011F0004F925F926F927F928F929F92AF92BF9227
:10120000CF92DF92EF92FF920F931F93CF93DF93D2
:10121000CDB7DEB7C154D1090FB6F894DEBF0FBE0B
:10122000CDBF6B011FB7F89448E250E061E370E076
:101230008AEB9CE00E9460321FBF0F2EFAEBEF2E6C
:10124000FCE0FF2EF02DF70101900020E9F7319727
:101250008F010A5B1C408CED91E09F938F93C80136
:1012600099278654934F9F938F930E94392C080F90
:1012700085ED91E09F938F93802F90E08654934F5C
:101280009F938F930E94392C080FF601008360E42E
:1012900070E0CE0101960E94501BE02FF0E0BC01EF
:1012A000CF018654934F0E943D2BF70101900020FF
:1012B000E9F731979F012A5B3C40190180E00E94C9
:1012C0004C2722968FAF229781E00E944C27482E10
:1012D00082E00E944C27582E83E00E944C27682E03
:1012E000C090BF0FD090C00FE090C10FF090C20F20
:1012F00080E00E941C27782E81E00E941C27882E07
:1013000082E00E941C27982E83E00E941C27A82EB2
:1013100080E00E946427B82E81E00E946427082F95
:1013200082E00E946427182F83E00E9464271F92A6
:1013300022963FAD22973F931F924F921F925F924A
:101340001F926F92FF92EF92DF92CF921F927F9245
:101350001F928F921F929F921F92AF921F92BF92E5
:101360001F920F931F921F931F928F938CEA91E00D
:101370009F938F93C10199278654934F9F938F9387
:101380000E94392C182F120D0FB6F894DEBF0FBE35
:10139000CDBF80E00E943427982E81E00E94342740
:1013A000A82E82E00E943427B82E83E00E943427C2
:1013B0004091431050914410609145107091461037
:1013C00020903F10309040104090411050904210BB
:1013D000C0904E10D0904F10E0905010F0905110EF
:1013E00060904D1070904C10009158101F929F9279
:1013F0001F92AF921F92BF921F928F930F2EF0E118
:101400008F2EFEE09F2EA12CB12CF02DCB01BA0126
:10141000A50194010E94782A5F934F933F932F93E5
:10142000C201B101A50194010E94782A5F934F93F4
:101430003F932F93FF92EF92DF92CF921F926F9282
:101440001F927F921F920F938DE193E09F938F9352
:10145000812F90E08654934F9F938F930E940B2C83
:10146000180F9FB7F89488B10FB6F894DEBF0FBE7F
:10147000CDBF8095082F001F0027001F000F000F11
:10148000000F299B0061289B00622A9B00642B9B14
:1014900000689FBF80913510909136109F938F9375
:1014A0000F2EF2E4EF2EF3E0FF2EF02DFF92EF92DD
:1014B000812F90E08654934F9F938F930E940B2C23
:1014C000180F80913310909134109F938F93FF9257
:1014D000EF92812F90E08654934F9F938F930E94B9
:1014E0000B2C180F8091391090913A109F938F9385
:1014F000FF92EF92812F90E08654934F9F938F93AA
:101500000E940B2C180F80913710909138109F93E8
:101510008F93FF92EF92812F90E08654934F9F9389
:101520008F930E940B2C180F4091521020913B106A
:1015300030913C1080913D1090913E101F924F933E
:101540003F932F939F938F938CE393E09F938F937D
:10155000812F90E08654934F9F938F930E940B2C82
:10156000180F80915B102091C90F3091CA0F0FB6F0
:10157000F894DEBF0FBECDBF1F928F9303FB882769
:1015800080F91F928F93802F002E000C990B892FCA
:10159000881F8827881F1F928F9306FB882780F952
:1015A0001F928F9305FB882780F91F928F9304FB6E
:1015B000882780F91F928F933F932F9386E991E0BC
:1015C0009F938F93812F90E08654934F9F938F9397
:1015D0000E94392C180F0E94CB1B9F938F93FF9270
:1015E000EF92812F90E08654934F9F938F930E94A8
:1015F0000B2C180F80910310909104109F938F93E0
:10160000FF92EF92812F90E08654934F9F938F9398
:101610000E940B2C180F80910510909106109F933B
:101620008F93FF92EF92812F90E08654934F9F9378
:101630008F930E940B2C180F809107109091081027
:101640000FB6F894DEBF0FBECDBF9F938F93FF926E
:10165000EF92812F90E08654934F9F938F930E9437
:101660000B2C180F80914B100F900F900F900F9034
:101670000F900F90882309F446C088EF90E00E94F5
:1016800078320F2EF0E18F2EFEE09F2EA12CB12C90
:10169000F02DA50194010E94782A5F934F933F9308
:1016A0002F930F2EF6E4EF2EF3E0FF2EF02DFF9296
:1016B000EF92812F90E08654934F9F938F930E94D7
:1016C0000B2C180F609147107091481080914910B1
:1016D00090914A10A50194010E949A2A5F934F931A
:1016E0003F932F93FF92EF92812F90E08654934F78
:1016F0009F938F930E940B2C180F0FB6F894DEBFA8
:101700000FBECDBF0CC0A12FB0E0A654B34F85E0F3
:10171000EBE4F3E001900D928A95E1F71C5F8AEB10
:101720009CE09F938F9380E593E09F938F930E941B
:10173000A12B0F900F900F900F90812FCF5BDF4F59
:101740000FB6F894DEBF0FBECDBFDF91CF911F91D2
:101750000F91FF90EF90DF90CF90BF90AF909F9050
:101760008F907F906F905F904F903F902F90089553
:10177000EF92FF920F931F93CF937C01062FC0E04F
:101780000E945A1C88230CF4CF5F8430A1F0C4302F
:10179000B8F311E015C0B801C7010E94A61E882346
:1017A00019F0CF5FC430B9F711E0C43048F410E04D
:1017B00007C011E005C0C430E0F7C0E010E0EBCF97
:1017C0000E94D81F812FCF911F910F91FF90EF9012
:1017D0000895CF93FB0101900020E9F73197E61BB4
:1017E000F70B86309105ACF4E431F10594F49B01DC
:1017F000CFB7F894AF014F5F5F4FE4E1E89FB001CE
:10180000E99F700D1124675A7F4FC9010E948232EF
:10181000CFBFCF9108956F927F928F929F92AF9298
:10182000BF92CF92DF92EF92FF920F931F93CF93CD
:10183000DF93CDB7DEB7C054D1090FB6F894DEBF41
:101840000FBECDBF682E0E946F17882309F449C0D0
:101850000E94D11846C0A89560E77EE589E090E037
:101860000E942901A8950E946F17811102C00E9451
:10187000D1180E94D82061100E94261B0E94972038
:1018800060E470E0CE0101960E94501B8C011F9312
:101890008F93DF92CF920E94A12B0E94FB200F908A
:1018A0000F900F900F90811103C08A2D9B2D02C0C5
:1018B000882D992D9F938F93FF92EF920E94A12BD9
:1018C0000F900F900F900F90012B19F47A947110D4
:1018D000C2CF0E942B21882309F181E080935F1001
:1018E0001DC00F2EF3E07F2EF02D0F2EFAE5CF2E28
:1018F000F3E0DF2EF02D0F2EF9E88F2EF1E09F2E72
:10190000F02D0F2EF5E5AF2EF3E0BF2EF02D0F2EAC
:10191000F3E6EF2EF3E0FF2EF02D9DCFC05CDF4FFE
:101920000FB6F894DEBF0FBECDBFDF91CF911F91F0
:101930000F91FF90EF90DF90CF90BF90AF909F906E
:101940008F907F906F900895EF92FF920F931F9367
:10195000CF93DF93CDB7DEB7A1970FB6F894DEBF74
:101960000FBECDBF8FB7F894EFEBFFE00485158570
:10197000158614868FBF00FF46C10E949B2480916C
:101980005F10882309F43FC180916010882309F417
:101990003AC160E270E0CE0102960E940E237C0103
:1019A000009709F430C1FF928F9380E793E09F93F3
:1019B0008F930E94A12B44E050E06FE873E0C701D1
:1019C0000E94442B0F900F900F900F90892B39F4A9
:1019D00060E070E08AEB9CE00E9415030FC145E0D7
:1019E00050E064E973E0C7010E94442B892B39F46D
:1019F00061E070E08AEB9CE00E941503FFC044E0C8
:101A000050E06AE375E0C7010E94442B892B29F45A
:101A10008AEB9CE00E947827F1C045E050E06AE93B
:101A200073E0C7010E94442B892BA1F4F7011682B1
:101A3000C70105960E94D52A0E9487288FE0E0EA18
:101A4000F3E0AAEBBCE001900D928A95E1F78EE0FD
:101A500090E0D4C045E050E06FEA73E0C7010E9417
:101A6000442B892BA1F4F7011782C70105960E9428
:101A7000D52A0E948A2881E1E5EBF3E0AAEBBCE0DD
:101A800001900D928A95E1F780E190E0B7C045E0C2
:101A900050E066EC73E0C7010E94442B892BA1F44F
:101AA000F7011782C70105960E94D52A0E948D284A
:101AB0008BE1ECECF3E0AAEBBCE001900D928A958F
:101AC000E1F78AE190E09AC043E050E067EE73E00E
:101AD000C7010E94442B892BA1F4F7011682C7018C
:101AE00003960E94D52A0E9490288EE0EBEEF3E048
:101AF000AAEBBCE001900D928A95E1F78DE090E0B1
:101B00007DC045E050E069EF73E0C7010E94442BBF
:101B1000892B71F40E94932883E1EFEFF3E0AAEBA5
:101B2000BCE001900D928A95E1F782E190E066C0F9
:101B300045E050E062E174E0C7010E94442B892B2C
:101B400009F4FFCF81E2E8E1F4E0AAEBBCE0019008
:101B50000D928A95E1F78BE1E9E3F4E0AAEDBCE0B0
:101B600001900D928A95E1F789E1E4E5F4E0A4EFB4
:101B7000BCE001900D928A95E1F781E2EDE6F4E098
:101B8000ACE0BDE001900D928A95E1F78CE1EEE8C2
:101B9000F4E0ACE2BDE001900D928A95E1F78FE1AF
:101BA000EAEAF4E0A7E4BDE001900D928A95E1F73E
:101BB00080E2E9ECF4E0A5E6BDE001900D928A95A3
:101BC000E1F78EE1E9EEF4E0A4E8BDE001900D92CA
:101BD0008A95E1F78CE1E7E0F5E0A1EABDE001904C
:101BE0000D928A95E1F786E1E3E2F5E0ACEBBDE02A
:101BF00001900D928A95E1F787E191E0BC018AEBB3
:101C00009CE00E94D72302FF17C080915F108823B9
:101C100099F08091601081110FC00E94B8228091CC
:101C20006110893149F40E94DC2281E080936010C8
:101C300086EB9AE00E94DB2B03FD0E949C2404FFAC
:101C4000A0C00E94962880915E108B3028F00E94E0
:101C5000D11810925E1007C00E946F17811103C047
:101C60000E94D1181D7FFFB6F8948091CE0F9091FD
:101C7000CF0F892B09F083C083EF90E00E947D3263
:101C8000EFEBFFE0908B878787859089FFBE892BDC
:101C9000E1F080915F1081110E947324BE016F5F9B
:101CA0007F4F89E395E0A2DA9981682F691B892F1C
:101CB00090E040E08654934F0E94551988232CF4FD
:101CC000EAE5F0E180818064808310FF06C08091A6
:101CD000D00F9091D10F892B31F404FF33C0809144
:101CE0005D10882379F180915F1081110E94732427
:101CF000EAE5F0E180818F778083BE016F5F7F4FDF
:101D000089E395E073DA682F8AEB9CE031DD882364
:101D1000A9F0EAE5F0E1808180688083EDE5F0E1FB
:101D200080818F5F80838081843060F010925D10AD
:101D3000EEE5F0E180818F5F808304C010925D103A
:101D400010925E1011FF0CC080915F1081110E94F3
:101D500073240E9434208B7F019711F00E94D118C8
:101D600005FD0E94DC2806FF16C00E940C29809108
:101D70005F1081110E94732481E04DDD0CC0FFBE15
:101D8000A4CF10FFDFCF8091D00F9091D10F892B7E
:101D900009F0A9CFD7CFA1960FB6F894DEBF0FBE3A
:101DA000CDBFDF91CF911F910F91FF90EF900895DC
:101DB000CF93DF93CDB7DEB7C751D2400FB6F894BB
:101DC000DEBF0FBECDBFF89480E482B980E881B950
:101DD00080EF85B98FE084B903E008B988EF87B94F
:101DE00085E58BB98AE88AB9E8E6F0E08081886009
:101DF0008083E3E7F0E0808180618083E0E6F0E0CB
:101E000018E1108387E4808383EAEFEBFFE0DF01D2
:101E10001D928A95E9F70E9419291092621010927A
:101E2000CD000093CC001092C800E9ECF0E01083E4
:101E300096E09093CA008081806880831092C500EC
:101E40000093C4001092C000E1ECF0E01083909386
:101E5000C20080818068808380E091E09093671069
:101E6000809366101092BA0E1092BB0E1092B80CAE
:101E70001092B90C1092B60B1092B70BA895299836
:101E800028982A982B984698479860E77EE589E03D
:101E900090E00E942901299A289A2A9A2B9A469A18
:101EA000479A82E084BD83E687BDEEE6F0E080815C
:101EB0008260808385B5836085BD60E77EE589E0CB
:101EC00090E00E942901A895F999FECF86EF90E055
:101ED0000E9470320FEB1FE080935B108DEE90E05C
:101EE0000E947832F801608371838283938389EE44
:101EF00090E00E94783260933F107093401080937E
:101F000041109093421085EE90E00E9478326093E9
:101F10004310709344108093451090934610109294
:101F2000581083EF90E00E947D32D80150969C9328
:101F30008E931F9781EF90E00E947D32F801928B83
:101F4000818B88EF90E00E94783260934710709305
:101F500048108093491090934A108CEF90E00E94B3
:101F6000703280934B1060EB7FED81E090E00E9437
:101F70002901A895789486E791E09F938F930E941A
:101F8000B42B8FE395E00E94DB2B1FB7F89448E257
:101F900050E061E370E08AEB9CE00E9460321FBF7A
:101FA0008AEB9CE09F938F9388E495E09F938F93B7
:101FB0000E94A12B0F900F900F900F900F900F90F9
:101FC0000F2EF9E5EF2EF0E0FF2EF02D00E010E0EF
:101FD0000F2EF1E6CF2EF5E0DF2EF02DBFB6F894F0
:101FE00044E150E0B7018AEB9CE00E946032BFBE42
:101FF0008AEB9CE09F938F931F930F93DF92CF9276
:102000000E94A12B0F5F1F4FF4E1EF0EF11C0F9008
:102010000F900F900F900F900F9007301105F1F671
:1020200081E0F9DB1D9922C01092C50083E0809306
:10203000C4001092C000E1ECF0E088E1808386E00B
:102040008093C2008081806880832898299860E707
:102050007EE589E090E00E942901A895299A60E731
:102060007EE589E090E00E942901F0CF0F2EF9E58E
:102070008F2EF0E19F2EF02D0F2EFFEBEF2EFFE0C5
:10208000FF2EF02D0F2EFCED6F2EF1E07F2EF02DA8
:102090002E012FEF421A2DEF520ACA5EDD4F488201
:1020A000C651D240C95EDD4F5882C751D240CB5E87
:1020B000DD4F1882C551D240A89512C0A89560EB9B
:1020C0007FED81E090E00E9429013EDCD7011E9661
:1020D0008C918D3328F080E895E00E94DB2BFFCFB8
:1020E000F4018081882351F34C9BE8CF82E995E08D
:1020F0000E94DB2BA8959FB7F894D4018C911C9279
:102100009FBF882309F44BC480915F1081110E9406
:10211000732460E072E0CE0101960E941C1A8C01CB
:102120000097D9F01F938F9385EA95E09F938F9343
:102130000E94A12BEAE5F0E180818779808344E069
:1021400050E06AE375E0C8010E94442B0F900F90A5
:102150000F900F90892B29F505C081EB95E00E9427
:10216000DB2B1DC4F8011482BE016B5E7D4FC801DC
:102170003DD8182F1F928F93CB5EDD4F8881C551BC
:10218000D2401F928F938EEB95E09F938F930E9486
:10219000A12B0F900F900F900F900F900F9003E0D6
:1021A0000FC445E050E06AE973E0C8010E94442B87
:1021B000892B99F4D80116961C92C80105960E94A5
:1021C000D52A0E9487280E949C24BE016B5E7D4F09
:1021D000C8010CD8182F03E0F3C345E050E062E1DA
:1021E00074E0C8010E94442B892B09F041C0F8011A
:1021F0001582EFE3F0E110821182128213820F2E1A
:10220000F3E4AF2EF0E1BF2EF02DD5011D921D920B
:102210001D921C921397109258100F2EFBE5CF2E93
:10222000F0E1DF2EF02DD6011C923FB6F8944081EC
:1022300051816281738189EE90E00E94A332F501A1
:10224000408151816281738185EE90E00E94A332CA
:10225000D6016C9186EF90E00E9491323FBEBE01A4
:102260006B5E7D4FC8010E94F608182F03E0A8C3DB
:1022700047E050E062ED75E0C8010E94442B892BD5
:10228000D9F4F8011782BE016B5E7D4FC8010E9430
:10229000F608182F682F8AEB9CE06ADACB5EDD4FD8
:1022A0008881C551D24040915C10612F681B90E03D
:1022B0008654934FFAD7FFCF44E050E06AED75E0C3
:1022C000C8010E94442B892B09F065C0C8010496FF
:1022D0006801F6E0CF0ED11CD80114962C9130E0A5
:1022E000205331092A30310508F060C30E94D52AF5
:1022F000AC01F8019681992381F0F601292F30E095
:10230000205331092A30310520F09B3211F0108220
:1023100004C0319690819111F1CFB601CA0159DA0A
:1023200045C31C141D044CF4E12FF0E0E654F34FB8
:102330008BE390E0918380831F5F94E1A90EB11C31
:1023400044E150E0B501CA5EDD4F8881C651D240FC
:10235000C95EDD4F9881C751D2400E9460325F92C2
:102360004F927F926F92812F90E08654934F9F936C
:102370008F930E940B2C180FAFEFCA1ADA0A0F9036
:102380000F900F900F900F900F90B7E0CB16D104E5
:1023900041F602E015C345E050E06FED75E0C8017D
:1023A0000E94442B892BE9F56801E5E0CE0ED11C93
:1023B000D80115968C91882381F0560190E00E94F7
:1023C0002C2B892B19F0F501108207C0FFEFAF1AF3
:1023D000BF0AD5018C918111F1CFBFB6F894F801F5
:1023E00001900020E9F7AF01401B510B4550510906
:1023F00061E370E0C6010E948232BFBEDF92CF92DD
:102400007F926F928AEB9CE09F938F930E940B2C9C
:10241000182F0F900F900F900F900F900F9002E0D9
:10242000CFC244E050E065EE75E0C8010E94442B45
:10243000892BD1F56801B4E0CB0ED11C560108C040
:1024400090E00E942C2B892B19F0F101108206C01C
:102450001501D5018D915D018111F2CFBFB6F894C0
:10246000F80101900020E9F7AF01401B510B4450E7
:10247000510961E270E0C6010E948232BFBEDF9264
:10248000CF928AEE95E09F938F938AEB9CE09F9387
:102490008F930E940B2C182F0F900F900F900F907E
:1024A0000F900F9002E08CC245E050E06FEE75E0B7
:1024B000C8010E94442B892BD1F56801B5E0CB0EF1
:1024C000D11C560108C090E00E942C2B892B19F0DA
:1024D000F101108206C01501D5018D915D018111B8
:1024E000F2CFBFB6F894F80101900020E9F7AF01F0
:1024F000401B510B4550510961E170E0C6010E943B
:102500008232BFBEDF92CF928AEE95E09F938F9387
:102510008AEB9CE09F938F930E940B2C182F0F90B7
:102520000F900F900F900F900F9002E049C244E07F
:1025300050E065EF75E0C8010E94442B892BD1F56E
:102540006801B4E0CB0ED11C560108C090E00E9497
:102550002C2B892B19F0F101108206C01501D50131
:102560008D915D018111F2CFBFB6F894F801019011
:102570000020E9F7AF01401B510B4450510961E0C5
:1025800070E0C6010E948232BFBEDF92CF928AEE17
:1025900095E09F938F938AEB9CE09F938F930E948B
:1025A0000B2C182F0F900F900F900F900F900F90F3
:1025B00002E006C247E050E06AEF75E0C8010E9401
:1025C000442B892BD1F4F8011086C80107960E948C
:1025D000D52AEBE5F0E18083DFB6F894608186EFE1
:1025E00090E00E949132DFBEBE016B5E7D4FC8015C
:1025F0000E94F608182F03E0E3C146E050E062E0D5
:1026000076E0C8010E94442B892B09F049C0C8011B
:102610000696F80101900020E9F731979F01201BF1
:10262000310BBC010CC0FB016F5F7F4F408150E05C
:10263000405351094A30510510F0108206C0AB01D9
:10264000401B510B4217530770F3DFB6F8940E94FA
:10265000F22AD70150967C936E931F971F968D9107
:102660009C915097813A954028F080EA95E0F701D7
:10267000908B8787DFBEDFB6F894D7011F966D91E8
:102680007C91509783EF90E00E94AB32DFBEBE0199
:102690006B5E7D4FC8010E94F608182F03E090C1C1
:1026A00045E050E069E076E0C8010E94442B892BA8
:1026B00009F045C0C8010596F80101900020E9F72E
:1026C00031979F01201B310BBC010CC0FB016F5FD8
:1026D0007F4F408150E0405351094A30510510F07E
:1026E000108206C0AB01401B510B4217530770F319
:1026F000DFB6F8940E94F22AF701728B618B818910
:102700009289813A954038F080EA95E0D701529657
:102710009C938E935197DFBEDFB6F894F7016189E1
:10272000728981EF90E00E94AB32DFBEBE016B5E2A
:102730007D4FC8010E94F608182F03E041C146E012
:1027400050E06FE076E0C8010E94442B892B09F02D
:1027500069C0C8010696F80101900020E9F7319799
:102760009F01201B310BBC010CC0FB016F5F7F4F31
:10277000408150E0405351094A30510510F0108219
:1027800006C0AB01401B510B4217530770F30E9468
:10279000F22A6115710579F410924B1080E89EEED3
:1027A000A6E3B0E08093471090934810A09349109F
:1027B000B0934A1019C021E020934B10DC01CB01EB
:1027C000AA27BB27E7E4F0E180839183A283B38348
:1027D0002081318142815381A0E1BEE00E94C52A5F
:1027E0006083718382839383DFB6F89440914710AE
:1027F000509148106091491070914A1088EF90E014
:102800000E94A33260914B108CEF90E00E949132B5
:10281000DFBEBE016B5E7D4FC8010E94F608182F17
:1028200003E0CEC045E050E066E176E0C8010E94DA
:10283000442B892B09F044C0C8010596F80101908A
:102840000020E9F731979F01201B310BBC010CC020
:10285000FB016F5F7F4F408150E0405351094A3088
:10286000510510F0108206C0AB01401B510B4217FE
:10287000530770F30E94F22AD7016D937D938D93D5
:102880009C9313978D919D910D90BC91A02DF70174
:1028900084839583A683B783DFB6F8944081518102
:1028A000628173818DEE90E00E94A332DFBEBE0193
:1028B0006B5E7D4FC8010E94F608182F03E080C0B0
:1028C00047E050E06CE176E0C8010E94442B892B80
:1028D000A1F4F8011086C80107960E94D52A892B19
:1028E00011F4179801C0179ABE016B5E7D4FC801A5
:1028F0000E94F608182F03E063C0EAE5F0E180814A
:102900008860808368016894BB24B5F80AC090E0B1
:102910000E94182B892B11F4D601BC92BFEFCB1A61
:10292000DB0AF60180818111F2CFBE016B5E7D4F23
:10293000C8010E94F608182F03E042C000FF0CC037
:10294000612F8AEB9CE00E94B80B882329F0EAE50E
:10295000F0E1808180688083CB5EDD4F8881C55146
:10296000D240181B0270A9F040915C1090E0612FDA
:102970008654934F9AD48F3F64F440915C10CB5EA1
:10298000DD4F8881C551D24090E0612F8654934F2E
:102990008CD4EAE5F0E180818779808388CBEAE511
:1029A000F0E180818779808327D6F3CF0F2EF9E578
:1029B000AF2EF0E0BF2EF02DC12CD12C10E0C0CCFA
:1029C0001BD61111BBCFE5CF1F920F920FB60F92FE
:1029D00011240BB60F922F933F934F935F936F93F6
:1029E0007F938F939F93AF93BF93EF93FF93ECEB02
:1029F000FFE08081918101969183808340815181A4
:102A00009A01A1EFBCE10E94B62A281B390B36952A
:102A10002795820F931F0024880F991F001C880F91
:102A2000991F001C892F902D63E7689F9001699F73
:102A3000300D11244217530749F480916210882306
:102A400029F0809162108150809362108091BC0FB8
:102A50009091BD0F8038944008F464C0ECEBFFE027
:102A60001182108282818F5F8283AFEBBFE04D9134
:102A70005D916D917C9113974F5F5F4F6F4F7F4FCB
:102A80004D935D936D937C9313971C968D919C91C0
:102A90001D9781601D969C938E931C9792818DEC5F
:102AA000989F812D112486958695282F220F220F1D
:102AB000820F981309C0FD018485958588609587EC
:102AC000848786858F5F86878091BE0F80FD07C0D3
:102AD000EFEBFFE0848595858260958784879091F0
:102AE000BE0F8BEA989F812D11248695282F220FE7
:102AF000820F981307C0EFEBFFE084859585846013
:102B0000958784878091D20F853010F0439A01C059
:102B100043988091D20F882329F0EFEBFFE083895F
:102B20008150838B80914B1081111DC080914C107E
:102B3000882339F080914C108E3118F4289A2A9A03
:102B40002B9880914C10803238F080914C108C334F
:102B500018F4289A2A982B9A80914C108E3318F0EA
:102B600028982A9A2B9A809155108370823081F090
:102B7000809155108C70883059F080915510807379
:102B8000803231F08091551080914C10811105C038
:102B90004798289A2A9A2B9A22C0809154108370C1
:102BA000833079F0809154108C708C3051F080918A
:102BB00054108073803329F080915410807C803CC5
:102BC00069F48091BC0F9091BD0F60E874E00E94A1
:102BD000512A8032914010F4479801C0479A809161
:102BE0005B10833011F4469823C080915B108230D3
:102BF00069F48091BC0F9091BD0F60E472E00E9477
:102C0000512A8039910510F4469812C080915B10CA
:102C1000813069F48091BC0F9091BD0F60E874E041
:102C20000E94512A8032914010F4469801C0469A81
:102C30008091BE0F8C3308F47BC01092BE0FEFEB77
:102C4000FFE08085918501969187808784859585B1
:102C5000806195878487408551859A01ADECBCECF5
:102C60000E94B62A96958795969587959C01220F86
:102C7000331F220F331F820F931F4817590759F430
:102C80008091C70F9091C80F892B29F08485958575
:102C90009260958784874091C70F5091C80F9A0121
:102CA000A9E8B8E80E94B62A9695879592958295EC
:102CB0008F7089279F7089276CE3689F9001699FB7
:102CC000300D11244217530739F4EFEBFFE08485F0
:102CD00095858062958784878091CE0F9091CF0FE4
:102CE000892B39F0EFEBFFE0878590890197908B76
:102CF0008787EFEBFFE080859185618972890E946B
:102D0000512A892B29F4848595859160958784873C
:102D10008091C70F9091C80F803A954048F0EFEB33
:102D2000FFE0118610868485958580649587848769
:102D3000FF91EF91BF91AF919F918F917F916F9193
:102D40005F914F913F912F910F900BBE0F900FBE4F
:102D50000F901F9018951F920F920FB60F9211248B
:102D60000BB60F928F939F93EF93FF939091CE00AA
:102D7000E091BB0EEF5FE093BB0E8091BA0EF0E0E6
:102D8000E454F14F90831D9911C09A3041F4E0EC66
:102D9000F0E0808185FFFDCF8DE08093C600E0EC00
:102DA000F0E0808185FFFDCF9093C600FF91EF9109
:102DB0009F918F910F900BBE0F900FBE0F901F90A1
:102DC00018951F920F920FB60F9211240BB60F9207
:102DD0008F939F93EF93FF939091C6001D9908C026
:102DE000E8ECF0E0808185FFFDCF9093CE0017C026
:102DF000E091B70BEF5FE093B70B8091B60BF0E07B
:102E0000E854F44F90839093C6009D3041F4E0EC79
:102E1000F0E0808185FFFDCF8AE08093C600FF91BE
:102E2000EF919F918F910F900BBE0F900FBE0F905F
:102E30001F9018951F920F920FB60F9211240BB688
:102E40000F922F933F934F935F936F937F938F9343
:102E50009F93AF93BF93EF93FF9341D0882329F0C3
:102E60004C9903C081E080935910FF91EF91BF917D
:102E7000AF919F918F917F916F915F914F913F9112
:102E80002F910F900BBE0F900FBE0F901F901895B3
:102E90001F920F920FB60F9211240BB60F928F93C1
:102EA000EF93FF93EFEBFFE086858F5F8687868544
:102EB0008A3010F4A89509C083E28093C600E0E64A
:102EC000F0E088E1808389E08083FF91EF918F912A
:102ED0000F900BBE0F900FBE0F901F90189586B1EC
:102EE000847008951F93CF93DF93C5E0D0E010E086
:102EF000A89568EF7FE280E090E00E9429010E949F
:102F0000ED08882321F00E94DD08182F07C060EB30
:102F10007FED81E090E00E94290121971C161D069B
:102F20003CF3812FDF91CF911F910895AF92BF9213
:102F3000CF92DF92EF92FF920F931F93CF93DF9385
:102F40007C015B018A01A895141615060CF04EC091
:102F5000690181E0C81AD10809F44AC0C0E0D0E094
:102F600004C0CC15DD0508F045C0A8956CEC74E0F4
:102F700080E090E00E9429010E94ED08882391F0F2
:102F80000E94DD08F701EC0FFD1F80832196F701F9
:102F9000EC0FFD1F1082B501C7010E946A2B892B1F
:102FA00069F037C060EB7FED81E090E00E9429017D
:102FB0000150110910161106A4F218C010161106BE
:102FC00084F214C0C1E084E296E00E94DB2BF7019A
:102FD000108201900020E9F73197EE19FF09CC2308
:102FE00011F0CF011AC080E090E017C0C0E0EBCF35
:102FF000C0E0D0E0CE0DDF1D188280E090E00DC073
:10300000F70101900020E9F73197CF018E199F0950
:1030100004C010161106A4F3D5CFDF91CF911F91F4
:103020000F91FF90EF90DF90CF90BF90AF900895F9
:103030004F925F926F927F928F929F92AF92BF92C8
:10304000CF92DF92EF92FF920F931F93CF93DF9374
:103050004C012B013A015901A895121613060CF0E8
:103060004BC00150110909F44EC07A01EE0CFF1C4F
:10307000E60EF71EC12CD12C04C0C016D10608F0F4
:1030800042C0A8956CEC74E080E090E00E942901B9
:103090000E94ED088823E1F00E94DD08F401EC0DA8
:1030A000FD1D80838FEFC81AD80AF401EC0DFD1DB9
:1030B000108216141704CCF4E20169917991C401CD
:1030C0000E946A2B0097A9F4EC16FD06B1F70DC01B
:1030D00060EB7FED81E090E00E94290181E0A81A79
:1030E000B1081A141B044CF207C01A141B042CF26A
:1030F00003C01A141B044CF084E296E00E94DB2B00
:1031000080E090E002C080E090E0DF91CF911F91DD
:103110000F91FF90EF90DF90CF90BF90AF909F9076
:103120008F907F906F905F904F90089520ED37E0E3
:1031300042E150E0A8ECB0E0FA01E115F10511F030
:103140003197F1F72150310919F09C9195FFF4CF97
:103150004E99FECF20ED37E042E150E0FA01E11553
:10316000F10511F03197F1F72150310911F04E9925
:10317000F5CF8093CE0008950F931F93CF93DF93E5
:10318000161617064CF48C01EC01060F171F8991D7
:10319000CDDFC017D107D9F7DF91CF911F910F91E4
:1031A0000895CF93DF938CE296E09F938F930E94D4
:1031B000A12B8FB7F89496E09093D20F8FBF0F900A
:1031C0000F90CFEBDFE0A8958FB7F8949B899923F8
:1031D000D1F08FBF6CEC74E080E090E00E94290198
:1031E000F2CF63E070E08FE396E0C6DFA89560E77A
:1031F0007EE589E090E00E94290163E070E08FE3C2
:1032000096E0BADF0CC08FBF6CEC74E080E090E019
:103210000E94290186B1C82FC47082FDE2CF62DE10
:1032200083E496E00E94DB2B8C2FDF91CF910895F1
:10323000FC0101900020E9F73197E81BF90B9F0191
:103240002A5031092B30310508F5DC012C912B3245
:1032500001F5E230F10500F111962C91119730E063
:10326000205331092A303105D0F41296E80FF91FA6
:1032700007C02D9130E0205331092A30310590F4F8
:10328000AE17BF07B1F781E090E0089580E090E0CD
:10329000089580E090E0089581E090E0089580E056
:1032A00090E0089580E090E00895DF92EF92FF9221
:1032B0000F931F93CF93DF93CDB7DEB7C856D109D5
:1032C0000FB6F894DEBF0FBECDBFD82EE92EF62E76
:1032D000142F9F938F9389E596E09F938F930E947D
:1032E000A12B0FB7F89484E1189FB0011124675AFD
:1032F0007F4F44E150E0CE018F5B9F4F0E946032D0
:103300000FBFCE018F5B9F4F93DF0F900F900F90F9
:103310000F90892B09F480C069E070E085E696E0A3
:103320002BDFCE018F5B9F4F9F938F938FE696E0AD
:103330009F938F938E010B5A1F4F1F930F930E94E1
:103340000B2CBC017727C80117DF20E430E045E0F3
:1033500050E064E776E0CE010196E8DD0F900F9033
:103360000F900F900F900F90892BE1F486E796E075
:103370000E94DB2B1F928BE18F938CE796E09F934B
:103380008F931F930F930E940B2CBC017727C801CA
:10339000F3DEA8DD0F900F900F900F900F900F901D
:1033A0008DEF3BC06F2D70E08D2D9E2DE5DE1F92C1
:1033B0008AE18F938CE796E09F938F938E010B5A4F
:1033C0001F4F1F930F930E940B2CBC017727C8013E
:1033D000D3DE88DD8FE796E00E94DB2B20E430E02F
:1033E0004CE350E066E876E0CE0101969FDD182FB1
:1033F000812F012E000C990B9F931F938CE896E070
:103400009F938F930E94A12B6DDD0FB6F894DEBFC2
:103410000FBECDBF812F01C08FEFC859DF4F0FB650
:10342000F894DEBF0FBECDBFDF91CF911F910F91FA
:10343000FF90EF90DF9008959F92AF92BF92CF924E
:10344000DF92EF92FF920F931F93CF93DF93CDB74D
:10345000DEB764970FB6F894DEBF0FBECDBFE82E7F
:10346000F92E8B0110925C1068E070E089E996E01B
:1034700083DE60E77EE589E090E00E942901A8955F
:1034800098014EE150E062EA76E08E2D9F2D4EDDF0
:10349000892B09F49AC0980147E050E06DEA76E084
:1034A0008E2D9F2D43DD892BF1F492C0823209F4D9
:1034B0009F5F7801923051F4BF92AF920E94A12B8E
:1034C0000F900F90D02EC12E93E018C09430B1F41D
:1034D000F801319710828FEFE81AF80A8D2D9C2D94
:1034E0000E94DB2B11C00E2D1F2D90E0D12CC12C82
:1034F0000F2EF4EBAF2EF6E0BF2EF02D7801F80181
:1035000081918F018111D2CF65E47BE0C7010E94D8
:103510006A2B009739F48EEB96E00E94DB2B80E05B
:1035200090E058C08C010E5F1F4FFC0122812223C6
:1035300079F02D3039F403C08D3031F401C0D80159
:103540001C9206C0FC013396DF0181918111F4CFFA
:103550001F930F938DE596E09F938F930E94A12B6D
:103560000F2EF9E5EF2EF0E0FF2EF02D0F900F90CB
:103570000F900F90A12CB12C9FB6F89444E150E02D
:10358000B701CE0101960E9460329FBEBE016F5FFF
:103590007F4F8D2D9C2D0E94342B892B49F4A092B6
:1035A0005C1086EC96E00E94DB2B802F912F12C0DE
:1035B000FFEFAF1ABF0A84E1E80EF11CE7E0AE1698
:1035C000B104D1F6802F912F05C080E090E002C0B9
:1035D00080E090E064960FB6F894DEBF0FBECDBFDA
:1035E000DF91CF911F910F91FF90EF90DF90CF90DF
:1035F000BF90AF909F900895CF93DF93CDB7DEB784
:10360000A0970FB6F894DEBF0FBECDBF6AE070E0A2
:1036100086ED96E0B1DD20E230E047E050E066ED77
:1036200076E0CE01019682DC20E230E047E050E017
:103630006FEA76E0CE01019679DCA0960FB6F89499
:10364000DEBF0FBECDBFDF91CF910895CF93DF9343
:10365000CDB7DEB7A0970FB6F894DEBF0FBECDBFD3
:1036600063E170E081EE96E087DD20E230E04AE041
:1036700050E061EE76E0CE01019658DC20E230E0C9
:103680004AE050E06FEA76E0CE0101964FDCA0966A
:103690000FB6F894DEBF0FBECDBFDF91CF91089576
:1036A000CF92DF92EF92FF921F93CF93DF93EC01C3
:1036B0006B0114E00F2EF5E0EF2EF7E0FF2EF02D5A
:1036C00067E070E08DEF96E057DD960145E050E051
:1036D0006DEF76E0CE012ADC960145E050E06FEA1E
:1036E00076E0CE0123DC892B29F08881811110C07E
:1036F0009E012DC060EB7FED81E090E00E942901EA
:10370000FF92EF920E94A12BEDDB0F900F902FC044
:103710009E018D3049F08A3039F0F901808188238B
:10372000B1F08D3071F40AC02F5F3F4FF9018081F5
:103730008111EFCF0CC09D3031F401C0D9011C9232
:1037400006C0F9013196DF0191919111F4CFF90191
:1037500001900020E9F73197E21BF30B3B9768F4E7
:1037600060EB7FED81E090E00E942901BBDB11500E
:1037700008F0A6CF85EF96E006C01F3F11F0C90103
:1037800002C085EF96E0DF91CF911F91FF90EF90FF
:10379000DF90CF900895CF93DF93CDB7DEB7A49796
:1037A0000FB6F894DEBF0FBECDBF67E070E08EE0CD
:1037B00097E0E2DC20E230E04AE050E06EE077E0C3
:1037C000CE010196B3DB20E230E04AE050E06FEA40
:1037D00076E0CE010196AADB892B49F1CE018396D2
:1037E0009F938F9302979F938F9386E197E09F9388
:1037F0008F93CE0101969F938F930E94672C0FB6F3
:10380000F894DEBF0FBECDBF0297A1F48AA18F93BB
:1038100089A18F9384E297E09F938F930E94A12BBD
:1038200089A19AA10F900F900F900F9005C08DEF76
:103830009FEF02C08CEF9FEFA4960FB6F894DEBF07
:103840000FBECDBFDF91CF9108950F931F93CF93FC
:10385000DF93D82FC92F8B016DE070E08CE297E0E9
:103860008BDC980144E150E06CE277E08D2F9C2FD7
:103870005DDB980144E150E06AE377E08D2F9C2FF7
:1038800055DB892B69F0980144E150E065E47BE069
:103890008D2F9C2F4BDB892B31F08D2F9C2F05C05A
:1038A00080E090E002C080E090E0DF91CF911F9136
:1038B0000F910895BF92CF92DF92EF92FF920F93F4
:1038C0001F93CF93DF93CDB7DEB7C452D1400FB66D
:1038D000F894DEBF0FBECDBF6EE170E082E497E0EA
:1038E0004BDC20E031E042E050E061E677E0CE01E1
:1038F00001961CDB20E031E042E050E06FEA76E028
:10390000CE01019613DB892B09F4FEC160E071E062
:10391000CE0101969ADF082F192F9F938F938FE680
:1039200097E09F938F930E94A12B4AE050E06CE7B1
:1039300077E0802F912F0E945C2B0F900F900F90BB
:103940000F90892B09F027C1FFB6F8948E010F5F05
:103950001E4F40E150E061E270E0C8010E94603219
:10396000FFBE64E170E087E897E006DC1F930F93E9
:103970008FE696E09F938F93005F1F4F1F930F93E7
:103980000E940B2CBC017727C801F6DB20E031E058
:1039900042E050E061E677E0CE010196C7DA20E030
:1039A00031E042E050E06FEA76E0CE010196BEDA07
:1039B0000F900F900F900F900F900F90892B09F49C
:1039C000A5C1FFB6F8940051110940E150E061E152
:1039D00070E0C8010E946032FFBE65E170E08CE9D2
:1039E00097E0CADB1F930F938FE696E09F938F9328
:1039F000005F1F4F1F930F930E940B2CBC01772772
:103A0000C801BADB20E031E042E050E061E677E057
:103A1000CE0101968BDA20E031E042E050E06FEA1F
:103A200076E0CE01019682DA0F900F900F900F9002
:103A30000F900F90892B09F46BC1FFB6F8940051D9
:103A4000110940E150E061E070E0C8010E9460327D
:103A5000FFBE64E170E082EB97E08EDB1F930F9373
:103A60008FE696E09F938F93005F1F4F1F930F93F6
:103A70000E940B2CBC017727C8017EDB20E031E0DF
:103A800042E050E061E677E0CE0101964FDA20E0B7
:103A900031E042E050E06FEA76E0CE01019646DA8E
:103AA0000F900F900F900F900F900F90892B09F4AB
:103AB00031C169E070E087EC97E05EDB1FB7F894F6
:103AC0007E0121E0E20EF21E40E150E061E270E092
:103AD000C7010E9460321FBFFF92EF920F2EF1EDDF
:103AE000CF2EF7E0DF2EF02DDF92CF928E010F5E0A
:103AF0001E4F1F930F930E940B2CBC017727C80108
:103B00003BDBBFB6F89440E150E061E170E0C701F3
:103B10000E946032BFBEFF92EF92DF92CF921F935E
:103B20000F930E940B2CBC017727C80125DBDFB661
:103B3000F89440E150E061E070E0C7010E9460321B
:103B4000DFBEFF92EF928FE696E09F938F931F93D5
:103B50000F930E940B2CBC017727C8010DDB20E0DE
:103B600031E04FE050E067ED77E0CE010196DED91D
:103B700020E031E04FE050E06FEA76E0CE010196C0
:103B8000D5D90FB6F894DEBF0FBECDBF892B09F48F
:103B9000C3C081E0CAC048E050E060EE77E0802F0B
:103BA000912F0E945C2B892B89F510E069E070E071
:103BB00089EE97E0E1DA60EE7CEB82E190E00E9432
:103BC0002901A89560E77EE589E090E00E9429013F
:103BD00020E031E042E350E069EE77E0CE0101966B
:103BE000A5D920E031E042E350E06FEA76E0CE0173
:103BF00001969CD9892B29F41F5F1430B9F688EF00
:103C000094C0143008F08AC082E08FC04AE050E0CF
:103C100063EF77E0802F912F0E945C2B892BE9F4D2
:103C200069E070E08EEF97E0A7DA20E031E04FE046
:103C300050E06EEF77E0CE01019678D920E031E0D8
:103C40004FE050E068E078E0CE0101966FD9892B13
:103C500009F466C047D983E068C049E050E06AE0F3
:103C600078E0802F912F0E945C2B892B19F510E0B2
:103C70006DE070E084E198E07FDA20E031E046E436
:103C800050E064E178E0CE01019650D920E031E0C7
:103C900046E450E06FEA76E0CE01019647D9892BE1
:103CA00029F41F5F143021F786EF3FC01430D0F5A0
:103CB00084E03BC049E050E062E278E0802F912F41
:103CC0000E945C2B892B81F56BE070E08CE298E020
:103CD00053DA20E031E048E250E06CE278E0CE01D7
:103CE000019624D9A89560E77EE589E090E00E94DE
:103CF000290120E031E048E250E068E378E0CE01BD
:103D0000019614D985EF11C08DEF0FC08CEF0DC057
:103D10008BEF0BC08AEF09C089EF07C088EF05C0A1
:103D200087EF03C086EF01C084EFCC5DDE4F0FB696
:103D3000F894DEBF0FBECDBFDF91CF911F910F91E1
:103D4000FF90EF90DF90CF90BF900895CF92DF92D9
:103D5000EF92FF920F931F93CF93DF93CDB7DEB710
:103D6000C058D1400FB6F894DEBF0FBECDBF7C0166
:103D70006B0160E77EE589E090E00E942901A8954B
:103D80006CE070E082E498E0F7D920E831E04FE0A1
:103D900050E062E478E0CE010196C8D820E831E036
:103DA0004FE050E06FEA76E0CE010196BFD8892B54
:103DB00089F498D86CE070E08FE498E0DDD920E8D1
:103DC00031E048E250E06FEA76E0CE010196AED8ED
:103DD0008EEFDEC010E064E170E08CE598E0CCD9B5
:103DE00020E831E044E150E061E778E0CE0101965F
:103DF0009DD820E831E044E150E06FEA76E0CE0162
:103E0000019694D8892B09F0BBC01F5F143019F7B5
:103E10000DEF85C063E170E08EE798E0ADD9B601A3
:103E2000C701AAD962E070E082EF96E0A5D920E848
:103E300031E044E150E061E778E0CE01019676D8C8
:103E400020E831E044E150E06FEA76E0CE010196EF
:103E50006DD8892B09F098C01F5F1430D9F60DEF8B
:103E60005EC060E170E082E998E086D920E831E048
:103E700044E150E062E978E0CE01019657D820E8AD
:103E800031E044E150E06FEA76E0CE0101964ED891
:103E9000892B29F41F5F143021F70CEF40C0143038
:103EA000B8F560E77EE589E090E00E942901A895D9
:103EB0001EE060E77EE589E090E00E9429016FE066
:103EC00070E083EA98E058D920E831E048E250E019
:103ED00063EA78E0CE01019629D820E831E048E293
:103EE00050E06FEA76E0CE01019620D8892B41F0B0
:103EF00063EB78E0CE0101960E946A2B892B21F4B6
:103F00001150B8F60BEF0BC01F3F21F40BEF07C0A9
:103F10000CEF05C000E003C00DEF01C00DEF60E73E
:103F20007EE589E090E00E942901A8950E94721721
:103F30001FE06CE070E08FE498E01ED920E831E0EB
:103F400048E250E06FE478E0CE0101960E949617B7
:103F500020E831E048E250E06FEA76E0CE010196D9
:103F60000E949617892B51F460EB7FED81E090E081
:103F70000E9429011150E9F6802F0AC0802F08C045
:103F8000143050F610E046CF143040F610E069CF00
:103F9000C058DE4F0FB6F894DEBF0FBECDBFDF9125
:103FA000CF911F910F91FF90EF90DF90CF900895E8
:103FB0001F93CF93DF93CDB7DEB7C054D1090FB6AF
:103FC000F894DEBF0FBECDBF1AE0A8956DE070E09B
:103FD0008DEB98E0D1D820E430E048E250E06DEB82
:103FE00078E0CE0101960E94961720E430E048E286
:103FF00050E06FEA76E0CE0101960E949617892B79
:1040000041F460EB7FED81E090E00E9429011150C6
:10401000E1F66BE070E08CE298E0AED820E430E0AE
:1040200048E250E06CE278E0CE0101960E949617DB
:10403000A89560E77EE589E090E00E94290120E4F0
:1040400030E048E250E068E378E0CE0101960E945B
:104050009617C05CDF4F0FB6F894DEBF0FBECDBF22
:10406000DF91CF911F910895CF93DF93CDB7DEB746
:10407000C254D1090FB6F894DEBF0FBECDBF69E0C0
:1040800070E08BEC98E078D820E430E04AE050E033
:104090006BEC78E0CE0101960E94961720E430E0A8
:1040A0004AE050E06FEA76E0CE0101960E94961752
:1040B000892B71F1CE018F5B9F4F9F938F9385ED7D
:1040C00098E09F938F93CE0101969F938F930E94C8
:1040D000672C0F900F900F900F900F900F900197FB
:1040E000D1F423968FAD23978F9322968FAD22978D
:1040F0008F9383EE98E09F938F930E94A12B23963A
:104100008EAD9FAD23970F900F900F900F9005C02D
:104110008FEF9FEF02C08FEF9FEFCE5BDF4F0FB6A9
:10412000F894DEBF0FBECDBFDF91CF910895CF933E
:10413000DF93CDB7DEB7A0970FB6F894DEBF0FBE02
:10414000CDBF6BE070E08CEE98E016D820E230E056
:104150004AE050E06FEA76E0CE0101960E949617A1
:104160006BE070E088EF98E007D820E230E04AE0AA
:1041700050E06FEA76E0CE0101960E94961766E065
:1041800070E084E099E00E94BC1820E230E04AE050
:1041900050E06FEA76E0CE0101960E949617A09655
:1041A0000FB6F894DEBF0FBECDBFDF91CF9108955B
:1041B000CF93DF93CDB7DEB7A0970FB6F894DEBFED
:1041C0000FBECDBF6AE070E08BE099E00E94BC18A2
:1041D00020E230E045E050E06FEA76E0CE01019663
:1041E0000E949617A0960FB6F894DEBF0FBECDBF03
:1041F000DF91CF9108951F93CF93DF93CDB7DEB7B3
:10420000A0970FB6F894DEBF0FBECDBF69E070E097
:1042100086E199E00E94BC1860E77EE589E090E0C5
:104220000E942901A89520E230E04EE150E060E2D2
:1042300079E0CE0101960E949617182F0E947217FE
:10424000812FA0960FB6F894DEBF0FBECDBFDF91D1
:10425000CF911F910895CF93DF93CDB7DEB7EC9741
:104260000FB6F894DEBF0FBECDBF68E070E086E207
:1042700099E00E94BC1860E77EE589E090E00E942A
:104280002901A8952CE330E044E150E06FEA76E0A4
:10429000CE0101960E949617892B59F06FE279E0C2
:1042A000CE0101960E946A2B21E0892B19F420E0AF
:1042B00001C020E0822FEC960FB6F894DEBF0FBE4F
:1042C000CDBFDF91CF9108950F931F93CF93DF93CD
:1042D000CDB7DEB7EE970FB6F894DEBF0FBECDBFF9
:1042E0006DE070E082E399E00E94BC182CE330E0BE
:1042F0004AE050E062E379E08E010F5F1F4FC80192
:104300000E9496172CE330E044E150E06FEA76E03B
:10431000C8010E949617CE01CD969F938F9380E49B
:1043200099E09F938F931F930F930E94672C8C01AA
:104330000E9472170F900F900F900F900F900F9098
:104340000130110589F48EAD8F938DAD8F9380E58B
:1043500099E09F938F930E94A12B8DAD9EAD0F90FE
:104360000F900F900F9002C08FEF9FEFEE960FB659
:10437000F894DEBF0FBECDBFDF91CF911F910F919B
:104380000895CF93DF93CDB7DEB7A0970FB6F8941B
:10439000DEBF0FBECDBF8DE599E00E94DB2B6DE047
:1043A00070E084E799E00E94BC1820E230E04AE027
:1043B00050E064E779E0CE0101960E949617A89537
:1043C00060E77EE589E090E00E942901A89560E71A
:1043D0007EE589E090E00E942901A89560E77EE5EE
:1043E00089E090E00E942901A89520E230E048E2AF
:1043F00050E06FEA76E0CE0101960E949617A096F3
:104400000FB6F894DEBF0FBECDBFDF91CF910895F8
:10441000CF93DF93CDB7DEB7A0970FB6F894DEBF8A
:104420000FBECDBF82E899E00E94DB2B6DE070E00B
:1044300085E999E00E94BC1820E230E04AE050E0B3
:1044400065E979E0CE0101960E949617A89560E78C
:104450007EE589E090E00E94290120E230E048E218
:1044600050E06FEA76E0CE0101960E949617A09682
:104470000FB6F894DEBF0FBECDBFDF91CF91089588
:104480000F931F93CF93DF93CDB7DEB7E2970FB6AD
:10449000F894DEBF0FBECDBF6BE070E083EA99E019
:1044A0000E94BC1822E330E04AE050E063EA79E081
:1044B000CE0101960E94961722E330E044E150E0DD
:1044C0006FEA76E0CE0101960E9496176FEA79E0D6
:1044D000CE0101960E946A2B8C010E947217012B5B
:1044E00029F08CEB99E00E94DB2B36C082EE99E03C
:1044F0000E94DB2B67E170E080E09AE00E94BC182C
:1045000022E330E045E050E06FEA76E0CE0101962C
:104510000E94961761E170E088E19AE00E94BC1861
:1045200022E330E045E050E06FEA76E0CE0101960C
:104530000E94961764E170E08AE29AE00E94BC183B
:1045400022E330E045E050E06FEA76E0CE010196EC
:104550000E9496170E94721781E0E2960FB6F894B7
:10456000DEBF0FBECDBFDF91CF911F910F91089598
:104570008FE39AE00E94DB2BA7DE8093611081110C
:104580000CC07EDFFEDE60E77EE589E090E00E9401
:104590002901A89599DE80936110809161101F9286
:1045A0008F9383E59AE09F938F930E94A12B0F90A6
:1045B0000F900F900F900895CF93DF93CDB7DEB794
:1045C000A0970FB6F894DEBF0FBECDBF88E69AE085
:1045D0000E94DB2B6CE070E08EE79AE00E94BC1832
:1045E00020E230E04AE050E06EE77AE0CE0101964A
:1045F0000E94961720E230E048E250E06FEA76E051
:10460000CE0101960E9496179927A0960FB6F894AE
:10461000DEBF0FBECDBFDF91CF910895CF92DF9265
:10462000EF92FF920F931F93CF93DF93CDB7DEB737
:104630002A970FB6F894DEBF0FBECDBFE82EF92E35
:104640006B0186E0EEE0F1E0DE01159601900D923F
:104650008A95E1F7A8958B012AE030E043E050E02D
:10466000BE016B5F7F4F8E2D0E9418188C01009742
:1046700009F480C01F938F938BE89AE09F938F93E8
:104680000E94A12B89859A85FC0101900020E9F701
:104690003197AF01481B590B6E2D7F2DF5D70F9029
:1046A0000F900F900F90892B89F40E9472178091C0
:1046B0006010811162C080DF81E08093601082EA27
:1046C0009AE00E94DB2B80E090E062C08F819885A9
:1046D000FC0101900020E9F73197AF01481B590B0D
:1046E000B801D2D7892B59F40E947217109260102A
:1046F0008FEB9AE00E94DB2B80E090E049C09601AE
:1047000047E050E065E47BE08E2D9F2D0E949617D8
:10471000892BB1F1CE0103969F938F9302979F93BC
:104720008F938EE197E09F938F93FF92EF920E9479
:10473000672C0FB6F894DEBF0FBECDBF029719F5F8
:10474000EE2DFF2D30E006C02C3209F43F5FDF0173
:10475000323031F08E2F9F2F21912D30A9F718C0C4
:1047600080818D3099F0319681918D30E9F78A2FD3
:104770009B2F0EC080E090E00BC080E090E008C06E
:1047800080E090E005C080E090E002C08E2F9B2F7B
:104790002A960FB6F894DEBF0FBECDBFDF91CF9142
:1047A0001F910F91FF90EF90DF90CF9008952F927F
:1047B0003F924F925F926F927F928F929F92AF92B1
:1047C000BF92CF92DF92EF92FF920F931F93CF93FE
:1047D000DF93CDB7DEB7C25AD1090FB6F894DEBF6A
:1047E0000FBECDBF6115710509F462C06B014C01AC
:1047F0007C0100E010E0612C712C0F2EF2E02F2ED6
:10480000FBE03F2EF02D2E0181E8480E511C0F5F7A
:104810001F4FF70181917F018A3009F045C058018F
:10482000A618B708BF92AF923F922F925F924F9215
:10483000F2D7CF55DF4F99838883C15AD04083E1A7
:104840009BE0B9D7CF55DF4F68817981C15AD040FD
:104850007727C2010E94BC1820E830E04AE050E00F
:1048600067E27BE0CE0101960E949617B501C40174
:10487000860D971D0E94BC1860E77EE589E090E0F8
:104880000E942901A89520E830E042E350E06AE266
:104890007BE0CE0101960E9496170F900F900F902B
:1048A0000F900F900F903801C016D10609F0AFCFCE
:1048B00081E0CE55DF4F0FB6F894DEBF0FBECDBFFF
:1048C000DF91CF911F910F91FF90EF90DF90CF90EC
:1048D000BF90AF909F908F907F906F905F904F9020
:1048E0003F902F90089582E899E065D780916010FD
:1048F000882329F063E170E084E39BE058DF1092A5
:104900006010E2DC80936110811104C088E49BE0B8
:1049100052C708957DDDD8DC8093611099279F935D
:104920008F9383E59AE09F938F930BD70F900F900F
:104930000F900F90089508952F923F924F925F929B
:104940006F927F928F929F92AF92BF92CF92DF929F
:10495000EF92FF920F931F93CF93DF93CDB7DEB704
:10496000A3970FB6F894DEBF0FBECDBF0E949F0184
:1049700090905410209153102C8330915510F09149
:10498000561080915710409158104D8F0F2EFFEB0D
:10499000EF2EFFE0FF2EF02D8701212C312C198EF8
:1049A0001A8E1B8E1C8E412C512C32011D8A1E8AA0
:1049B0001F8A188E1C8A1B8A1A8A198A188A1F86CF
:1049C0001E861D861C861B861A8619861E821D82DF
:1049D00018861F821A8219820F2EF3E0AF2EB12C97
:1049E000F02D2F2FCC80832ED22CA501022C02C0BB
:1049F000440F551F0A94E2F740959422C422842262
:104A000024232B8384238C83F801848988230CF04E
:104A100090C089819A8101969A83898380A5AD850A
:104A2000BE85A80FB11DBE87AD8784A52F853889A7
:104A3000280F311D388B2F8780A949895A89480F43
:104A4000511D5A8B498BD701DC968D919C91DD9736
:104A50002F813885280F391F38872F83AC5BBF4FD4
:104A60006D917C914D815E81460F571F5E834D8312
:104A7000D701D4968D919C91D59729853A85280F99
:104A8000391F3A872987A701445B5F4FDA010D90F0
:104A9000BC91A02DBBA3AAA32B853C852A0F3B1F4D
:104AA0003C872B879C01990F440B550B2E8F3F8F12
:104AB00048A359A3DB0173D52D893E894F89588DB1
:104AC000260F371F481F591F2D8B3E8B4F8B588F3A
:104AD000AAA1BBA12E8D3F8D48A159A160D5460E3C
:104AE000571E681E791ED701A45ABF4F8D919C9105
:104AF000092E000CAA0BBB0B298D3A8D4B8D5C8DBA
:104B0000280F391F4A1F5B1F298F3A8F4B8F5C8FED
:104B1000D701AC5ABF4F8C913D8D380F3D8F5096C9
:104B20008D919C914B895C89480F591F5C8B4B8BF5
:104B300020C022E020A333E0348F308F348B14A2C6
:104B400010A614A610AAD701DD961C921E92DC971F
:104B5000AC5BBF4F1D921C92D701D5961C921E9242
:104B6000D497A45BBF4F11961C921E9258961D922B
:104B70001C9280A1837090E00D2C02C0880F991FB9
:104B80000A94E2F7982A248D237030E00D2C02C09D
:104B9000220F331F0A94E2F7C22AB08DB3702B2F75
:104BA00030E00D2C02C0220F331F0A94E2F73F8F32
:104BB0002E8F822A2489237030E00D2C02C0220F10
:104BC000331F0A94E2F74B81242B84A1837090E079
:104BD00002C0880F991FDA94E2F75C81852B92E07E
:104BE000290E311C0F5F1F4FA2E0EA0EF11CB8E046
:104BF0002B16310409F0F8CEF22FCC828B822D8D4A
:104C00002093581090925410C092531080925510D7
:104C1000F0935610809357108D859E8569817A8117
:104C200054D460934C108F85988969817A814DD4D2
:104C300060934D1089899A8969817A8146D46093FD
:104C400052108F81988569817A813FD47093341096
:104C50006093331089859A8569817A8136D47093FF
:104C60003610609335108B899C8969817A8119D4BB
:104C70007093CA0F6093C90F898D9A8DAB8DBC8DCF
:104C800080934E1090934F10A0935010B0935110FA
:104C9000AD81BE81B0933810A09337102B853C8531
:104CA00030933A10209339106D897E898F89988DC1
:104CB00068577C4E8F4F9F4F0F2EF0E1CF2EF7E2BB
:104CC000DF2EE12CF12CF02DA701960133D4309387
:104CD0003C1020933B10C301B20168577C4E8F4FAC
:104CE0009F4FA701960126D430933E1020933D108C
:104CF0004D815E814B3051050CF029988091371021
:104D00009091381005970CF4299A4091C30F509157
:104D1000C40F6091C50F7091C60F41155105610513
:104D2000710539F08091BF0F9091C00F841B950BD6
:104D300002C080E090E0EFEBFFE0408151816281B2
:104D400073814483558366837783EFE3F0E1409179
:104D50003B1050913C10849F9001859F300D949F93
:104D6000300D11244081518162817381420F531FA4
:104D7000611D711D408351836283738340913D1097
:104D800050913E10849F9001859F300D949F300D6F
:104D90001124E3E4F0E180819181A281B381820F4B
:104DA000931FA11DB11D80839183A283B383809142
:104DB0004B10882311F18091471090914810A091D9
:104DC0004910B0914A10821B930BA109B109181622
:104DD00019061A061B064CF480934710909348104E
:104DE000A0934910B0934A1008C010924710109237
:104DF00048101092491010924A1060E070E080E074
:104E000090E00E941503A3960FB6F894DEBF0FBE84
:104E1000CDBFDF91CF911F910F91FF90EF90DF9069
:104E2000CF90BF90AF909F908F907F906F905F904A
:104E30004F903F902F9008952091561030E0880FAA
:104E400002C0359527958A95E2F72370213021F02D
:104E500048F0223019F004C087E5089583E40895EE
:104E600085E6089589E408952091531030E0880F75
:104E700002C0359527958A95E2F72370213021F0FD
:104E800048F0223019F004C08CE4089588E40895B5
:104E900088E708958FE408952091541030E0880F3A
:104EA00002C0359527958A95E2F72370213021F0CD
:104EB00048F0223019F004C081E3089586E6089591
:104EC00086E4089580E308952091571030E0880F1C
:104ED00002C0359527958A95E2F72370223030F08D
:104EE000223011F481E4089580E508958AE7089559
:104EF000CF92DF92EF92FF920F931F93CF93DF93A6
:104F00008C018AE4EEE5FBE0D80101900D928A95D0
:104F1000E1F70F2EFFEBEF2EFFE0FF2EF02D80913B
:104F20004C101F928F9380EE91E09F938F93C80156
:104F3000875B9F4F9F938F936ED4EC01C75BDF4FCE
:104F4000E3E3F0E181818F9380818F930F2EF8EE60
:104F5000CF2EF1E0DF2EF02DDF92CF92C8018C0F23
:104F60009D1F9F938F9357D4C80FD91FE7E3F0E19C
:104F700081818F9380818F93DF92CF92C8018C0FB4
:104F80009D1F9F938F9347D4C80FD91FE5E3F0E18E
:104F900081818F9380818F9385EE91E09F938F9392
:104FA000C8018C0F9D1F9F938F9335D4C80FD91FB5
:104FB000E9E3F0E181818F9380818F93DF92CF923B
:104FC000C8018C0F9D1F9F938F9325D4C80FD91FA5
:104FD000809152101F928F938FEE91E09F938F9349
:104FE000C8018C0F9D1F9F938F9315D4C80FD91F95
:104FF0002DB73EB72C5D3F4F0FB6F8943EBF0FBEA6
:105000002DBFEBE3F0E181818F9380818F930F2E91
:10501000FFEDCF2EF1E0DF2EF02DDF92CF92C80111
:105020008C0F9D1F9F938F93F6D3C80FD91FEDE36D
:10503000F0E181818F9380818F93DF92CF92C801BD
:105040008C0F9D1F9F938F93E6D3C80FD91FEFE35B
:10505000F0E183818F9382818F9381818F9380810F
:105060008F930F2EF8EACF2EFBE0DF2EF02DDF928C
:10507000CF92C8018C0F9D1F9F938F93CCD3C80FE5
:10508000D91FE3E4F0E183818F9382818F93818143
:105090008F9380818F93DF92CF92C8018C0F9D1FD9
:1050A0009F938F93B8D3C80FD91FF70183818F9334
:1050B00082818F9381818F9380818F938FEA9BE090
:1050C0009F938F93C8018C0F9D1F9F938F93A3D3A2
:1050D0008C0F9D1FD801A80FB91F2DE03AE0119643
:1050E0003C932E9312961C922DB73EB72C5D3F4FEA
:1050F0000FB6F8943EBF0FBE2DBF0296DF91CF9141
:105100001F910F91FF90EF90DF90CF9008950C9436
:105110005C0708950C94770708950C948B07089505
:105120000C94A30708950C94BB0708958F929F9247
:10513000AF92BF92CF92DF92EF92FF920E94C4078C
:1051400080914B10882379F188EF90E00E947832AB
:105150000F2EF0E1CF2EFEE0DF2EE12CF12CF02D12
:10516000A7019601C5D149015A016091471070917C
:1051700048108091491090914A10A7019601DAD108
:10518000B401C9010E943601843120F4289A2A9A78
:105190002B9809C0813520F4289A2A982B9A03C0AD
:1051A00028982A9A2B9AFF90EF90DF90CF90BF908B
:1051B000AF909F908F900895CF93CFB7F894409180
:1051C000BF0F5091C00F6091C10F7091C20F8DEE53
:1051D00090E00E94A332CFBFCFB7F89440913F1028
:1051E00050914010609141107091421089EE90E012
:1051F0000E94A332CFBFCFB7F89440914310509193
:105200004410609145107091461085EE90E00E9428
:10521000A332CFBFCF91089588EF90E00E947832FB
:1052200060934710709348108093491090934A10F0
:10523000089580E28093B80082E08093B9000895D9
:10524000CF93DF93880F7AE0ECEBF0E0A9EBB0E0CE
:1052500034EACBEBD0E054E848E0242F03C071508F
:1052600009F447C030832093621005C0909162100A
:10527000992309F441C090819923C4F79C91987FA8
:1052800090936310903129F0983361F3983009F0CE
:1052900045C0888350832093621004C090916210AF
:1052A000992369F190819923CCF79C91987F9093F1
:1052B00063109032A1F29833A9F2983119F56883FE
:1052C00050834093621004C0909162109923E9F0DA
:1052D00090819923CCF79C91987F909363109033A1
:1052E000B9F0983309F4BECF983291F08FEF9FEF69
:1052F00011C08FEF9FEF0EC08FEF9FEF0BC08FEFAE
:105300009FEF08C08FEF9FEF05C08FEF9FEF02C0A8
:1053100080E090E024E92093BC0002C08FEF9FEF73
:10532000DF91CF910895CF92DF92EF92FF920F938A
:105330001F93CF93DF936C01440F4160ECEBF0E0DF
:10534000C9EBD0E084EA28E00BEB10E034E880837E
:105350002093621005C090916210992309F467C0F0
:1053600090819923C4F79881987F9093631090312E
:1053700029F0983361F3983009F070C0D8014C934C
:1053800030832093621005C090916210992309F434
:1053900051C090819923C4F79881987F90936310AE
:1053A000903441F0983409F448C0983381F22FEFDB
:1053B0003FEF4EC01C141D040CF042C0462F572F67
:1053C00020E030E094EC0F2EF4E8EF2EF02DECEB23
:1053D000F0E06894FF24F3F809EB10E06BEB70E069
:1053E000EA01B1E0CB16D10409F49E2D9083F0922E
:1053F000621004C080916210882329F18081882383
:10540000CCF7D8018C91887F80936310803519F098
:10541000883539F11BC0DB018C9188834F5F5F4F6A
:105420002F5F3F4FB1E0CB1AD108D1F611C02FEF5B
:105430003FEF0EC02FEF3FEF0BC020E030E008C081
:1054400020E030E005C02FEF3FEF02C02FEF3FEF2D
:1054500084E98093BC00822F932F09C08FEF9FEFC8
:1054600006C08091BB0088832F5F3F4FF1CFDF9153
:10547000CF911F910F91FF90EF90DF90CF90089503
:10548000CF93C82F8A3011F48DE0FADFE0ECF0E022
:10549000808185FFFDCFC093C60080E090E0CF9172
:1054A0000895AA1BBB1B51E107C0AA1FBB1FA6176B
:1054B000B70710F0A61BB70B881F991F5A95A9F7BD
:1054C00080959095BC01CD01089597FB072E16F4A9
:1054D000009406D077FD08D0E4DF07FC05D03EF449
:1054E000909581959F4F0895709561957F4F089590
:1054F000A1E21A2EAA1BBB1BFD010DC0AA1FBB1FD8
:10550000EE1FFF1FA217B307E407F50720F0A21B49
:10551000B30BE40BF50B661F771F881F991F1A94B6
:1055200069F760957095809590959B01AC01BD01E0
:10553000CF010895052E97FB16F400940FD057FD68
:1055400005D0D6DF07FC02D046F408C05095409540
:10555000309521953F4F4F4F5F4F0895909580951F
:10556000709561957F4F8F4F9F4F0895A29FB00117
:10557000B39FC001A39F700D811D1124911DB29F87
:10558000700D811D1124911D0895F0DFA59F900DD0
:10559000B49F900DA49F800D911D11240895B7FF15
:1055A000F4CFF3DF821B930B0895FC018827992722
:1055B000E89421912032E9F3293010F02E30C8F31D
:1055C0002B3239F02D3231F4689403C0B2D0820FFF
:1055D000911D219120532A30C8F31EF49095819596
:1055E0009F4F08951F93FC0199278827BC01E894D9
:1055F00011911032E9F3193010F01E30C8F31B324C
:1056000049F01D3241F4689405C07ED0610F711DD0
:10561000811D911D119110531A30B8F33EF49095ED
:105620008095709561957F4F8F4F9F4F1F91089583
:10563000911106C080538A5010F0865C06C0089510
:1056400099278827089585FDFBCF80629111F8CFB7
:1056500081568A51E0F708959111F2CF803219F006
:1056600089508550D0F70895FB01DC018D910190A0
:1056700080190110D9F3990B0895FB01DC01019009
:105680000D920020E1F70895FB01DC0141505040EC
:1056900088F08D9181341CF08B350CF4805E619123
:1056A00061341CF06B350CF4605E861B611171F384
:1056B000990B0895881BFCCFFB01DC014150504041
:1056C00030F08D910190801919F40020B9F7881BF2
:1056D000990B0895FB0151915523A9F0BF01DC01FD
:1056E0004D9145174111E1F759F4CD01019000208A
:1056F00049F04D9140154111C9F3FB014111EFCF24
:1057000081E090E001970895592F482F372F262FD9
:10571000660F771F881F991F660F771F881F991FB5
:10572000620F731F841F951F660F771F881F991FB5
:1057300008957AE0979F902D879F802D910D1124D9
:105740000895CF93DF93CDB7DEB7AE014B5F5F4FC8
:10575000FA0161917191AF0180916610909167108B
:10576000D7D0DF91CF9108950F931F93CF93DF93FD
:10577000CDB7DEB7AE01495F5F4FDA016D917D9124
:10578000AD0104E610E1F80182819381DC011396FA
:105790002C911397286013962C93BAD0D8011296A7
:1057A000ED91FC9113972381277F2383DF91CF9184
:1057B0001F910F9108950F931F93CF93DF93E09163
:1057C0006610F0916710238121FF1BC08C01D0E08F
:1057D000C0E0F80181918F016091661070916710AF
:1057E000DB011896ED91FC911997882331F009950A
:1057F000892B79F3DFEFCFEFECCF8AE00995892B86
:1058000019F08FEF9FEF02C08D2F9C2FDF91CF916A
:105810001F910F9108950F931F93CF93DF93CDB7EF
:10582000DEB72E970FB6F894DEBF0FBECDBF0D8941
:105830001E8986E08C831A8309838FEF9FE79E83FE
:105840008D83AE01475E5F4F6F89788DCE010196E3
:105850005FD0EF81F885E00FF11F10822E960FB612
:10586000F894DEBF0FBECDBFDF91CF911F910F9196
:1058700008950F931F93CF93DF93CDB7DEB72E9785
:105880000FB6F894DEBF0FBECDBF0D891E898EE026
:105890008C831A8309838FEF9FE79E838D83AE01EC
:1058A000475E5F4F6F89788DCE01019631D0EF81D1
:1058B000F885E00FF11F10822E960FB6F894DEBF28
:1058C0000FBECDBFDF91CF911F910F910895CF9360
:1058D000DF93CDB7DEB72E970FB6F894DEBF0FBEBD
:1058E000CDBF85E08C838B899C899A838983AE01A7
:1058F000495E5F4F6D897E89CE010196B8D32E96A1
:105900000FB6F894DEBF0FBECDBFDF91CF910895E3
:105910002F923F924F925F926F927F928F929F92BF
:10592000AF92BF92CF92DF92EF92FF920F931F93AD
:10593000CF93DF93CDB7DEB72B970FB6F894DEBFCA
:105940000FBECDBF6C017B018A01FC01178216825C
:10595000838181FFBFC1CE0101963C01F601938195
:10596000F70193FD859193FF81917F01882309F4CD
:10597000ADC1853239F493FD859193FF81917F010B
:10598000853221F4B60190E0E8D4E8CF912C212CA7
:10599000312CFFE1F315D8F08B3279F038F48032F6
:1059A00079F08332A1F4232D20611DC08D3261F086
:1059B000803369F4232D216016C0832D8260382E38
:1059C000E32DE4603E2E2AC0F32DF8601DC037FCA5
:1059D0002DC020ED280F2A3040F08E32B9F436FC6D
:1059E00075C1232D2064322E19C036FE06C08AE010
:1059F000989E200D1124922E11C0EAE02E9E200DBB
:105A00001124222EF32DF0623F2E08C08C3621F493
:105A1000832D8068382E02C0883641F4F70193FD4B
:105A2000859193FF81917F018111B3CF982F9F7D45
:105A30009554933028F40C5F1F4F9FE399830DC05A
:105A4000833631F0833771F0833509F055C020C0BB
:105A5000F801808189830E5F1F4F88248394912CE5
:105A6000530112C02801F2E04F0E511CF801A08032
:105A7000B18036FE03C0692D70E002C06FEF7FEF8A
:105A8000C50122D44C018201F32DFF773F2E15C0B2
:105A9000280122E0420E511CF801A080B18036FEA0
:105AA00003C0692D70E002C06FEF7FEFC50101D424
:105AB0004C01F32DF0683F2E820133FC19C0822D7A
:105AC00090E088169906A0F4B60180E290E045D4F3
:105AD0002A94F5CFF50137FC859137FE81915F015E
